{
  "contracts/SplitWallet.sol": {
    "SplitWallet": {
      "abi": [
        {
          "inputs": [],
          "stateMutability": "nonpayable",
          "type": "constructor"
        },
        {
          "inputs": [],
          "name": "Unauthorized",
          "type": "error"
        },
        {
          "anonymous": false,
          "inputs": [
            {
              "indexed": true,
              "internalType": "address",
              "name": "split",
              "type": "address"
            },
            {
              "indexed": false,
              "internalType": "uint256",
              "name": "amount",
              "type": "uint256"
            }
          ],
          "name": "ReceiveETH",
          "type": "event"
        },
        {
          "inputs": [
            {
              "internalType": "contract ERC20",
              "name": "token",
              "type": "address"
            },
            {
              "internalType": "uint256",
              "name": "amount",
              "type": "uint256"
            }
          ],
          "name": "sendERC20ToMain",
          "outputs": [],
          "stateMutability": "payable",
          "type": "function"
        },
        {
          "inputs": [
            {
              "internalType": "uint256",
              "name": "amount",
              "type": "uint256"
            }
          ],
          "name": "sendETHToMain",
          "outputs": [],
          "stateMutability": "payable",
          "type": "function"
        },
        {
          "inputs": [],
          "name": "splitMain",
          "outputs": [
            {
              "internalType": "contract ISplitMain",
              "name": "",
              "type": "address"
            }
          ],
          "stateMutability": "view",
          "type": "function"
        }
      ],
      "devdoc": {
        "author": "0xSplits <will@0xSplits.xyz>",
        "details": "`SplitProxy` handles `receive()` itself to avoid the gas cost with `DELEGATECALL`.",
        "events": {
          "ReceiveETH(address,uint256)": {
            "params": {
              "amount": "Amount of ETH received",
              "split": "Address of the split that received ETH"
            }
          }
        },
        "kind": "dev",
        "methods": {
          "sendERC20ToMain(address,uint256)": {
            "details": "payable reduces gas cost; no vulnerability to accidentally lock  ETH introduced since fn call is restricted to SplitMain",
            "params": {
              "amount": "Amount to send",
              "token": "Token to send"
            }
          },
          "sendETHToMain(uint256)": {
            "details": "payable reduces gas cost; no vulnerability to accidentally lock  ETH introduced since fn call is restricted to SplitMain",
            "params": {
              "amount": "Amount to send"
            }
          }
        },
        "title": "SplitWallet",
        "version": 1
      },
      "evm": {
        "bytecode": {
          "linkReferences": {},
          "object": "60a060405234801561001057600080fd5b5033606081901b60805261035461004c60003960008181604b0152818160bc015281816101080152818161013c015261018601526103546000f3fe6080604052600436106100345760003560e01c80630e769b2b146100395780637c1f3ffe14610089578063ab0ebff41461009e575b600080fd5b34801561004557600080fd5b5061006d7f000000000000000000000000000000000000000000000000000000000000000081565b6040516001600160a01b03909116815260200160405180910390f35b61009c6100973660046102d0565b6100b1565b005b61009c6100ac366004610306565b610131565b336001600160a01b037f000000000000000000000000000000000000000000000000000000000000000016146100f9576040516282b42960e81b815260040160405180910390fd5b61012d6001600160a01b0383167f0000000000000000000000000000000000000000000000000000000000000000836101af565b5050565b336001600160a01b037f00000000000000000000000000000000000000000000000000000000000000001614610179576040516282b42960e81b815260040160405180910390fd5b6101ac6001600160a01b037f00000000000000000000000000000000000000000000000000000000000000001682610233565b50565b600060405163a9059cbb60e01b81526001600160a01b03841660048201528260248201526000806044836000895af19150506101ea81610289565b61022d5760405162461bcd60e51b815260206004820152600f60248201526e1514905394d1915497d19052531151608a1b60448201526064015b60405180910390fd5b50505050565b600080600080600085875af19050806102845760405162461bcd60e51b815260206004820152601360248201527211551217d514905394d1915497d19052531151606a1b6044820152606401610224565b505050565b60003d8261029b57806000803e806000fd5b80602081146102b35780156102c457600092506102c9565b816000803e600051151592506102c9565b600192505b5050919050565b600080604083850312156102e2578182fd5b82356001600160a01b03811681146102f8578283fd5b946020939093013593505050565b600060208284031215610317578081fd5b503591905056fea2646970667358221220def78b294d6b6603231a559c8366ba0d4f86b7f8e62b7e36307ace99c6f117d064736f6c63430008040033",
          "opcodes": "PUSH1 0xA0 PUSH1 0x40 MSTORE CALLVALUE DUP1 ISZERO PUSH2 0x10 JUMPI PUSH1 0x0 DUP1 REVERT JUMPDEST POP CALLER PUSH1 0x60 DUP2 SWAP1 SHL PUSH1 0x80 MSTORE PUSH2 0x354 PUSH2 0x4C PUSH1 0x0 CODECOPY PUSH1 0x0 DUP2 DUP2 PUSH1 0x4B ADD MSTORE DUP2 DUP2 PUSH1 0xBC ADD MSTORE DUP2 DUP2 PUSH2 0x108 ADD MSTORE DUP2 DUP2 PUSH2 0x13C ADD MSTORE PUSH2 0x186 ADD MSTORE PUSH2 0x354 PUSH1 0x0 RETURN INVALID PUSH1 0x80 PUSH1 0x40 MSTORE PUSH1 0x4 CALLDATASIZE LT PUSH2 0x34 JUMPI PUSH1 0x0 CALLDATALOAD PUSH1 0xE0 SHR DUP1 PUSH4 0xE769B2B EQ PUSH2 0x39 JUMPI DUP1 PUSH4 0x7C1F3FFE EQ PUSH2 0x89 JUMPI DUP1 PUSH4 0xAB0EBFF4 EQ PUSH2 0x9E JUMPI JUMPDEST PUSH1 0x0 DUP1 REVERT JUMPDEST CALLVALUE DUP1 ISZERO PUSH2 0x45 JUMPI PUSH1 0x0 DUP1 REVERT JUMPDEST POP PUSH2 0x6D PUSH32 0x0 DUP2 JUMP JUMPDEST PUSH1 0x40 MLOAD PUSH1 0x1 PUSH1 0x1 PUSH1 0xA0 SHL SUB SWAP1 SWAP2 AND DUP2 MSTORE PUSH1 0x20 ADD PUSH1 0x40 MLOAD DUP1 SWAP2 SUB SWAP1 RETURN JUMPDEST PUSH2 0x9C PUSH2 0x97 CALLDATASIZE PUSH1 0x4 PUSH2 0x2D0 JUMP JUMPDEST PUSH2 0xB1 JUMP JUMPDEST STOP JUMPDEST PUSH2 0x9C PUSH2 0xAC CALLDATASIZE PUSH1 0x4 PUSH2 0x306 JUMP JUMPDEST PUSH2 0x131 JUMP JUMPDEST CALLER PUSH1 0x1 PUSH1 0x1 PUSH1 0xA0 SHL SUB PUSH32 0x0 AND EQ PUSH2 0xF9 JUMPI PUSH1 0x40 MLOAD PUSH3 0x82B429 PUSH1 0xE8 SHL DUP2 MSTORE PUSH1 0x4 ADD PUSH1 0x40 MLOAD DUP1 SWAP2 SUB SWAP1 REVERT JUMPDEST PUSH2 0x12D PUSH1 0x1 PUSH1 0x1 PUSH1 0xA0 SHL SUB DUP4 AND PUSH32 0x0 DUP4 PUSH2 0x1AF JUMP JUMPDEST POP POP JUMP JUMPDEST CALLER PUSH1 0x1 PUSH1 0x1 PUSH1 0xA0 SHL SUB PUSH32 0x0 AND EQ PUSH2 0x179 JUMPI PUSH1 0x40 MLOAD PUSH3 0x82B429 PUSH1 0xE8 SHL DUP2 MSTORE PUSH1 0x4 ADD PUSH1 0x40 MLOAD DUP1 SWAP2 SUB SWAP1 REVERT JUMPDEST PUSH2 0x1AC PUSH1 0x1 PUSH1 0x1 PUSH1 0xA0 SHL SUB PUSH32 0x0 AND DUP3 PUSH2 0x233 JUMP JUMPDEST POP JUMP JUMPDEST PUSH1 0x0 PUSH1 0x40 MLOAD PUSH4 0xA9059CBB PUSH1 0xE0 SHL DUP2 MSTORE PUSH1 0x1 PUSH1 0x1 PUSH1 0xA0 SHL SUB DUP5 AND PUSH1 0x4 DUP3 ADD MSTORE DUP3 PUSH1 0x24 DUP3 ADD MSTORE PUSH1 0x0 DUP1 PUSH1 0x44 DUP4 PUSH1 0x0 DUP10 GAS CALL SWAP2 POP POP PUSH2 0x1EA DUP2 PUSH2 0x289 JUMP JUMPDEST PUSH2 0x22D JUMPI PUSH1 0x40 MLOAD PUSH3 0x461BCD PUSH1 0xE5 SHL DUP2 MSTORE PUSH1 0x20 PUSH1 0x4 DUP3 ADD MSTORE PUSH1 0xF PUSH1 0x24 DUP3 ADD MSTORE PUSH15 0x1514905394D1915497D19052531151 PUSH1 0x8A SHL PUSH1 0x44 DUP3 ADD MSTORE PUSH1 0x64 ADD JUMPDEST PUSH1 0x40 MLOAD DUP1 SWAP2 SUB SWAP1 REVERT JUMPDEST POP POP POP POP JUMP JUMPDEST PUSH1 0x0 DUP1 PUSH1 0x0 DUP1 PUSH1 0x0 DUP6 DUP8 GAS CALL SWAP1 POP DUP1 PUSH2 0x284 JUMPI PUSH1 0x40 MLOAD PUSH3 0x461BCD PUSH1 0xE5 SHL DUP2 MSTORE PUSH1 0x20 PUSH1 0x4 DUP3 ADD MSTORE PUSH1 0x13 PUSH1 0x24 DUP3 ADD MSTORE PUSH19 0x11551217D514905394D1915497D19052531151 PUSH1 0x6A SHL PUSH1 0x44 DUP3 ADD MSTORE PUSH1 0x64 ADD PUSH2 0x224 JUMP JUMPDEST POP POP POP JUMP JUMPDEST PUSH1 0x0 RETURNDATASIZE DUP3 PUSH2 0x29B JUMPI DUP1 PUSH1 0x0 DUP1 RETURNDATACOPY DUP1 PUSH1 0x0 REVERT JUMPDEST DUP1 PUSH1 0x20 DUP2 EQ PUSH2 0x2B3 JUMPI DUP1 ISZERO PUSH2 0x2C4 JUMPI PUSH1 0x0 SWAP3 POP PUSH2 0x2C9 JUMP JUMPDEST DUP2 PUSH1 0x0 DUP1 RETURNDATACOPY PUSH1 0x0 MLOAD ISZERO ISZERO SWAP3 POP PUSH2 0x2C9 JUMP JUMPDEST PUSH1 0x1 SWAP3 POP JUMPDEST POP POP SWAP2 SWAP1 POP JUMP JUMPDEST PUSH1 0x0 DUP1 PUSH1 0x40 DUP4 DUP6 SUB SLT ISZERO PUSH2 0x2E2 JUMPI DUP2 DUP3 REVERT JUMPDEST DUP3 CALLDATALOAD PUSH1 0x1 PUSH1 0x1 PUSH1 0xA0 SHL SUB DUP2 AND DUP2 EQ PUSH2 0x2F8 JUMPI DUP3 DUP4 REVERT JUMPDEST SWAP5 PUSH1 0x20 SWAP4 SWAP1 SWAP4 ADD CALLDATALOAD SWAP4 POP POP POP JUMP JUMPDEST PUSH1 0x0 PUSH1 0x20 DUP3 DUP5 SUB SLT ISZERO PUSH2 0x317 JUMPI DUP1 DUP2 REVERT JUMPDEST POP CALLDATALOAD SWAP2 SWAP1 POP JUMP INVALID LOG2 PUSH5 0x6970667358 0x22 SLT KECCAK256 0xDE 0xF7 DUP12 0x29 0x4D PUSH12 0x6603231A559C8366BA0D4F86 0xB7 0xF8 0xE6 0x2B PUSH31 0x36307ACE99C6F117D064736F6C634300080400330000000000000000000000 "
        },
        "gasEstimates": {
          "creation": {
            "codeDepositCost": "170400",
            "executionCost": "infinite",
            "totalCost": "infinite"
          },
          "external": {
            "sendERC20ToMain(address,uint256)": "infinite",
            "sendETHToMain(uint256)": "infinite",
            "splitMain()": "infinite"
          }
        },
        "methodIdentifiers": {
          "sendERC20ToMain(address,uint256)": "7c1f3ffe",
          "sendETHToMain(uint256)": "ab0ebff4",
          "splitMain()": "0e769b2b"
        }
      },
      "storageLayout": {
        "storage": [],
        "types": null
      },
      "userdoc": {
        "errors": {
          "Unauthorized()": [
            {
              "notice": "Unauthorized sender"
            }
          ]
        },
        "events": {
          "ReceiveETH(address,uint256)": {
            "notice": "emitted after each successful ETH transfer to proxy"
          }
        },
        "kind": "user",
        "methods": {
          "constructor": {
            "notice": "CONSTRUCTOR"
          },
          "sendERC20ToMain(address,uint256)": {
            "notice": "Sends amount `amount` of ERC20 `token` in proxy to SplitMain"
          },
          "sendETHToMain(uint256)": {
            "notice": "Sends amount `amount` of ETH in proxy to SplitMain"
          },
          "splitMain()": {
            "notice": "address of SplitMain for split distributions & EOA/SC withdrawals"
          }
        },
        "notice": "The implementation logic for `SplitProxy`.",
        "version": 1
      }
    }
  }
}