{
  "abi": [
    {
      "inputs": [],
      "stateMutability": "nonpayable",
      "type": "constructor"
    },
    {
      "inputs": [],
      "name": "InvalidWaterfall__RecipientsAndThresholdsLengthMismatch",
      "type": "error"
    },
    {
      "inputs": [
        {
          "internalType": "uint256",
          "name": "index",
          "type": "uint256"
        }
      ],
      "name": "InvalidWaterfall__ThresholdTooLarge",
      "type": "error"
    },
    {
      "inputs": [
        {
          "internalType": "uint256",
          "name": "index",
          "type": "uint256"
        }
      ],
      "name": "InvalidWaterfall__ThresholdsOutOfOrder",
      "type": "error"
    },
    {
      "inputs": [],
      "name": "InvalidWaterfall__TooFewRecipients",
      "type": "error"
    },
    {
      "inputs": [],
      "name": "InvalidWaterfall__ZeroThreshold",
      "type": "error"
    },
    {
      "anonymous": false,
      "inputs": [
        {
          "indexed": true,
          "internalType": "address",
          "name": "waterfallModule",
          "type": "address"
        },
        {
          "indexed": false,
          "internalType": "address",
          "name": "token",
          "type": "address"
        },
        {
          "indexed": false,
          "internalType": "address",
          "name": "nonWaterfallRecipient",
          "type": "address"
        },
        {
          "indexed": false,
          "internalType": "address[]",
          "name": "recipients",
          "type": "address[]"
        },
        {
          "indexed": false,
          "internalType": "uint256[]",
          "name": "thresholds",
          "type": "uint256[]"
        }
      ],
      "name": "CreateWaterfallModule",
      "type": "event"
    },
    {
      "inputs": [
        {
          "internalType": "address",
          "name": "token",
          "type": "address"
        },
        {
          "internalType": "address",
          "name": "nonWaterfallRecipient",
          "type": "address"
        },
        {
          "internalType": "address[]",
          "name": "recipients",
          "type": "address[]"
        },
        {
          "internalType": "uint256[]",
          "name": "thresholds",
          "type": "uint256[]"
        }
      ],
      "name": "createWaterfallModule",
      "outputs": [
        {
          "internalType": "contract WaterfallModule",
          "name": "wm",
          "type": "address"
        }
      ],
      "stateMutability": "nonpayable",
      "type": "function"
    },
    {
      "inputs": [],
      "name": "wmImpl",
      "outputs": [
        {
          "internalType": "contract WaterfallModule",
          "name": "",
          "type": "address"
        }
      ],
      "stateMutability": "view",
      "type": "function"
    }
  ],
  "bytecode": {
    "object": "0x60a060405234801561001057600080fd5b5060405161001d9061004b565b604051809103906000f080158015610039573d6000803e3d6000fd5b506001600160a01b0316608052610058565b610dec806107b283390190565b608051610739610079600039600081816040015261035101526107396000f3fe608060405234801561001057600080fd5b50600436106100365760003560e01c8063435e20f81461003b578063c93793f31461007e575b600080fd5b6100627f000000000000000000000000000000000000000000000000000000000000000081565b6040516001600160a01b03909116815260200160405180910390f35b61006261008c366004610520565b6000838260028210156100b2576040516368672f8760e01b815260040160405180910390fd5b6001820381146100d5576040516399606ed160e01b815260040160405180910390fd5b848460008181106100e8576100e86105b1565b9050602002013560000361010f57604051636f7ad1d160e01b815260040160405180910390fd5b6001600160601b038585600081610128576101286105b1565b9050602002013511156101565760405163d4a251d960e01b8152600060048201526024015b60405180910390fd5b60015b81811015610202576001600160601b0386868381811061017b5761017b6105b1565b9050602002013511156101a45760405163d4a251d960e01b81526004810182905260240161014d565b8585828181106101b6576101b66105b1565b905060200201358686600184038181106101d2576101d26105b1565b90506020020135106101fa5760405163022a9bb360e51b81526004810182905260240161014d565b600101610159565b506000808367ffffffffffffffff81111561021f5761021f6105c7565b604051908082528060200260200182016040528015610248578160200160208202803683370190505b5090505b828210156102cb57888883818110610266576102666105b1565b905060200201602081019061027b91906105dd565b6001600160a01b031660a0888885818110610298576102986105b1565b90506020020135901b178183815181106102b4576102b46105b1565b60200260200101818152505081600101915061024c565b8888838181106102dd576102dd6105b1565b90506020020160208101906102f291906105dd565b6001600160a01b031681838151811061030d5761030d6105b1565b60200260200101818152505060008b8b868460405160200161033294939291906105ff565b60408051601f1981840301815291905290506103776001600160a01b037f000000000000000000000000000000000000000000000000000000000000000016826103d3565b9550856001600160a01b03167f6635ce7d85f7e44a7facfeeb661a5755a272a05c09c5e65e329e652773c1b40a8d8d8d8d8d8d6040516103bc9695949392919061066d565b60405180910390a250505050509695505050505050565b600060608203516040830351602084035184518060208701018051600283016c5af43d3d93803e606057fd5bf3895289600d8a035278593da1005b363d3d373d3d3d3d610000806062363936013d738160481b1760218a03527f9e4ac34f21c619cefc926c8bd93b54bf5a39c7ab2127a895af1cc0691d7e3dff603a8a0352716100003d81600a3d39f336602c57343d527f6062820160781b17605a8a03528060f01b8352606c8101604c8a036000f0975050866104995763301164256000526004601cfd5b90528552601f19850152603f19840152605f1990920191909152919050565b80356001600160a01b03811681146104cf57600080fd5b919050565b60008083601f8401126104e657600080fd5b50813567ffffffffffffffff8111156104fe57600080fd5b6020830191508360208260051b850101111561051957600080fd5b9250929050565b6000806000806000806080878903121561053957600080fd5b610542876104b8565b9550610550602088016104b8565b9450604087013567ffffffffffffffff8082111561056d57600080fd5b6105798a838b016104d4565b9096509450606089013591508082111561059257600080fd5b5061059f89828a016104d4565b979a9699509497509295939492505050565b634e487b7160e01b600052603260045260246000fd5b634e487b7160e01b600052604160045260246000fd5b6000602082840312156105ef57600080fd5b6105f8826104b8565b9392505050565b60006001600160601b0319808760601b168352808660601b1660148401525067ffffffffffffffff60c01b8460c01b166028830152603082018351602080860160005b8381101561065e57815185529382019390820190600101610642565b50929998505050505050505050565b6001600160a01b0387811682528681166020808401919091526080604084018190528301869052600091879160a08501845b898110156106c457836106b1866104b8565b168252938201939082019060010161069f565b5085810360608701528681526001600160fb1b038711156106e457600080fd5b8660051b9350838883830137909201909101999850505050505050505056fea26469706673582212202a8555070d19311b3d367e191c941b9e00b3d44131cb1f06471d028ca070c7c564736f6c63430008110033608060405234801561001057600080fd5b50610dcc806100206000396000f3fe6080604052600436106100915760003560e01c80636e1da3ee116100595780636e1da3ee1461015b578063dc2f511b1461017b578063dd71283e1461019e578063e8afa87d146101a6578063fc0c546a146101df57600080fd5b806303615ba314610096578063043edae8146100df57806351cff8d91461011e57806352b6eaa0146101405780635fb3a11314610153575b600080fd5b3480156100a257600080fd5b506100cc6100b1366004610c03565b6001600160a01b031660009081526001602052604090205490565b6040519081526020015b60405180910390f35b3480156100eb57600080fd5b5060005461010690600160801b90046001600160801b031681565b6040516001600160801b0390911681526020016100d6565b34801561012a57600080fd5b5061013e610139366004610c03565b6101f4565b005b61013e61014e366004610c25565b6102b7565b61013e6104c2565b34801561016757600080fd5b50600054610106906001600160801b031681565b34801561018757600080fd5b506101906104ce565b6040516100d6929190610ccc565b61013e610627565b3480156101b257600080fd5b503660011981013560f01c90036014013560601c5b6040516001600160a01b0390911681526020016100d6565b3480156101eb57600080fd5b506101c7610631565b60006101fe610631565b6001600160a01b038084166000908152600160205260408120805482546001600160801b03600160801b80830482168490038216029116178355919055919250821661025c576102576001600160a01b03841682610644565b610270565b6102706001600160a01b0383168483610664565b604080516001600160a01b0385168152602081018390527f7fcf532c15f0a6db0bd6d0e038bea71d30d808c7d98cb3bf7268a95bf5081b65910160405180910390a1505050565b6102bf610631565b6001600160a01b0316826001600160a01b0316036102f057604051635528185160e11b815260040160405180910390fd5b3660011981013560f01c90036014013560601c806103975760006103126104ce565b5090506000806103206106a8565b905060005b8181101561037057856001600160a01b031684828151811061034957610349610cfa565b60200260200101516001600160a01b0316036103685760019250610370565b600101610325565b508161038f576040516332fe787760e21b815260040160405180910390fd5b5050506103c9565b806001600160a01b0316826001600160a01b0316146103c9576040516332fe787760e21b815260040160405180910390fd5b60006001600160a01b0384166103f35750476103ee6001600160a01b03841682610644565b610471565b6040516370a0823160e01b81523060048201526001600160a01b038516906370a0823190602401602060405180830381865afa158015610437573d6000803e3d6000fd5b505050506040513d601f19601f8201168201806040525081019061045b9190610d10565b90506104716001600160a01b0385168483610664565b604080516001600160a01b038087168252851660208201529081018290527f80748ca17d5f664f0ed41aa81748479a609da41a9e0c8945933ea89e77fe97619060600160405180910390a150505050565b6104cc60006106be565b565b60608060006104db6106a8565b905060001981018167ffffffffffffffff8111156104fb576104fb610d29565b604051908082528060200260200182016040528015610524578160200160208202803683370190505b5093508067ffffffffffffffff81111561054057610540610d29565b604051908082528060200260200182016040528015610569578160200160208202803683370190505b5092506000805b828210156105e45761058182610bc9565b90508086838151811061059657610596610cfa565b60200260200101906001600160a01b031690816001600160a01b03168152505060a081901c8583815181106105cd576105cd610cfa565b602002602001018181525050816001019150610570565b6105ed82610bc9565b8683815181106105ff576105ff610cfa565b60200260200101906001600160a01b031690816001600160a01b031681525050505050509091565b6104cc60016106be565b3660011981013560f01c90033560601c90565b60008060008084865af16106605763b12d13eb6000526004601cfd5b5050565b60405163a9059cbb6000528260205281604052602060006044601c6000885af13d1560016000511417166106a0576390b8ec186000526004601cfd5b604052505050565b3660011981013560f01c90036028013560c01c90565b60006106c8610631565b600080549192506001600160801b0380831692600160801b9004166001600160a01b0384161561075f576040516370a0823160e01b81523060048201526001600160a01b038516906370a0823190602401602060405180830381865afa158015610736573d6000803e3d6000fd5b505050506040513d601f19601f8201168201806040525081019061075a9190610d10565b610761565b475b8184030191506000806107726104ce565b91509150600080600060016107856106a8565b0390505b808310156107bc57878484815181106107a4576107a4610cfa565b6020026020010151116107bc57826001019250610789565b8291505b808210156107f457868483815181106107db576107db610cfa565b602002602001015110156107f4578160010191506107c0565b5060018282030160008167ffffffffffffffff81111561081657610816610d29565b60405190808252806020026020018201604052801561083f578160200160208202803683370190505b50905060008267ffffffffffffffff81111561085d5761085d610d29565b604051908082528060200260200182016040528015610886578160200160208202803683370190505b509050896000808060001987015b8082101561093857818a0193508b84815181106108b3576108b3610cfa565b60200260200101518783815181106108cd576108cd610cfa565b60200260200101906001600160a01b031690816001600160a01b0316815250508a84815181106108ff576108ff610cfa565b6020026020010151925084830386838151811061091e5761091e610cfa565b602002602001018181525050829450816001019150610894565b8b828b018151811061094c5761094c610cfa565b602002602001015187838151811061096657610966610cfa565b60200260200101906001600160a01b031690816001600160a01b031681525050848e0386838151811061099b5761099b610cfa565b60209081029190910101526001600160801b038e11156109ce576040516328165e5960e11b815260040160405180910390fd5b5050600080546fffffffffffffffffffffffffffffffff19166001600160801b038e16178155925050505b83811015610b5c5760018d03610aa357818181518110610a1b57610a1b610cfa565b602002602001015160016000858481518110610a3957610a39610cfa565b60200260200101516001600160a01b03166001600160a01b031681526020019081526020016000206000828254610a709190610d3f565b92505081905550818181518110610a8957610a89610cfa565b602002602001015189610a9c9190610d3f565b9850610b54565b6001600160a01b038c16610b0457610aff828281518110610ac657610ac6610cfa565b6020026020010151848381518110610ae057610ae0610cfa565b60200260200101516001600160a01b031661064490919063ffffffff16565b610b54565b610b54838281518110610b1957610b19610cfa565b6020026020010151838381518110610b3357610b33610cfa565b60200260200101518e6001600160a01b03166106649092919063ffffffff16565b6001016109f9565b5060018c03610b8057600080546001600160801b03808b16600160801b0291161790555b7f6eb448389022d3f147f358f6ecfd81c15389f92b562ccf7e5bf83777bcb0328082828e604051610bb393929190610d60565b60405180910390a1505050505050505050505050565b60003660011981013560f01c90036020830201603001355b92915050565b80356001600160a01b0381168114610bfe57600080fd5b919050565b600060208284031215610c1557600080fd5b610c1e82610be7565b9392505050565b60008060408385031215610c3857600080fd5b610c4183610be7565b9150610c4f60208401610be7565b90509250929050565b600081518084526020808501945080840160005b83811015610c915781516001600160a01b031687529582019590820190600101610c6c565b509495945050505050565b600081518084526020808501945080840160005b83811015610c9157815187529582019590820190600101610cb0565b604081526000610cdf6040830185610c58565b8281036020840152610cf18185610c9c565b95945050505050565b634e487b7160e01b600052603260045260246000fd5b600060208284031215610d2257600080fd5b5051919050565b634e487b7160e01b600052604160045260246000fd5b80820180821115610be157634e487b7160e01b600052601160045260246000fd5b606081526000610d736060830186610c58565b8281036020840152610d858186610c9c565b91505082604083015294935050505056fea264697066735822122047bbcbe9d6f122bb260b605d3b01f600f89f20d9038c5f7f5098106efe0f933264736f6c63430008110033",
    "linkReferences": {}
  }
}