{
  "contracts/SplitMain.sol": {
    "SplitMain": {
      "abi": [
        {
          "inputs": [],
          "stateMutability": "nonpayable",
          "type": "constructor"
        },
        {
          "inputs": [],
          "name": "Create2Error",
          "type": "error"
        },
        {
          "inputs": [],
          "name": "CreateError",
          "type": "error"
        },
        {
          "inputs": [
            {
              "internalType": "address",
              "name": "newController",
              "type": "address"
            }
          ],
          "name": "InvalidNewController",
          "type": "error"
        },
        {
          "inputs": [
            {
              "internalType": "uint256",
              "name": "accountsLength",
              "type": "uint256"
            },
            {
              "internalType": "uint256",
              "name": "allocationsLength",
              "type": "uint256"
            }
          ],
          "name": "InvalidSplit__AccountsAndAllocationsMismatch",
          "type": "error"
        },
        {
          "inputs": [
            {
              "internalType": "uint256",
              "name": "index",
              "type": "uint256"
            }
          ],
          "name": "InvalidSplit__AccountsOutOfOrder",
          "type": "error"
        },
        {
          "inputs": [
            {
              "internalType": "uint256",
              "name": "index",
              "type": "uint256"
            }
          ],
          "name": "InvalidSplit__AllocationMustBePositive",
          "type": "error"
        },
        {
          "inputs": [
            {
              "internalType": "uint32",
              "name": "allocationsSum",
              "type": "uint32"
            }
          ],
          "name": "InvalidSplit__InvalidAllocationsSum",
          "type": "error"
        },
        {
          "inputs": [
            {
              "internalType": "uint32",
              "name": "distributorFee",
              "type": "uint32"
            }
          ],
          "name": "InvalidSplit__InvalidDistributorFee",
          "type": "error"
        },
        {
          "inputs": [
            {
              "internalType": "bytes32",
              "name": "hash",
              "type": "bytes32"
            }
          ],
          "name": "InvalidSplit__InvalidHash",
          "type": "error"
        },
        {
          "inputs": [
            {
              "internalType": "uint256",
              "name": "accountsLength",
              "type": "uint256"
            }
          ],
          "name": "InvalidSplit__TooFewAccounts",
          "type": "error"
        },
        {
          "inputs": [
            {
              "internalType": "address",
              "name": "sender",
              "type": "address"
            }
          ],
          "name": "Unauthorized",
          "type": "error"
        },
        {
          "anonymous": false,
          "inputs": [
            {
              "indexed": true,
              "internalType": "address",
              "name": "split",
              "type": "address"
            }
          ],
          "name": "CancelControlTransfer",
          "type": "event"
        },
        {
          "anonymous": false,
          "inputs": [
            {
              "indexed": true,
              "internalType": "address",
              "name": "split",
              "type": "address"
            },
            {
              "indexed": true,
              "internalType": "address",
              "name": "previousController",
              "type": "address"
            },
            {
              "indexed": true,
              "internalType": "address",
              "name": "newController",
              "type": "address"
            }
          ],
          "name": "ControlTransfer",
          "type": "event"
        },
        {
          "anonymous": false,
          "inputs": [
            {
              "indexed": true,
              "internalType": "address",
              "name": "split",
              "type": "address"
            }
          ],
          "name": "CreateSplit",
          "type": "event"
        },
        {
          "anonymous": false,
          "inputs": [
            {
              "indexed": true,
              "internalType": "address",
              "name": "split",
              "type": "address"
            },
            {
              "indexed": true,
              "internalType": "contract ERC20",
              "name": "token",
              "type": "address"
            },
            {
              "indexed": false,
              "internalType": "uint256",
              "name": "amount",
              "type": "uint256"
            },
            {
              "indexed": true,
              "internalType": "address",
              "name": "distributorAddress",
              "type": "address"
            }
          ],
          "name": "DistributeERC20",
          "type": "event"
        },
        {
          "anonymous": false,
          "inputs": [
            {
              "indexed": true,
              "internalType": "address",
              "name": "split",
              "type": "address"
            },
            {
              "indexed": false,
              "internalType": "uint256",
              "name": "amount",
              "type": "uint256"
            },
            {
              "indexed": true,
              "internalType": "address",
              "name": "distributorAddress",
              "type": "address"
            }
          ],
          "name": "DistributeETH",
          "type": "event"
        },
        {
          "anonymous": false,
          "inputs": [
            {
              "indexed": true,
              "internalType": "address",
              "name": "split",
              "type": "address"
            },
            {
              "indexed": true,
              "internalType": "address",
              "name": "newPotentialController",
              "type": "address"
            }
          ],
          "name": "InitiateControlTransfer",
          "type": "event"
        },
        {
          "anonymous": false,
          "inputs": [
            {
              "indexed": true,
              "internalType": "address",
              "name": "split",
              "type": "address"
            }
          ],
          "name": "UpdateSplit",
          "type": "event"
        },
        {
          "anonymous": false,
          "inputs": [
            {
              "indexed": true,
              "internalType": "address",
              "name": "account",
              "type": "address"
            },
            {
              "indexed": false,
              "internalType": "uint256",
              "name": "ethAmount",
              "type": "uint256"
            },
            {
              "indexed": false,
              "internalType": "contract ERC20[]",
              "name": "tokens",
              "type": "address[]"
            },
            {
              "indexed": false,
              "internalType": "uint256[]",
              "name": "tokenAmounts",
              "type": "uint256[]"
            }
          ],
          "name": "Withdrawal",
          "type": "event"
        },
        {
          "inputs": [],
          "name": "PERCENTAGE_SCALE",
          "outputs": [
            {
              "internalType": "uint256",
              "name": "",
              "type": "uint256"
            }
          ],
          "stateMutability": "view",
          "type": "function"
        },
        {
          "inputs": [
            {
              "internalType": "address",
              "name": "split",
              "type": "address"
            }
          ],
          "name": "acceptControl",
          "outputs": [],
          "stateMutability": "nonpayable",
          "type": "function"
        },
        {
          "inputs": [
            {
              "internalType": "address",
              "name": "split",
              "type": "address"
            }
          ],
          "name": "cancelControlTransfer",
          "outputs": [],
          "stateMutability": "nonpayable",
          "type": "function"
        },
        {
          "inputs": [
            {
              "internalType": "address[]",
              "name": "accounts",
              "type": "address[]"
            },
            {
              "internalType": "uint32[]",
              "name": "percentAllocations",
              "type": "uint32[]"
            },
            {
              "internalType": "uint32",
              "name": "distributorFee",
              "type": "uint32"
            },
            {
              "internalType": "address",
              "name": "controller",
              "type": "address"
            }
          ],
          "name": "createSplit",
          "outputs": [
            {
              "internalType": "address",
              "name": "split",
              "type": "address"
            }
          ],
          "stateMutability": "nonpayable",
          "type": "function"
        },
        {
          "inputs": [
            {
              "internalType": "address",
              "name": "split",
              "type": "address"
            },
            {
              "internalType": "contract ERC20",
              "name": "token",
              "type": "address"
            },
            {
              "internalType": "address[]",
              "name": "accounts",
              "type": "address[]"
            },
            {
              "internalType": "uint32[]",
              "name": "percentAllocations",
              "type": "uint32[]"
            },
            {
              "internalType": "uint32",
              "name": "distributorFee",
              "type": "uint32"
            },
            {
              "internalType": "address",
              "name": "distributorAddress",
              "type": "address"
            }
          ],
          "name": "distributeERC20",
          "outputs": [],
          "stateMutability": "nonpayable",
          "type": "function"
        },
        {
          "inputs": [
            {
              "internalType": "address",
              "name": "split",
              "type": "address"
            },
            {
              "internalType": "address[]",
              "name": "accounts",
              "type": "address[]"
            },
            {
              "internalType": "uint32[]",
              "name": "percentAllocations",
              "type": "uint32[]"
            },
            {
              "internalType": "uint32",
              "name": "distributorFee",
              "type": "uint32"
            },
            {
              "internalType": "address",
              "name": "distributorAddress",
              "type": "address"
            }
          ],
          "name": "distributeETH",
          "outputs": [],
          "stateMutability": "nonpayable",
          "type": "function"
        },
        {
          "inputs": [
            {
              "internalType": "address",
              "name": "split",
              "type": "address"
            }
          ],
          "name": "getController",
          "outputs": [
            {
              "internalType": "address",
              "name": "",
              "type": "address"
            }
          ],
          "stateMutability": "view",
          "type": "function"
        },
        {
          "inputs": [
            {
              "internalType": "address",
              "name": "account",
              "type": "address"
            },
            {
              "internalType": "contract ERC20",
              "name": "token",
              "type": "address"
            }
          ],
          "name": "getERC20Balance",
          "outputs": [
            {
              "internalType": "uint256",
              "name": "",
              "type": "uint256"
            }
          ],
          "stateMutability": "view",
          "type": "function"
        },
        {
          "inputs": [
            {
              "internalType": "address",
              "name": "account",
              "type": "address"
            }
          ],
          "name": "getETHBalance",
          "outputs": [
            {
              "internalType": "uint256",
              "name": "",
              "type": "uint256"
            }
          ],
          "stateMutability": "view",
          "type": "function"
        },
        {
          "inputs": [
            {
              "internalType": "address",
              "name": "split",
              "type": "address"
            }
          ],
          "name": "getHash",
          "outputs": [
            {
              "internalType": "bytes32",
              "name": "",
              "type": "bytes32"
            }
          ],
          "stateMutability": "view",
          "type": "function"
        },
        {
          "inputs": [
            {
              "internalType": "address",
              "name": "split",
              "type": "address"
            }
          ],
          "name": "getNewPotentialController",
          "outputs": [
            {
              "internalType": "address",
              "name": "",
              "type": "address"
            }
          ],
          "stateMutability": "view",
          "type": "function"
        },
        {
          "inputs": [
            {
              "internalType": "address",
              "name": "split",
              "type": "address"
            }
          ],
          "name": "makeSplitImmutable",
          "outputs": [],
          "stateMutability": "nonpayable",
          "type": "function"
        },
        {
          "inputs": [
            {
              "internalType": "address[]",
              "name": "accounts",
              "type": "address[]"
            },
            {
              "internalType": "uint32[]",
              "name": "percentAllocations",
              "type": "uint32[]"
            },
            {
              "internalType": "uint32",
              "name": "distributorFee",
              "type": "uint32"
            }
          ],
          "name": "predictImmutableSplitAddress",
          "outputs": [
            {
              "internalType": "address",
              "name": "split",
              "type": "address"
            }
          ],
          "stateMutability": "view",
          "type": "function"
        },
        {
          "inputs": [
            {
              "internalType": "address",
              "name": "split",
              "type": "address"
            },
            {
              "internalType": "address",
              "name": "newController",
              "type": "address"
            }
          ],
          "name": "transferControl",
          "outputs": [],
          "stateMutability": "nonpayable",
          "type": "function"
        },
        {
          "inputs": [
            {
              "internalType": "address",
              "name": "split",
              "type": "address"
            },
            {
              "internalType": "contract ERC20",
              "name": "token",
              "type": "address"
            },
            {
              "internalType": "address[]",
              "name": "accounts",
              "type": "address[]"
            },
            {
              "internalType": "uint32[]",
              "name": "percentAllocations",
              "type": "uint32[]"
            },
            {
              "internalType": "uint32",
              "name": "distributorFee",
              "type": "uint32"
            },
            {
              "internalType": "address",
              "name": "distributorAddress",
              "type": "address"
            }
          ],
          "name": "updateAndDistributeERC20",
          "outputs": [],
          "stateMutability": "nonpayable",
          "type": "function"
        },
        {
          "inputs": [
            {
              "internalType": "address",
              "name": "split",
              "type": "address"
            },
            {
              "internalType": "address[]",
              "name": "accounts",
              "type": "address[]"
            },
            {
              "internalType": "uint32[]",
              "name": "percentAllocations",
              "type": "uint32[]"
            },
            {
              "internalType": "uint32",
              "name": "distributorFee",
              "type": "uint32"
            },
            {
              "internalType": "address",
              "name": "distributorAddress",
              "type": "address"
            }
          ],
          "name": "updateAndDistributeETH",
          "outputs": [],
          "stateMutability": "nonpayable",
          "type": "function"
        },
        {
          "inputs": [
            {
              "internalType": "address",
              "name": "split",
              "type": "address"
            },
            {
              "internalType": "address[]",
              "name": "accounts",
              "type": "address[]"
            },
            {
              "internalType": "uint32[]",
              "name": "percentAllocations",
              "type": "uint32[]"
            },
            {
              "internalType": "uint32",
              "name": "distributorFee",
              "type": "uint32"
            }
          ],
          "name": "updateSplit",
          "outputs": [],
          "stateMutability": "nonpayable",
          "type": "function"
        },
        {
          "inputs": [],
          "name": "walletImplementation",
          "outputs": [
            {
              "internalType": "address",
              "name": "",
              "type": "address"
            }
          ],
          "stateMutability": "view",
          "type": "function"
        },
        {
          "inputs": [
            {
              "internalType": "address",
              "name": "account",
              "type": "address"
            },
            {
              "internalType": "uint256",
              "name": "withdrawETH",
              "type": "uint256"
            },
            {
              "internalType": "contract ERC20[]",
              "name": "tokens",
              "type": "address[]"
            }
          ],
          "name": "withdraw",
          "outputs": [],
          "stateMutability": "nonpayable",
          "type": "function"
        },
        {
          "stateMutability": "payable",
          "type": "receive"
        }
      ],
      "devdoc": {
        "author": "0xSplits <will@0xSplits.xyz>",
        "details": "Split recipients, ownerships, and keeper fees are stored onchain as calldata & re-passed as args / validated via hashing when needed. Each split gets its own address & proxy for maximum composability with other contracts onchain. For these proxies, we extended EIP-1167 Minimal Proxy Contract to avoid `DELEGATECALL` inside `receive()` to accept hard gas-capped `sends` & `transfers`.",
        "errors": {
          "InvalidNewController(address)": [
            {
              "params": {
                "newController": "Invalid new controller"
              }
            }
          ],
          "InvalidSplit__AccountsAndAllocationsMismatch(uint256,uint256)": [
            {
              "params": {
                "accountsLength": "Length of accounts array",
                "allocationsLength": "Length of percentAllocations array"
              }
            }
          ],
          "InvalidSplit__AccountsOutOfOrder(uint256)": [
            {
              "params": {
                "index": "Index of out-of-order account"
              }
            }
          ],
          "InvalidSplit__AllocationMustBePositive(uint256)": [
            {
              "params": {
                "index": "Index of zero percentAllocation"
              }
            }
          ],
          "InvalidSplit__InvalidAllocationsSum(uint32)": [
            {
              "params": {
                "allocationsSum": "Sum of percentAllocations array"
              }
            }
          ],
          "InvalidSplit__InvalidDistributorFee(uint32)": [
            {
              "params": {
                "distributorFee": "Invalid distributorFee amount"
              }
            }
          ],
          "InvalidSplit__InvalidHash(bytes32)": [
            {
              "params": {
                "hash": "Invalid hash"
              }
            }
          ],
          "InvalidSplit__TooFewAccounts(uint256)": [
            {
              "params": {
                "accountsLength": "Length of accounts array"
              }
            }
          ],
          "Unauthorized(address)": [
            {
              "params": {
                "sender": "Transaction sender"
              }
            }
          ]
        },
        "kind": "dev",
        "methods": {
          "acceptControl(address)": {
            "params": {
              "split": "Address of mutable split to accept control transfer for"
            }
          },
          "cancelControlTransfer(address)": {
            "params": {
              "split": "Address of mutable split to cancel control transfer for"
            }
          },
          "createSplit(address[],uint32[],uint32,address)": {
            "params": {
              "accounts": "Ordered, unique list of addresses with ownership in the split",
              "controller": "Controlling address (0x0 if immutable)",
              "distributorFee": "Keeper fee paid by split to cover gas costs of distribution",
              "percentAllocations": "Percent allocations associated with each address"
            },
            "returns": {
              "split": "Address of newly created split"
            }
          },
          "distributeERC20(address,address,address[],uint32[],uint32,address)": {
            "details": "`accounts`, `percentAllocations`, and `distributorFee` are verified by hashing  & comparing to the hash in storage associated with split `split`pernicious ERC20s may cause overflow in this function inside  _scaleAmountByPercentage, but results do not affect ETH & other ERC20 balances",
            "params": {
              "accounts": "Ordered, unique list of addresses with ownership in the split",
              "distributorAddress": "Address to pay `distributorFee` to",
              "distributorFee": "Keeper fee paid by split to cover gas costs of distribution",
              "percentAllocations": "Percent allocations associated with each address",
              "split": "Address of split to distribute balance for",
              "token": "Address of ERC20 to distribute balance for"
            }
          },
          "distributeETH(address,address[],uint32[],uint32,address)": {
            "details": "`accounts`, `percentAllocations`, and `distributorFee` are verified by hashing  & comparing to the hash in storage associated with split `split`",
            "params": {
              "accounts": "Ordered, unique list of addresses with ownership in the split",
              "distributorAddress": "Address to pay `distributorFee` to",
              "distributorFee": "Keeper fee paid by split to cover gas costs of distribution",
              "percentAllocations": "Percent allocations associated with each address",
              "split": "Address of split to distribute balance for"
            }
          },
          "getController(address)": {
            "params": {
              "split": "Split to return controller for"
            },
            "returns": {
              "_0": "Split's controller"
            }
          },
          "getERC20Balance(address,address)": {
            "params": {
              "account": "Account to return ERC20 `token` balance for",
              "token": "Token to return balance for"
            },
            "returns": {
              "_0": "Account's balance of `token`"
            }
          },
          "getETHBalance(address)": {
            "params": {
              "account": "Account to return ETH balance for"
            },
            "returns": {
              "_0": "Account's balance of ETH"
            }
          },
          "getHash(address)": {
            "params": {
              "split": "Split to return hash for"
            },
            "returns": {
              "_0": "Split's hash"
            }
          },
          "getNewPotentialController(address)": {
            "params": {
              "split": "Split to return newPotentialController for"
            },
            "returns": {
              "_0": "Split's newPotentialController"
            }
          },
          "makeSplitImmutable(address)": {
            "params": {
              "split": "Address of mutable split to turn immutable"
            }
          },
          "predictImmutableSplitAddress(address[],uint32[],uint32)": {
            "params": {
              "accounts": "Ordered, unique list of addresses with ownership in the split",
              "distributorFee": "Keeper fee paid by split to cover gas costs of distribution",
              "percentAllocations": "Percent allocations associated with each address"
            },
            "returns": {
              "split": "Predicted address of such an immutable split"
            }
          },
          "transferControl(address,address)": {
            "details": "Two-step control transfer inspired by [dharma](https://github.com/dharma-eng/dharma-smart-wallet/blob/master/contracts/helpers/TwoStepOwnable.sol)",
            "params": {
              "newController": "Address to begin transferring control to",
              "split": "Address of mutable split to transfer control for"
            }
          },
          "updateAndDistributeERC20(address,address,address[],uint32[],uint32,address)": {
            "details": "only callable by SplitControllerpernicious ERC20s may cause overflow in this function inside  _scaleAmountByPercentage, but results do not affect ETH & other ERC20 balances",
            "params": {
              "accounts": "Ordered, unique list of addresses with ownership in the split",
              "distributorAddress": "Address to pay `distributorFee` to",
              "distributorFee": "Keeper fee paid by split to cover gas costs of distribution",
              "percentAllocations": "Percent allocations associated with each address",
              "split": "Address of split to distribute balance for",
              "token": "Address of ERC20 to distribute balance for"
            }
          },
          "updateAndDistributeETH(address,address[],uint32[],uint32,address)": {
            "details": "only callable by SplitController",
            "params": {
              "accounts": "Ordered, unique list of addresses with ownership in the split",
              "distributorAddress": "Address to pay `distributorFee` to",
              "distributorFee": "Keeper fee paid by split to cover gas costs of distribution",
              "percentAllocations": "Percent allocations associated with each address",
              "split": "Address of split to distribute balance for"
            }
          },
          "updateSplit(address,address[],uint32[],uint32)": {
            "params": {
              "accounts": "Ordered, unique list of addresses with ownership in the split",
              "distributorFee": "Keeper fee paid by split to cover gas costs of distribution",
              "percentAllocations": "Percent allocations associated with each address",
              "split": "Address of mutable split to update"
            }
          },
          "withdraw(address,uint256,address[])": {
            "params": {
              "account": "Address to withdraw on behalf of",
              "tokens": "Addresses of ERC20s to withdraw",
              "withdrawETH": "Withdraw all ETH if nonzero"
            }
          }
        },
        "title": "SplitMain",
        "version": 1
      },
      "evm": {
        "bytecode": {
          "linkReferences": {},
          "object": "60a06040523480156200001157600080fd5b50604051620000209062000054565b604051809103906000f0801580156200003d573d6000803e3d6000fd5b5060601b6001600160601b03191660805262000062565b6103a080620030e983390190565b60805160601c61305362000096600039600081816102b001528181610c1a0152818161106c015261109d01526130536000f3fe6080604052600436106101185760003560e01c806377b1e4e9116100a0578063c7de644011610064578063c7de64401461034e578063d0e4b2f41461036e578063e10e51d61461038e578063e61cb05e146103cb578063ecef0ace146103eb57600080fd5b806377b1e4e91461027e5780638117abc11461029e57806388c662aa146102d2578063a5e3909e1461030e578063c3a8962c1461032e57600080fd5b80633bb66a7b116100e75780633bb66a7b146101cf5780633f26479e146101ef57806352844dd3146102065780636e5f69191461023e5780637601f7821461025e57600080fd5b80631267c6da146101245780631581130214610146578063189cbaa0146101665780631da0b8fc1461018657600080fd5b3661011f57005b600080fd5b34801561013057600080fd5b5061014461013f366004612ab2565b61040b565b005b34801561015257600080fd5b50610144610161366004612c4c565b6104a6565b34801561017257600080fd5b50610144610181366004612ab2565b61081a565b34801561019257600080fd5b506101bc6101a1366004612ab2565b6001600160a01b031660009081526002602052604090205490565b6040519081526020015b60405180910390f35b3480156101db57600080fd5b506101bc6101ea366004612ab2565b6108e5565b3480156101fb57600080fd5b506101bc620f424081565b34801561021257600080fd5b50610226610221366004612d5d565b61093e565b6040516001600160a01b0390911681526020016101c6565b34801561024a57600080fd5b50610144610259366004612d03565b610c4d565b34801561026a57600080fd5b50610226610279366004612ddb565b610d82565b34801561028a57600080fd5b50610144610299366004612c4c565b611144565b3480156102aa57600080fd5b506102267f000000000000000000000000000000000000000000000000000000000000000081565b3480156102de57600080fd5b506102266102ed366004612ab2565b6001600160a01b039081166000908152600260205260409020600101541690565b34801561031a57600080fd5b50610144610329366004612b95565b611487565b34801561033a57600080fd5b506101bc610349366004612c3a565b6117aa565b34801561035a57600080fd5b50610144610369366004612ab2565b61187e565b34801561037a57600080fd5b50610144610389366004612ace565b61194d565b34801561039a57600080fd5b506102266103a9366004612ab2565b6001600160a01b03908116600090815260026020819052604090912001541690565b3480156103d757600080fd5b506101446103e6366004612b95565b611a1f565b3480156103f757600080fd5b50610144610406366004612b06565b611d6f565b6001600160a01b0381811660009081526002602052604090206001015482911633146104515760405163472511eb60e11b81523360048201526024015b60405180910390fd5b6001600160a01b038216600081815260026020819052604080832090910180546001600160a01b0319169055517f6c2460a415b84be3720c209fe02f2cad7a6bcba21e8637afe8957b7ec4b6ef879190a25050565b85858080602002602001604051908101604052809392919081815260200183836020028082843760009201919091525050604080516020808902828101820190935288825290935088925087918291850190849080828437600092019190915250508351869250600211159050610535578251604051630e8c626560e41b815260040161044891815260200190565b8151835114610564578251825160405163b34f351d60e01b815260048101929092526024820152604401610448565b620f424061057183612020565b63ffffffff16146105a75761058582612020565b60405163fcc487c160e01b815263ffffffff9091166004820152602401610448565b82516000190160005b8181101561069e578481600101815181106105db57634e487b7160e01b600052603260045260246000fd5b60200260200101516001600160a01b031685828151811061060c57634e487b7160e01b600052603260045260246000fd5b60200260200101516001600160a01b03161061063e5760405163ac6bd23360e01b815260048101829052602401610448565b600063ffffffff1684828151811061066657634e487b7160e01b600052603260045260246000fd5b602002602001015163ffffffff16141561069657604051630db7e4c760e01b815260048101829052602401610448565b6001016105b0565b50600063ffffffff168382815181106106c757634e487b7160e01b600052603260045260246000fd5b602002602001015163ffffffff1614156106f757604051630db7e4c760e01b815260048101829052602401610448565b50620186a08163ffffffff16111561072a5760405163308440e360e21b815263ffffffff82166004820152602401610448565b61079a8b8a8a8080602002602001604051908101604052809392919081815260200183836020028082843760009201919091525050604080516020808e0282810182019093528d82529093508d92508c9182918501908490808284376000920191909152508b9250612073915050565b61080d8b8b8b8b8080602002602001604051908101604052809392919081815260200183836020028082843760009201919091525050604080516020808f0282810182019093528e82529093508e92508d9182918501908490808284376000920191909152508c92508b91506120c59050565b5050505050505050505050565b6001600160a01b03818116600090815260026020526040902060010154829116331461085b5760405163472511eb60e11b8152336004820152602401610448565b6001600160a01b03808316600081815260026020819052604080832091820180546001600160a01b0319169055600190910154905191931691907f943d69cf2bbe08a9d44b3c4ce6da17d939d758739370620871ce99a6437866d0908490a4506001600160a01b0316600090815260026020526040902060010180546001600160a01b0319169055565b6001600160a01b038116600090815260026020526040812054610909576000610915565b816001600160a01b0316315b6001600160a01b0383166000908152602081905260409020546109389190612f98565b92915050565b6000858580806020026020016040519081016040528093929190818152602001838360200280828437600092019190915250506040805160208089028281018201909352888252909350889250879182918501908490808284376000920191909152505083518692506002111590506109cf578251604051630e8c626560e41b815260040161044891815260200190565b81518351146109fe578251825160405163b34f351d60e01b815260048101929092526024820152604401610448565b620f4240610a0b83612020565b63ffffffff1614610a1f5761058582612020565b82516000190160005b81811015610b1657848160010181518110610a5357634e487b7160e01b600052603260045260246000fd5b60200260200101516001600160a01b0316858281518110610a8457634e487b7160e01b600052603260045260246000fd5b60200260200101516001600160a01b031610610ab65760405163ac6bd23360e01b815260048101829052602401610448565b600063ffffffff16848281518110610ade57634e487b7160e01b600052603260045260246000fd5b602002602001015163ffffffff161415610b0e57604051630db7e4c760e01b815260048101829052602401610448565b600101610a28565b50600063ffffffff16838281518110610b3f57634e487b7160e01b600052603260045260246000fd5b602002602001015163ffffffff161415610b6f57604051630db7e4c760e01b815260048101829052602401610448565b50620186a08163ffffffff161115610ba25760405163308440e360e21b815263ffffffff82166004820152602401610448565b6000610c138a8a8080602002602001604051908101604052809392919081815260200183836020028082843760009201919091525050604080516020808e0282810182019093528d82529093508d92508c9182918501908490808284376000920191909152508b925061239f915050565b9050610c3f7f0000000000000000000000000000000000000000000000000000000000000000826123d5565b9a9950505050505050505050565b60008167ffffffffffffffff811115610c7657634e487b7160e01b600052604160045260246000fd5b604051908082528060200260200182016040528015610c9f578160200160208202803683370190505b50905060008415610cb657610cb38661247a565b90505b60005b83811015610d3257610cff87868684818110610ce557634e487b7160e01b600052603260045260246000fd5b9050602002016020810190610cfa9190612ab2565b6124cd565b838281518110610d1f57634e487b7160e01b600052603260045260246000fd5b6020908102919091010152600101610cb9565b50856001600160a01b03167fa9e30bf144f83390a4fe47562a4e16892108102221c674ff538da0b72a83d17482868686604051610d729493929190612f08565b60405180910390a2505050505050565b600086868080602002602001604051908101604052809392919081815260200183836020028082843760009201919091525050604080516020808a02828101820190935289825290935089925088918291850190849080828437600092019190915250508351879250600211159050610e13578251604051630e8c626560e41b815260040161044891815260200190565b8151835114610e42578251825160405163b34f351d60e01b815260048101929092526024820152604401610448565b620f4240610e4f83612020565b63ffffffff1614610e635761058582612020565b82516000190160005b81811015610f5a57848160010181518110610e9757634e487b7160e01b600052603260045260246000fd5b60200260200101516001600160a01b0316858281518110610ec857634e487b7160e01b600052603260045260246000fd5b60200260200101516001600160a01b031610610efa5760405163ac6bd23360e01b815260048101829052602401610448565b600063ffffffff16848281518110610f2257634e487b7160e01b600052603260045260246000fd5b602002602001015163ffffffff161415610f5257604051630db7e4c760e01b815260048101829052602401610448565b600101610e6c565b50600063ffffffff16838281518110610f8357634e487b7160e01b600052603260045260246000fd5b602002602001015163ffffffff161415610fb357604051630db7e4c760e01b815260048101829052602401610448565b50620186a08163ffffffff161115610fe65760405163308440e360e21b815263ffffffff82166004820152602401610448565b60006110578b8b8080602002602001604051908101604052809392919081815260200183836020028082843760009201919091525050604080516020808f0282810182019093528e82529093508e92508d9182918501908490808284376000920191909152508c925061239f915050565b90506001600160a01b038616611098576110917f000000000000000000000000000000000000000000000000000000000000000082612539565b94506110f5565b6110c17f00000000000000000000000000000000000000000000000000000000000000006125e9565b6001600160a01b03818116600090815260026020526040902060010180546001600160a01b03191691891691909117905594505b6001600160a01b038516600081815260026020526040808220849055517f8d5f9943c664a3edaf4d3eb18cc5e2c45a7d2dc5869be33d33bbc0fff9bc25909190a2505050509695505050505050565b6001600160a01b0388811660009081526002602052604090206001015489911633146111855760405163472511eb60e11b8152336004820152602401610448565b86868080602002602001604051908101604052809392919081815260200183836020028082843760009201919091525050604080516020808a02828101820190935289825290935089925088918291850190849080828437600092019190915250508351879250600211159050611214578251604051630e8c626560e41b815260040161044891815260200190565b8151835114611243578251825160405163b34f351d60e01b815260048101929092526024820152604401610448565b620f424061125083612020565b63ffffffff16146112645761058582612020565b82516000190160005b8181101561135b5784816001018151811061129857634e487b7160e01b600052603260045260246000fd5b60200260200101516001600160a01b03168582815181106112c957634e487b7160e01b600052603260045260246000fd5b60200260200101516001600160a01b0316106112fb5760405163ac6bd23360e01b815260048101829052602401610448565b600063ffffffff1684828151811061132357634e487b7160e01b600052603260045260246000fd5b602002602001015163ffffffff16141561135357604051630db7e4c760e01b815260048101829052602401610448565b60010161126d565b50600063ffffffff1683828151811061138457634e487b7160e01b600052603260045260246000fd5b602002602001015163ffffffff1614156113b457604051630db7e4c760e01b815260048101829052602401610448565b50620186a08163ffffffff1611156113e75760405163308440e360e21b815263ffffffff82166004820152602401610448565b6113f58c8b8b8b8b8b612698565b6114798c8c8c8c80806020026020016040519081016040528093929190818152602001838360200280828437600081840152601f19601f820116905080830192505050505050508b8b808060200260200160405190810160405280939291908181526020018383602002808284376000920191909152508d92508c91506120c59050565b505050505050505050505050565b6001600160a01b0387811660009081526002602052604090206001015488911633146114c85760405163472511eb60e11b8152336004820152602401610448565b86868080602002602001604051908101604052809392919081815260200183836020028082843760009201919091525050604080516020808a02828101820190935289825290935089925088918291850190849080828437600092019190915250508351879250600211159050611557578251604051630e8c626560e41b815260040161044891815260200190565b8151835114611586578251825160405163b34f351d60e01b815260048101929092526024820152604401610448565b620f424061159383612020565b63ffffffff16146115a75761058582612020565b82516000190160005b8181101561169e578481600101815181106115db57634e487b7160e01b600052603260045260246000fd5b60200260200101516001600160a01b031685828151811061160c57634e487b7160e01b600052603260045260246000fd5b60200260200101516001600160a01b03161061163e5760405163ac6bd23360e01b815260048101829052602401610448565b600063ffffffff1684828151811061166657634e487b7160e01b600052603260045260246000fd5b602002602001015163ffffffff16141561169657604051630db7e4c760e01b815260048101829052602401610448565b6001016115b0565b50600063ffffffff168382815181106116c757634e487b7160e01b600052603260045260246000fd5b602002602001015163ffffffff1614156116f757604051630db7e4c760e01b815260048101829052602401610448565b50620186a08163ffffffff16111561172a5760405163308440e360e21b815263ffffffff82166004820152602401610448565b6117388b8b8b8b8b8b612698565b61080d8b8b8b8080602002602001604051908101604052809392919081815260200183836020028082843760009201919091525050604080516020808f0282810182019093528e82529093508e92508d9182918501908490808284376000920191909152508c92508b91506127589050565b6001600160a01b0382166000908152600260205260408120546117ce576000611847565b6040516370a0823160e01b81526001600160a01b0384811660048301528316906370a082319060240160206040518083038186803b15801561180f57600080fd5b505afa158015611823573d6000803e3d6000fd5b505050506040513d601f19601f820116820180604052508101906118479190612e6c565b6001600160a01b038084166000908152600160209081526040808320938816835292905220546118779190612f98565b9392505050565b6001600160a01b038181166000908152600260208190526040909120015482911633146118c05760405163472511eb60e11b8152336004820152602401610448565b6001600160a01b03808316600081815260026020819052604080832091820180546001600160a01b0319169055600190910154905133949190911692917f943d69cf2bbe08a9d44b3c4ce6da17d939d758739370620871ce99a6437866d091a4506001600160a01b0316600090815260026020526040902060010180546001600160a01b03191633179055565b6001600160a01b03828116600090815260026020526040902060010154839116331461198e5760405163472511eb60e11b8152336004820152602401610448565b816001600160a01b0381166119c15760405163c369130760e01b81526001600160a01b0382166004820152602401610448565b6001600160a01b03848116600081815260026020819052604080832090910180546001600160a01b0319169488169485179055517f107cf6ea8668d533df1aab5bb8b6315bb0c25f0b6c955558d09368f290668fc79190a350505050565b85858080602002602001604051908101604052809392919081815260200183836020028082843760009201919091525050604080516020808902828101820190935288825290935088925087918291850190849080828437600092019190915250508351869250600211159050611aae578251604051630e8c626560e41b815260040161044891815260200190565b8151835114611add578251825160405163b34f351d60e01b815260048101929092526024820152604401610448565b620f4240611aea83612020565b63ffffffff1614611afe5761058582612020565b82516000190160005b81811015611bf557848160010181518110611b3257634e487b7160e01b600052603260045260246000fd5b60200260200101516001600160a01b0316858281518110611b6357634e487b7160e01b600052603260045260246000fd5b60200260200101516001600160a01b031610611b955760405163ac6bd23360e01b815260048101829052602401610448565b600063ffffffff16848281518110611bbd57634e487b7160e01b600052603260045260246000fd5b602002602001015163ffffffff161415611bed57604051630db7e4c760e01b815260048101829052602401610448565b600101611b07565b50600063ffffffff16838281518110611c1e57634e487b7160e01b600052603260045260246000fd5b602002602001015163ffffffff161415611c4e57604051630db7e4c760e01b815260048101829052602401610448565b50620186a08163ffffffff161115611c815760405163308440e360e21b815263ffffffff82166004820152602401610448565b611cf18a8a8a8080602002602001604051908101604052809392919081815260200183836020028082843760009201919091525050604080516020808e0282810182019093528d82529093508d92508c9182918501908490808284376000920191909152508b9250612073915050565b611d638a8a8a8080602002602001604051908101604052809392919081815260200183836020028082843760009201919091525050604080516020808e0282810182019093528d82529093508d92508c9182918501908490808284376000920191909152508b92508a91506127589050565b50505050505050505050565b6001600160a01b038681166000908152600260205260409020600101548791163314611db05760405163472511eb60e11b8152336004820152602401610448565b85858080602002602001604051908101604052809392919081815260200183836020028082843760009201919091525050604080516020808902828101820190935288825290935088925087918291850190849080828437600092019190915250508351869250600211159050611e3f578251604051630e8c626560e41b815260040161044891815260200190565b8151835114611e6e578251825160405163b34f351d60e01b815260048101929092526024820152604401610448565b620f4240611e7b83612020565b63ffffffff1614611e8f5761058582612020565b82516000190160005b81811015611f8657848160010181518110611ec357634e487b7160e01b600052603260045260246000fd5b60200260200101516001600160a01b0316858281518110611ef457634e487b7160e01b600052603260045260246000fd5b60200260200101516001600160a01b031610611f265760405163ac6bd23360e01b815260048101829052602401610448565b600063ffffffff16848281518110611f4e57634e487b7160e01b600052603260045260246000fd5b602002602001015163ffffffff161415611f7e57604051630db7e4c760e01b815260048101829052602401610448565b600101611e98565b50600063ffffffff16838281518110611faf57634e487b7160e01b600052603260045260246000fd5b602002602001015163ffffffff161415611fdf57604051630db7e4c760e01b815260048101829052602401610448565b50620186a08163ffffffff1611156120125760405163308440e360e21b815263ffffffff82166004820152602401610448565b611d638a8a8a8a8a8a612698565b8051600090815b8181101561206c5783818151811061204f57634e487b7160e01b600052603260045260246000fd5b6020026020010151836120629190612fb0565b9250600101612027565b5050919050565b600061208084848461239f565b6001600160a01b03861660009081526002602052604090205490915081146120be5760405163dd5ff45760e01b815260048101829052602401610448565b5050505050565b6001600160a01b038581166000818152600160209081526040808320948b16808452949091528082205490516370a0823160e01b815260048101949094529092909183916370a082319060240160206040518083038186803b15801561212a57600080fd5b505afa15801561213e573d6000803e3d6000fd5b505050506040513d601f19601f820116820180604052508101906121629190612e6c565b9050801561216f57600019015b811561217c576001820391505b818101925081156121b0576001600160a01b038089166000908152600160208181526040808420948e168452939052919020555b836001600160a01b0316886001600160a01b03168a6001600160a01b03167fb5ee5dc3d2c31a019bbf2c787e0e9c97971c96aceea1c38c12fc8fd25c536d46866040516121ff91815260200190565b60405180910390a463ffffffff851615612271576001600160a01b038881166000908152600160205260408120620f424063ffffffff891687020492839290881661224a573361224c565b875b6001600160a01b03168152602081019190915260400160002080549091019055909203915b865160005b81811015612329576122ba858983815181106122a257634e487b7160e01b600052603260045260246000fd5b602002602001015163ffffffff16620f424091020490565b6001600160a01b038b1660009081526001602052604081208b519091908c90859081106122f757634e487b7160e01b600052603260045260246000fd5b6020908102919091018101516001600160a01b0316825281019190915260400160002080549091019055600101612276565b5050801561239457604051633e0f9fff60e11b81526001600160a01b038981166004830152602482018390528a1690637c1f3ffe90604401600060405180830381600087803b15801561237b57600080fd5b505af115801561238f573d6000803e3d6000fd5b505050505b505050505050505050565b60008383836040516020016123b693929190612e84565b6040516020818303038152906040528051906020012090509392505050565b6000611877838330604051723d605d80600a3d3981f336603057343d52307f60681b81527f830d2d700a97af574b186c80d40429385d24241565b08a7c559ba283a964d9b160138201527260203da23d3df35b3d3d3d3d363d3d37363d7360681b6033820152606093841b60468201526d5af43d3d93803e605b57fd5bf3ff60901b605a820152921b6068830152607c8201526067808220609c830152605591012090565b6001600160a01b03811660009081526020819052604081205461249f90600190612fd8565b6001600160a01b0383166000818152602081905260409020600190559091506124c8908261293a565b919050565b6001600160a01b038082166000908152600160208181526040808420948716845293905291812054909161250091612fd8565b6001600160a01b038084166000818152600160208181526040808420958a16845294905292902091909155909150610938908483612990565b6000604051723d605d80600a3d3981f336603057343d52307f60681b81527f830d2d700a97af574b186c80d40429385d24241565b08a7c559ba283a964d9b160138201527260203da23d3df35b3d3d3d3d363d3d37363d7360681b60338201528360601b60468201526c5af43d3d93803e605b57fd5bf360981b605a820152826067826000f59150506001600160a01b0381166109385760405163380bbe1360e01b815260040160405180910390fd5b6000604051723d605d80600a3d3981f336603057343d52307f60681b81527f830d2d700a97af574b186c80d40429385d24241565b08a7c559ba283a964d9b160138201527260203da23d3df35b3d3d3d3d363d3d37363d7360681b60338201528260601b60468201526c5af43d3d93803e605b57fd5bf360981b605a8201526067816000f09150506001600160a01b0381166124c857604051630985da9b60e41b815260040160405180910390fd5b600061270986868080602002602001604051908101604052809392919081815260200183836020028082843760009201919091525050604080516020808a0282810182019093528982529093508992508891829185019084908082843760009201919091525087925061239f915050565b6001600160a01b0388166000818152600260205260408082208490555192935090917f45e1e99513dd915ac128b94953ca64c6375717ea1894b3114db08cdca51debd29190a250505050505050565b6001600160a01b0385166000818152602081905260408120549131908215612781576001830392505b5081810182156127a8576001600160a01b0388166000908152602081905260409020600190555b836001600160a01b0316886001600160a01b03167f87c3ca0a87d9b82033e4bc55e6d30621f8d7e0c9d8ca7988edfde8932787b77b836040516127ed91815260200190565b60405180910390a363ffffffff85161561284c57620f424063ffffffff8616820204806000806001600160a01b0388166128275733612829565b875b6001600160a01b0316815260208101919091526040016000208054909101905590035b865160005b818110156128d25761287d838983815181106122a257634e487b7160e01b600052603260045260246000fd5b6000808b84815181106128a057634e487b7160e01b600052603260045260246000fd5b6020908102919091018101516001600160a01b0316825281019190915260400160002080549091019055600101612851565b5050811561293057604051632ac3affd60e21b8152600481018390526001600160a01b0389169063ab0ebff490602401600060405180830381600087803b15801561291c57600080fd5b505af1158015611479573d6000803e3d6000fd5b5050505050505050565b600080600080600085875af190508061298b5760405162461bcd60e51b815260206004820152601360248201527211551217d514905394d1915497d19052531151606a1b6044820152606401610448565b505050565b600060405163a9059cbb60e01b81526001600160a01b03841660048201528260248201526000806044836000895af19150506129cb81612a0f565b612a095760405162461bcd60e51b815260206004820152600f60248201526e1514905394d1915497d19052531151608a1b6044820152606401610448565b50505050565b60003d82612a2157806000803e806000fd5b8060208114612a39578015612a4a576000925061206c565b816000803e6000511515925061206c565b5060019392505050565b60008083601f840112612a65578182fd5b50813567ffffffffffffffff811115612a7c578182fd5b6020830191508360208260051b8501011115612a9757600080fd5b9250929050565b803563ffffffff811681146124c857600080fd5b600060208284031215612ac3578081fd5b813561187781613005565b60008060408385031215612ae0578081fd5b8235612aeb81613005565b91506020830135612afb81613005565b809150509250929050565b60008060008060008060808789031215612b1e578182fd5b8635612b2981613005565b9550602087013567ffffffffffffffff80821115612b45578384fd5b612b518a838b01612a54565b90975095506040890135915080821115612b69578384fd5b50612b7689828a01612a54565b9094509250612b89905060608801612a9e565b90509295509295509295565b600080600080600080600060a0888a031215612baf578081fd5b8735612bba81613005565b9650602088013567ffffffffffffffff80821115612bd6578283fd5b612be28b838c01612a54565b909850965060408a0135915080821115612bfa578283fd5b50612c078a828b01612a54565b9095509350612c1a905060608901612a9e565b91506080880135612c2a81613005565b8091505092959891949750929550565b60008060408385031215612ae0578182fd5b60008060008060008060008060c0898b031215612c67578081fd5b8835612c7281613005565b97506020890135612c8281613005565b9650604089013567ffffffffffffffff80821115612c9e578283fd5b612caa8c838d01612a54565b909850965060608b0135915080821115612cc2578283fd5b50612ccf8b828c01612a54565b9095509350612ce2905060808a01612a9e565b915060a0890135612cf281613005565b809150509295985092959890939650565b60008060008060608587031215612d18578384fd5b8435612d2381613005565b935060208501359250604085013567ffffffffffffffff811115612d45578283fd5b612d5187828801612a54565b95989497509550505050565b600080600080600060608688031215612d74578081fd5b853567ffffffffffffffff80821115612d8b578283fd5b612d9789838a01612a54565b90975095506020880135915080821115612daf578283fd5b50612dbc88828901612a54565b9094509250612dcf905060408701612a9e565b90509295509295909350565b60008060008060008060808789031215612df3578182fd5b863567ffffffffffffffff80821115612e0a578384fd5b612e168a838b01612a54565b90985096506020890135915080821115612e2e578384fd5b50612e3b89828a01612a54565b9095509350612e4e905060408801612a9e565b91506060870135612e5e81613005565b809150509295509295509295565b600060208284031215612e7d578081fd5b5051919050565b835160009082906020808801845b83811015612eb75781516001600160a01b031685529382019390820190600101612e92565b50508651818801939250845b81811015612ee557845163ffffffff1684529382019392820192600101612ec3565b50505060e09490941b6001600160e01b0319168452505060049091019392505050565b84815260606020808301829052908201849052600090859060808401835b87811015612f54578335612f3981613005565b6001600160a01b031682529282019290820190600101612f26565b5084810360408601528551808252908201925081860190845b81811015612f8957825185529383019391830191600101612f6d565b50929998505050505050505050565b60008219821115612fab57612fab612fef565b500190565b600063ffffffff808316818516808303821115612fcf57612fcf612fef565b01949350505050565b600082821015612fea57612fea612fef565b500390565b634e487b7160e01b600052601160045260246000fd5b6001600160a01b038116811461301a57600080fd5b5056fea264697066735822122078638564d8f0338df6cf15b5c2680d5c2ef45167f59938471977e9756316b94964736f6c6343000804003360a060405234801561001057600080fd5b5033606081901b60805261035461004c60003960008181604b0152818160bc015281816101080152818161013c015261018601526103546000f3fe6080604052600436106100345760003560e01c80630e769b2b146100395780637c1f3ffe14610089578063ab0ebff41461009e575b600080fd5b34801561004557600080fd5b5061006d7f000000000000000000000000000000000000000000000000000000000000000081565b6040516001600160a01b03909116815260200160405180910390f35b61009c6100973660046102d0565b6100b1565b005b61009c6100ac366004610306565b610131565b336001600160a01b037f000000000000000000000000000000000000000000000000000000000000000016146100f9576040516282b42960e81b815260040160405180910390fd5b61012d6001600160a01b0383167f0000000000000000000000000000000000000000000000000000000000000000836101af565b5050565b336001600160a01b037f00000000000000000000000000000000000000000000000000000000000000001614610179576040516282b42960e81b815260040160405180910390fd5b6101ac6001600160a01b037f00000000000000000000000000000000000000000000000000000000000000001682610233565b50565b600060405163a9059cbb60e01b81526001600160a01b03841660048201528260248201526000806044836000895af19150506101ea81610289565b61022d5760405162461bcd60e51b815260206004820152600f60248201526e1514905394d1915497d19052531151608a1b60448201526064015b60405180910390fd5b50505050565b600080600080600085875af19050806102845760405162461bcd60e51b815260206004820152601360248201527211551217d514905394d1915497d19052531151606a1b6044820152606401610224565b505050565b60003d8261029b57806000803e806000fd5b80602081146102b35780156102c457600092506102c9565b816000803e600051151592506102c9565b600192505b5050919050565b600080604083850312156102e2578182fd5b82356001600160a01b03811681146102f8578283fd5b946020939093013593505050565b600060208284031215610317578081fd5b503591905056fea26469706673582212208e095a368bcb2efb2a8afd9b560ad94441e926086a4bc92edf16c33900df798e64736f6c63430008040033",
          "opcodes": "PUSH1 0xA0 PUSH1 0x40 MSTORE CALLVALUE DUP1 ISZERO PUSH3 0x11 JUMPI PUSH1 0x0 DUP1 REVERT JUMPDEST POP PUSH1 0x40 MLOAD PUSH3 0x20 SWAP1 PUSH3 0x54 JUMP JUMPDEST PUSH1 0x40 MLOAD DUP1 SWAP2 SUB SWAP1 PUSH1 0x0 CREATE DUP1 ISZERO DUP1 ISZERO PUSH3 0x3D JUMPI RETURNDATASIZE PUSH1 0x0 DUP1 RETURNDATACOPY RETURNDATASIZE PUSH1 0x0 REVERT JUMPDEST POP PUSH1 0x60 SHL PUSH1 0x1 PUSH1 0x1 PUSH1 0x60 SHL SUB NOT AND PUSH1 0x80 MSTORE PUSH3 0x62 JUMP JUMPDEST PUSH2 0x3A0 DUP1 PUSH3 0x30E9 DUP4 CODECOPY ADD SWAP1 JUMP JUMPDEST PUSH1 0x80 MLOAD PUSH1 0x60 SHR PUSH2 0x3053 PUSH3 0x96 PUSH1 0x0 CODECOPY PUSH1 0x0 DUP2 DUP2 PUSH2 0x2B0 ADD MSTORE DUP2 DUP2 PUSH2 0xC1A ADD MSTORE DUP2 DUP2 PUSH2 0x106C ADD MSTORE PUSH2 0x109D ADD MSTORE PUSH2 0x3053 PUSH1 0x0 RETURN INVALID PUSH1 0x80 PUSH1 0x40 MSTORE PUSH1 0x4 CALLDATASIZE LT PUSH2 0x118 JUMPI PUSH1 0x0 CALLDATALOAD PUSH1 0xE0 SHR DUP1 PUSH4 0x77B1E4E9 GT PUSH2 0xA0 JUMPI DUP1 PUSH4 0xC7DE6440 GT PUSH2 0x64 JUMPI DUP1 PUSH4 0xC7DE6440 EQ PUSH2 0x34E JUMPI DUP1 PUSH4 0xD0E4B2F4 EQ PUSH2 0x36E JUMPI DUP1 PUSH4 0xE10E51D6 EQ PUSH2 0x38E JUMPI DUP1 PUSH4 0xE61CB05E EQ PUSH2 0x3CB JUMPI DUP1 PUSH4 0xECEF0ACE EQ PUSH2 0x3EB JUMPI PUSH1 0x0 DUP1 REVERT JUMPDEST DUP1 PUSH4 0x77B1E4E9 EQ PUSH2 0x27E JUMPI DUP1 PUSH4 0x8117ABC1 EQ PUSH2 0x29E JUMPI DUP1 PUSH4 0x88C662AA EQ PUSH2 0x2D2 JUMPI DUP1 PUSH4 0xA5E3909E EQ PUSH2 0x30E JUMPI DUP1 PUSH4 0xC3A8962C EQ PUSH2 0x32E JUMPI PUSH1 0x0 DUP1 REVERT JUMPDEST DUP1 PUSH4 0x3BB66A7B GT PUSH2 0xE7 JUMPI DUP1 PUSH4 0x3BB66A7B EQ PUSH2 0x1CF JUMPI DUP1 PUSH4 0x3F26479E EQ PUSH2 0x1EF JUMPI DUP1 PUSH4 0x52844DD3 EQ PUSH2 0x206 JUMPI DUP1 PUSH4 0x6E5F6919 EQ PUSH2 0x23E JUMPI DUP1 PUSH4 0x7601F782 EQ PUSH2 0x25E JUMPI PUSH1 0x0 DUP1 REVERT JUMPDEST DUP1 PUSH4 0x1267C6DA EQ PUSH2 0x124 JUMPI DUP1 PUSH4 0x15811302 EQ PUSH2 0x146 JUMPI DUP1 PUSH4 0x189CBAA0 EQ PUSH2 0x166 JUMPI DUP1 PUSH4 0x1DA0B8FC EQ PUSH2 0x186 JUMPI PUSH1 0x0 DUP1 REVERT JUMPDEST CALLDATASIZE PUSH2 0x11F JUMPI STOP JUMPDEST PUSH1 0x0 DUP1 REVERT JUMPDEST CALLVALUE DUP1 ISZERO PUSH2 0x130 JUMPI PUSH1 0x0 DUP1 REVERT JUMPDEST POP PUSH2 0x144 PUSH2 0x13F CALLDATASIZE PUSH1 0x4 PUSH2 0x2AB2 JUMP JUMPDEST PUSH2 0x40B JUMP JUMPDEST STOP JUMPDEST CALLVALUE DUP1 ISZERO PUSH2 0x152 JUMPI PUSH1 0x0 DUP1 REVERT JUMPDEST POP PUSH2 0x144 PUSH2 0x161 CALLDATASIZE PUSH1 0x4 PUSH2 0x2C4C JUMP JUMPDEST PUSH2 0x4A6 JUMP JUMPDEST CALLVALUE DUP1 ISZERO PUSH2 0x172 JUMPI PUSH1 0x0 DUP1 REVERT JUMPDEST POP PUSH2 0x144 PUSH2 0x181 CALLDATASIZE PUSH1 0x4 PUSH2 0x2AB2 JUMP JUMPDEST PUSH2 0x81A JUMP JUMPDEST CALLVALUE DUP1 ISZERO PUSH2 0x192 JUMPI PUSH1 0x0 DUP1 REVERT JUMPDEST POP PUSH2 0x1BC PUSH2 0x1A1 CALLDATASIZE PUSH1 0x4 PUSH2 0x2AB2 JUMP JUMPDEST PUSH1 0x1 PUSH1 0x1 PUSH1 0xA0 SHL SUB AND PUSH1 0x0 SWAP1 DUP2 MSTORE PUSH1 0x2 PUSH1 0x20 MSTORE PUSH1 0x40 SWAP1 KECCAK256 SLOAD SWAP1 JUMP JUMPDEST PUSH1 0x40 MLOAD SWAP1 DUP2 MSTORE PUSH1 0x20 ADD JUMPDEST PUSH1 0x40 MLOAD DUP1 SWAP2 SUB SWAP1 RETURN JUMPDEST CALLVALUE DUP1 ISZERO PUSH2 0x1DB JUMPI PUSH1 0x0 DUP1 REVERT JUMPDEST POP PUSH2 0x1BC PUSH2 0x1EA CALLDATASIZE PUSH1 0x4 PUSH2 0x2AB2 JUMP JUMPDEST PUSH2 0x8E5 JUMP JUMPDEST CALLVALUE DUP1 ISZERO PUSH2 0x1FB JUMPI PUSH1 0x0 DUP1 REVERT JUMPDEST POP PUSH2 0x1BC PUSH3 0xF4240 DUP2 JUMP JUMPDEST CALLVALUE DUP1 ISZERO PUSH2 0x212 JUMPI PUSH1 0x0 DUP1 REVERT JUMPDEST POP PUSH2 0x226 PUSH2 0x221 CALLDATASIZE PUSH1 0x4 PUSH2 0x2D5D JUMP JUMPDEST PUSH2 0x93E JUMP JUMPDEST PUSH1 0x40 MLOAD PUSH1 0x1 PUSH1 0x1 PUSH1 0xA0 SHL SUB SWAP1 SWAP2 AND DUP2 MSTORE PUSH1 0x20 ADD PUSH2 0x1C6 JUMP JUMPDEST CALLVALUE DUP1 ISZERO PUSH2 0x24A JUMPI PUSH1 0x0 DUP1 REVERT JUMPDEST POP PUSH2 0x144 PUSH2 0x259 CALLDATASIZE PUSH1 0x4 PUSH2 0x2D03 JUMP JUMPDEST PUSH2 0xC4D JUMP JUMPDEST CALLVALUE DUP1 ISZERO PUSH2 0x26A JUMPI PUSH1 0x0 DUP1 REVERT JUMPDEST POP PUSH2 0x226 PUSH2 0x279 CALLDATASIZE PUSH1 0x4 PUSH2 0x2DDB JUMP JUMPDEST PUSH2 0xD82 JUMP JUMPDEST CALLVALUE DUP1 ISZERO PUSH2 0x28A JUMPI PUSH1 0x0 DUP1 REVERT JUMPDEST POP PUSH2 0x144 PUSH2 0x299 CALLDATASIZE PUSH1 0x4 PUSH2 0x2C4C JUMP JUMPDEST PUSH2 0x1144 JUMP JUMPDEST CALLVALUE DUP1 ISZERO PUSH2 0x2AA JUMPI PUSH1 0x0 DUP1 REVERT JUMPDEST POP PUSH2 0x226 PUSH32 0x0 DUP2 JUMP JUMPDEST CALLVALUE DUP1 ISZERO PUSH2 0x2DE JUMPI PUSH1 0x0 DUP1 REVERT JUMPDEST POP PUSH2 0x226 PUSH2 0x2ED CALLDATASIZE PUSH1 0x4 PUSH2 0x2AB2 JUMP JUMPDEST PUSH1 0x1 PUSH1 0x1 PUSH1 0xA0 SHL SUB SWAP1 DUP2 AND PUSH1 0x0 SWAP1 DUP2 MSTORE PUSH1 0x2 PUSH1 0x20 MSTORE PUSH1 0x40 SWAP1 KECCAK256 PUSH1 0x1 ADD SLOAD AND SWAP1 JUMP JUMPDEST CALLVALUE DUP1 ISZERO PUSH2 0x31A JUMPI PUSH1 0x0 DUP1 REVERT JUMPDEST POP PUSH2 0x144 PUSH2 0x329 CALLDATASIZE PUSH1 0x4 PUSH2 0x2B95 JUMP JUMPDEST PUSH2 0x1487 JUMP JUMPDEST CALLVALUE DUP1 ISZERO PUSH2 0x33A JUMPI PUSH1 0x0 DUP1 REVERT JUMPDEST POP PUSH2 0x1BC PUSH2 0x349 CALLDATASIZE PUSH1 0x4 PUSH2 0x2C3A JUMP JUMPDEST PUSH2 0x17AA JUMP JUMPDEST CALLVALUE DUP1 ISZERO PUSH2 0x35A JUMPI PUSH1 0x0 DUP1 REVERT JUMPDEST POP PUSH2 0x144 PUSH2 0x369 CALLDATASIZE PUSH1 0x4 PUSH2 0x2AB2 JUMP JUMPDEST PUSH2 0x187E JUMP JUMPDEST CALLVALUE DUP1 ISZERO PUSH2 0x37A JUMPI PUSH1 0x0 DUP1 REVERT JUMPDEST POP PUSH2 0x144 PUSH2 0x389 CALLDATASIZE PUSH1 0x4 PUSH2 0x2ACE JUMP JUMPDEST PUSH2 0x194D JUMP JUMPDEST CALLVALUE DUP1 ISZERO PUSH2 0x39A JUMPI PUSH1 0x0 DUP1 REVERT JUMPDEST POP PUSH2 0x226 PUSH2 0x3A9 CALLDATASIZE PUSH1 0x4 PUSH2 0x2AB2 JUMP JUMPDEST PUSH1 0x1 PUSH1 0x1 PUSH1 0xA0 SHL SUB SWAP1 DUP2 AND PUSH1 0x0 SWAP1 DUP2 MSTORE PUSH1 0x2 PUSH1 0x20 DUP2 SWAP1 MSTORE PUSH1 0x40 SWAP1 SWAP2 KECCAK256 ADD SLOAD AND SWAP1 JUMP JUMPDEST CALLVALUE DUP1 ISZERO PUSH2 0x3D7 JUMPI PUSH1 0x0 DUP1 REVERT JUMPDEST POP PUSH2 0x144 PUSH2 0x3E6 CALLDATASIZE PUSH1 0x4 PUSH2 0x2B95 JUMP JUMPDEST PUSH2 0x1A1F JUMP JUMPDEST CALLVALUE DUP1 ISZERO PUSH2 0x3F7 JUMPI PUSH1 0x0 DUP1 REVERT JUMPDEST POP PUSH2 0x144 PUSH2 0x406 CALLDATASIZE PUSH1 0x4 PUSH2 0x2B06 JUMP JUMPDEST PUSH2 0x1D6F JUMP JUMPDEST PUSH1 0x1 PUSH1 0x1 PUSH1 0xA0 SHL SUB DUP2 DUP2 AND PUSH1 0x0 SWAP1 DUP2 MSTORE PUSH1 0x2 PUSH1 0x20 MSTORE PUSH1 0x40 SWAP1 KECCAK256 PUSH1 0x1 ADD SLOAD DUP3 SWAP2 AND CALLER EQ PUSH2 0x451 JUMPI PUSH1 0x40 MLOAD PUSH4 0x472511EB PUSH1 0xE1 SHL DUP2 MSTORE CALLER PUSH1 0x4 DUP3 ADD MSTORE PUSH1 0x24 ADD JUMPDEST PUSH1 0x40 MLOAD DUP1 SWAP2 SUB SWAP1 REVERT JUMPDEST PUSH1 0x1 PUSH1 0x1 PUSH1 0xA0 SHL SUB DUP3 AND PUSH1 0x0 DUP2 DUP2 MSTORE PUSH1 0x2 PUSH1 0x20 DUP2 SWAP1 MSTORE PUSH1 0x40 DUP1 DUP4 KECCAK256 SWAP1 SWAP2 ADD DUP1 SLOAD PUSH1 0x1 PUSH1 0x1 PUSH1 0xA0 SHL SUB NOT AND SWAP1 SSTORE MLOAD PUSH32 0x6C2460A415B84BE3720C209FE02F2CAD7A6BCBA21E8637AFE8957B7EC4B6EF87 SWAP2 SWAP1 LOG2 POP POP JUMP JUMPDEST DUP6 DUP6 DUP1 DUP1 PUSH1 0x20 MUL PUSH1 0x20 ADD PUSH1 0x40 MLOAD SWAP1 DUP2 ADD PUSH1 0x40 MSTORE DUP1 SWAP4 SWAP3 SWAP2 SWAP1 DUP2 DUP2 MSTORE PUSH1 0x20 ADD DUP4 DUP4 PUSH1 0x20 MUL DUP1 DUP3 DUP5 CALLDATACOPY PUSH1 0x0 SWAP3 ADD SWAP2 SWAP1 SWAP2 MSTORE POP POP PUSH1 0x40 DUP1 MLOAD PUSH1 0x20 DUP1 DUP10 MUL DUP3 DUP2 ADD DUP3 ADD SWAP1 SWAP4 MSTORE DUP9 DUP3 MSTORE SWAP1 SWAP4 POP DUP9 SWAP3 POP DUP8 SWAP2 DUP3 SWAP2 DUP6 ADD SWAP1 DUP5 SWAP1 DUP1 DUP3 DUP5 CALLDATACOPY PUSH1 0x0 SWAP3 ADD SWAP2 SWAP1 SWAP2 MSTORE POP POP DUP4 MLOAD DUP7 SWAP3 POP PUSH1 0x2 GT ISZERO SWAP1 POP PUSH2 0x535 JUMPI DUP3 MLOAD PUSH1 0x40 MLOAD PUSH4 0xE8C6265 PUSH1 0xE4 SHL DUP2 MSTORE PUSH1 0x4 ADD PUSH2 0x448 SWAP2 DUP2 MSTORE PUSH1 0x20 ADD SWAP1 JUMP JUMPDEST DUP2 MLOAD DUP4 MLOAD EQ PUSH2 0x564 JUMPI DUP3 MLOAD DUP3 MLOAD PUSH1 0x40 MLOAD PUSH4 0xB34F351D PUSH1 0xE0 SHL DUP2 MSTORE PUSH1 0x4 DUP2 ADD SWAP3 SWAP1 SWAP3 MSTORE PUSH1 0x24 DUP3 ADD MSTORE PUSH1 0x44 ADD PUSH2 0x448 JUMP JUMPDEST PUSH3 0xF4240 PUSH2 0x571 DUP4 PUSH2 0x2020 JUMP JUMPDEST PUSH4 0xFFFFFFFF AND EQ PUSH2 0x5A7 JUMPI PUSH2 0x585 DUP3 PUSH2 0x2020 JUMP JUMPDEST PUSH1 0x40 MLOAD PUSH4 0xFCC487C1 PUSH1 0xE0 SHL DUP2 MSTORE PUSH4 0xFFFFFFFF SWAP1 SWAP2 AND PUSH1 0x4 DUP3 ADD MSTORE PUSH1 0x24 ADD PUSH2 0x448 JUMP JUMPDEST DUP3 MLOAD PUSH1 0x0 NOT ADD PUSH1 0x0 JUMPDEST DUP2 DUP2 LT ISZERO PUSH2 0x69E JUMPI DUP5 DUP2 PUSH1 0x1 ADD DUP2 MLOAD DUP2 LT PUSH2 0x5DB JUMPI PUSH4 0x4E487B71 PUSH1 0xE0 SHL PUSH1 0x0 MSTORE PUSH1 0x32 PUSH1 0x4 MSTORE PUSH1 0x24 PUSH1 0x0 REVERT JUMPDEST PUSH1 0x20 MUL PUSH1 0x20 ADD ADD MLOAD PUSH1 0x1 PUSH1 0x1 PUSH1 0xA0 SHL SUB AND DUP6 DUP3 DUP2 MLOAD DUP2 LT PUSH2 0x60C JUMPI PUSH4 0x4E487B71 PUSH1 0xE0 SHL PUSH1 0x0 MSTORE PUSH1 0x32 PUSH1 0x4 MSTORE PUSH1 0x24 PUSH1 0x0 REVERT JUMPDEST PUSH1 0x20 MUL PUSH1 0x20 ADD ADD MLOAD PUSH1 0x1 PUSH1 0x1 PUSH1 0xA0 SHL SUB AND LT PUSH2 0x63E JUMPI PUSH1 0x40 MLOAD PUSH4 0xAC6BD233 PUSH1 0xE0 SHL DUP2 MSTORE PUSH1 0x4 DUP2 ADD DUP3 SWAP1 MSTORE PUSH1 0x24 ADD PUSH2 0x448 JUMP JUMPDEST PUSH1 0x0 PUSH4 0xFFFFFFFF AND DUP5 DUP3 DUP2 MLOAD DUP2 LT PUSH2 0x666 JUMPI PUSH4 0x4E487B71 PUSH1 0xE0 SHL PUSH1 0x0 MSTORE PUSH1 0x32 PUSH1 0x4 MSTORE PUSH1 0x24 PUSH1 0x0 REVERT JUMPDEST PUSH1 0x20 MUL PUSH1 0x20 ADD ADD MLOAD PUSH4 0xFFFFFFFF AND EQ ISZERO PUSH2 0x696 JUMPI PUSH1 0x40 MLOAD PUSH4 0xDB7E4C7 PUSH1 0xE0 SHL DUP2 MSTORE PUSH1 0x4 DUP2 ADD DUP3 SWAP1 MSTORE PUSH1 0x24 ADD PUSH2 0x448 JUMP JUMPDEST PUSH1 0x1 ADD PUSH2 0x5B0 JUMP JUMPDEST POP PUSH1 0x0 PUSH4 0xFFFFFFFF AND DUP4 DUP3 DUP2 MLOAD DUP2 LT PUSH2 0x6C7 JUMPI PUSH4 0x4E487B71 PUSH1 0xE0 SHL PUSH1 0x0 MSTORE PUSH1 0x32 PUSH1 0x4 MSTORE PUSH1 0x24 PUSH1 0x0 REVERT JUMPDEST PUSH1 0x20 MUL PUSH1 0x20 ADD ADD MLOAD PUSH4 0xFFFFFFFF AND EQ ISZERO PUSH2 0x6F7 JUMPI PUSH1 0x40 MLOAD PUSH4 0xDB7E4C7 PUSH1 0xE0 SHL DUP2 MSTORE PUSH1 0x4 DUP2 ADD DUP3 SWAP1 MSTORE PUSH1 0x24 ADD PUSH2 0x448 JUMP JUMPDEST POP PUSH3 0x186A0 DUP2 PUSH4 0xFFFFFFFF AND GT ISZERO PUSH2 0x72A JUMPI PUSH1 0x40 MLOAD PUSH4 0x308440E3 PUSH1 0xE2 SHL DUP2 MSTORE PUSH4 0xFFFFFFFF DUP3 AND PUSH1 0x4 DUP3 ADD MSTORE PUSH1 0x24 ADD PUSH2 0x448 JUMP JUMPDEST PUSH2 0x79A DUP12 DUP11 DUP11 DUP1 DUP1 PUSH1 0x20 MUL PUSH1 0x20 ADD PUSH1 0x40 MLOAD SWAP1 DUP2 ADD PUSH1 0x40 MSTORE DUP1 SWAP4 SWAP3 SWAP2 SWAP1 DUP2 DUP2 MSTORE PUSH1 0x20 ADD DUP4 DUP4 PUSH1 0x20 MUL DUP1 DUP3 DUP5 CALLDATACOPY PUSH1 0x0 SWAP3 ADD SWAP2 SWAP1 SWAP2 MSTORE POP POP PUSH1 0x40 DUP1 MLOAD PUSH1 0x20 DUP1 DUP15 MUL DUP3 DUP2 ADD DUP3 ADD SWAP1 SWAP4 MSTORE DUP14 DUP3 MSTORE SWAP1 SWAP4 POP DUP14 SWAP3 POP DUP13 SWAP2 DUP3 SWAP2 DUP6 ADD SWAP1 DUP5 SWAP1 DUP1 DUP3 DUP5 CALLDATACOPY PUSH1 0x0 SWAP3 ADD SWAP2 SWAP1 SWAP2 MSTORE POP DUP12 SWAP3 POP PUSH2 0x2073 SWAP2 POP POP JUMP JUMPDEST PUSH2 0x80D DUP12 DUP12 DUP12 DUP12 DUP1 DUP1 PUSH1 0x20 MUL PUSH1 0x20 ADD PUSH1 0x40 MLOAD SWAP1 DUP2 ADD PUSH1 0x40 MSTORE DUP1 SWAP4 SWAP3 SWAP2 SWAP1 DUP2 DUP2 MSTORE PUSH1 0x20 ADD DUP4 DUP4 PUSH1 0x20 MUL DUP1 DUP3 DUP5 CALLDATACOPY PUSH1 0x0 SWAP3 ADD SWAP2 SWAP1 SWAP2 MSTORE POP POP PUSH1 0x40 DUP1 MLOAD PUSH1 0x20 DUP1 DUP16 MUL DUP3 DUP2 ADD DUP3 ADD SWAP1 SWAP4 MSTORE DUP15 DUP3 MSTORE SWAP1 SWAP4 POP DUP15 SWAP3 POP DUP14 SWAP2 DUP3 SWAP2 DUP6 ADD SWAP1 DUP5 SWAP1 DUP1 DUP3 DUP5 CALLDATACOPY PUSH1 0x0 SWAP3 ADD SWAP2 SWAP1 SWAP2 MSTORE POP DUP13 SWAP3 POP DUP12 SWAP2 POP PUSH2 0x20C5 SWAP1 POP JUMP JUMPDEST POP POP POP POP POP POP POP POP POP POP POP JUMP JUMPDEST PUSH1 0x1 PUSH1 0x1 PUSH1 0xA0 SHL SUB DUP2 DUP2 AND PUSH1 0x0 SWAP1 DUP2 MSTORE PUSH1 0x2 PUSH1 0x20 MSTORE PUSH1 0x40 SWAP1 KECCAK256 PUSH1 0x1 ADD SLOAD DUP3 SWAP2 AND CALLER EQ PUSH2 0x85B JUMPI PUSH1 0x40 MLOAD PUSH4 0x472511EB PUSH1 0xE1 SHL DUP2 MSTORE CALLER PUSH1 0x4 DUP3 ADD MSTORE PUSH1 0x24 ADD PUSH2 0x448 JUMP JUMPDEST PUSH1 0x1 PUSH1 0x1 PUSH1 0xA0 SHL SUB DUP1 DUP4 AND PUSH1 0x0 DUP2 DUP2 MSTORE PUSH1 0x2 PUSH1 0x20 DUP2 SWAP1 MSTORE PUSH1 0x40 DUP1 DUP4 KECCAK256 SWAP2 DUP3 ADD DUP1 SLOAD PUSH1 0x1 PUSH1 0x1 PUSH1 0xA0 SHL SUB NOT AND SWAP1 SSTORE PUSH1 0x1 SWAP1 SWAP2 ADD SLOAD SWAP1 MLOAD SWAP2 SWAP4 AND SWAP2 SWAP1 PUSH32 0x943D69CF2BBE08A9D44B3C4CE6DA17D939D758739370620871CE99A6437866D0 SWAP1 DUP5 SWAP1 LOG4 POP PUSH1 0x1 PUSH1 0x1 PUSH1 0xA0 SHL SUB AND PUSH1 0x0 SWAP1 DUP2 MSTORE PUSH1 0x2 PUSH1 0x20 MSTORE PUSH1 0x40 SWAP1 KECCAK256 PUSH1 0x1 ADD DUP1 SLOAD PUSH1 0x1 PUSH1 0x1 PUSH1 0xA0 SHL SUB NOT AND SWAP1 SSTORE JUMP JUMPDEST PUSH1 0x1 PUSH1 0x1 PUSH1 0xA0 SHL SUB DUP2 AND PUSH1 0x0 SWAP1 DUP2 MSTORE PUSH1 0x2 PUSH1 0x20 MSTORE PUSH1 0x40 DUP2 KECCAK256 SLOAD PUSH2 0x909 JUMPI PUSH1 0x0 PUSH2 0x915 JUMP JUMPDEST DUP2 PUSH1 0x1 PUSH1 0x1 PUSH1 0xA0 SHL SUB AND BALANCE JUMPDEST PUSH1 0x1 PUSH1 0x1 PUSH1 0xA0 SHL SUB DUP4 AND PUSH1 0x0 SWAP1 DUP2 MSTORE PUSH1 0x20 DUP2 SWAP1 MSTORE PUSH1 0x40 SWAP1 KECCAK256 SLOAD PUSH2 0x938 SWAP2 SWAP1 PUSH2 0x2F98 JUMP JUMPDEST SWAP3 SWAP2 POP POP JUMP JUMPDEST PUSH1 0x0 DUP6 DUP6 DUP1 DUP1 PUSH1 0x20 MUL PUSH1 0x20 ADD PUSH1 0x40 MLOAD SWAP1 DUP2 ADD PUSH1 0x40 MSTORE DUP1 SWAP4 SWAP3 SWAP2 SWAP1 DUP2 DUP2 MSTORE PUSH1 0x20 ADD DUP4 DUP4 PUSH1 0x20 MUL DUP1 DUP3 DUP5 CALLDATACOPY PUSH1 0x0 SWAP3 ADD SWAP2 SWAP1 SWAP2 MSTORE POP POP PUSH1 0x40 DUP1 MLOAD PUSH1 0x20 DUP1 DUP10 MUL DUP3 DUP2 ADD DUP3 ADD SWAP1 SWAP4 MSTORE DUP9 DUP3 MSTORE SWAP1 SWAP4 POP DUP9 SWAP3 POP DUP8 SWAP2 DUP3 SWAP2 DUP6 ADD SWAP1 DUP5 SWAP1 DUP1 DUP3 DUP5 CALLDATACOPY PUSH1 0x0 SWAP3 ADD SWAP2 SWAP1 SWAP2 MSTORE POP POP DUP4 MLOAD DUP7 SWAP3 POP PUSH1 0x2 GT ISZERO SWAP1 POP PUSH2 0x9CF JUMPI DUP3 MLOAD PUSH1 0x40 MLOAD PUSH4 0xE8C6265 PUSH1 0xE4 SHL DUP2 MSTORE PUSH1 0x4 ADD PUSH2 0x448 SWAP2 DUP2 MSTORE PUSH1 0x20 ADD SWAP1 JUMP JUMPDEST DUP2 MLOAD DUP4 MLOAD EQ PUSH2 0x9FE JUMPI DUP3 MLOAD DUP3 MLOAD PUSH1 0x40 MLOAD PUSH4 0xB34F351D PUSH1 0xE0 SHL DUP2 MSTORE PUSH1 0x4 DUP2 ADD SWAP3 SWAP1 SWAP3 MSTORE PUSH1 0x24 DUP3 ADD MSTORE PUSH1 0x44 ADD PUSH2 0x448 JUMP JUMPDEST PUSH3 0xF4240 PUSH2 0xA0B DUP4 PUSH2 0x2020 JUMP JUMPDEST PUSH4 0xFFFFFFFF AND EQ PUSH2 0xA1F JUMPI PUSH2 0x585 DUP3 PUSH2 0x2020 JUMP JUMPDEST DUP3 MLOAD PUSH1 0x0 NOT ADD PUSH1 0x0 JUMPDEST DUP2 DUP2 LT ISZERO PUSH2 0xB16 JUMPI DUP5 DUP2 PUSH1 0x1 ADD DUP2 MLOAD DUP2 LT PUSH2 0xA53 JUMPI PUSH4 0x4E487B71 PUSH1 0xE0 SHL PUSH1 0x0 MSTORE PUSH1 0x32 PUSH1 0x4 MSTORE PUSH1 0x24 PUSH1 0x0 REVERT JUMPDEST PUSH1 0x20 MUL PUSH1 0x20 ADD ADD MLOAD PUSH1 0x1 PUSH1 0x1 PUSH1 0xA0 SHL SUB AND DUP6 DUP3 DUP2 MLOAD DUP2 LT PUSH2 0xA84 JUMPI PUSH4 0x4E487B71 PUSH1 0xE0 SHL PUSH1 0x0 MSTORE PUSH1 0x32 PUSH1 0x4 MSTORE PUSH1 0x24 PUSH1 0x0 REVERT JUMPDEST PUSH1 0x20 MUL PUSH1 0x20 ADD ADD MLOAD PUSH1 0x1 PUSH1 0x1 PUSH1 0xA0 SHL SUB AND LT PUSH2 0xAB6 JUMPI PUSH1 0x40 MLOAD PUSH4 0xAC6BD233 PUSH1 0xE0 SHL DUP2 MSTORE PUSH1 0x4 DUP2 ADD DUP3 SWAP1 MSTORE PUSH1 0x24 ADD PUSH2 0x448 JUMP JUMPDEST PUSH1 0x0 PUSH4 0xFFFFFFFF AND DUP5 DUP3 DUP2 MLOAD DUP2 LT PUSH2 0xADE JUMPI PUSH4 0x4E487B71 PUSH1 0xE0 SHL PUSH1 0x0 MSTORE PUSH1 0x32 PUSH1 0x4 MSTORE PUSH1 0x24 PUSH1 0x0 REVERT JUMPDEST PUSH1 0x20 MUL PUSH1 0x20 ADD ADD MLOAD PUSH4 0xFFFFFFFF AND EQ ISZERO PUSH2 0xB0E JUMPI PUSH1 0x40 MLOAD PUSH4 0xDB7E4C7 PUSH1 0xE0 SHL DUP2 MSTORE PUSH1 0x4 DUP2 ADD DUP3 SWAP1 MSTORE PUSH1 0x24 ADD PUSH2 0x448 JUMP JUMPDEST PUSH1 0x1 ADD PUSH2 0xA28 JUMP JUMPDEST POP PUSH1 0x0 PUSH4 0xFFFFFFFF AND DUP4 DUP3 DUP2 MLOAD DUP2 LT PUSH2 0xB3F JUMPI PUSH4 0x4E487B71 PUSH1 0xE0 SHL PUSH1 0x0 MSTORE PUSH1 0x32 PUSH1 0x4 MSTORE PUSH1 0x24 PUSH1 0x0 REVERT JUMPDEST PUSH1 0x20 MUL PUSH1 0x20 ADD ADD MLOAD PUSH4 0xFFFFFFFF AND EQ ISZERO PUSH2 0xB6F JUMPI PUSH1 0x40 MLOAD PUSH4 0xDB7E4C7 PUSH1 0xE0 SHL DUP2 MSTORE PUSH1 0x4 DUP2 ADD DUP3 SWAP1 MSTORE PUSH1 0x24 ADD PUSH2 0x448 JUMP JUMPDEST POP PUSH3 0x186A0 DUP2 PUSH4 0xFFFFFFFF AND GT ISZERO PUSH2 0xBA2 JUMPI PUSH1 0x40 MLOAD PUSH4 0x308440E3 PUSH1 0xE2 SHL DUP2 MSTORE PUSH4 0xFFFFFFFF DUP3 AND PUSH1 0x4 DUP3 ADD MSTORE PUSH1 0x24 ADD PUSH2 0x448 JUMP JUMPDEST PUSH1 0x0 PUSH2 0xC13 DUP11 DUP11 DUP1 DUP1 PUSH1 0x20 MUL PUSH1 0x20 ADD PUSH1 0x40 MLOAD SWAP1 DUP2 ADD PUSH1 0x40 MSTORE DUP1 SWAP4 SWAP3 SWAP2 SWAP1 DUP2 DUP2 MSTORE PUSH1 0x20 ADD DUP4 DUP4 PUSH1 0x20 MUL DUP1 DUP3 DUP5 CALLDATACOPY PUSH1 0x0 SWAP3 ADD SWAP2 SWAP1 SWAP2 MSTORE POP POP PUSH1 0x40 DUP1 MLOAD PUSH1 0x20 DUP1 DUP15 MUL DUP3 DUP2 ADD DUP3 ADD SWAP1 SWAP4 MSTORE DUP14 DUP3 MSTORE SWAP1 SWAP4 POP DUP14 SWAP3 POP DUP13 SWAP2 DUP3 SWAP2 DUP6 ADD SWAP1 DUP5 SWAP1 DUP1 DUP3 DUP5 CALLDATACOPY PUSH1 0x0 SWAP3 ADD SWAP2 SWAP1 SWAP2 MSTORE POP DUP12 SWAP3 POP PUSH2 0x239F SWAP2 POP POP JUMP JUMPDEST SWAP1 POP PUSH2 0xC3F PUSH32 0x0 DUP3 PUSH2 0x23D5 JUMP JUMPDEST SWAP11 SWAP10 POP POP POP POP POP POP POP POP POP POP JUMP JUMPDEST PUSH1 0x0 DUP2 PUSH8 0xFFFFFFFFFFFFFFFF DUP2 GT ISZERO PUSH2 0xC76 JUMPI PUSH4 0x4E487B71 PUSH1 0xE0 SHL PUSH1 0x0 MSTORE PUSH1 0x41 PUSH1 0x4 MSTORE PUSH1 0x24 PUSH1 0x0 REVERT JUMPDEST PUSH1 0x40 MLOAD SWAP1 DUP1 DUP3 MSTORE DUP1 PUSH1 0x20 MUL PUSH1 0x20 ADD DUP3 ADD PUSH1 0x40 MSTORE DUP1 ISZERO PUSH2 0xC9F JUMPI DUP2 PUSH1 0x20 ADD PUSH1 0x20 DUP3 MUL DUP1 CALLDATASIZE DUP4 CALLDATACOPY ADD SWAP1 POP JUMPDEST POP SWAP1 POP PUSH1 0x0 DUP5 ISZERO PUSH2 0xCB6 JUMPI PUSH2 0xCB3 DUP7 PUSH2 0x247A JUMP JUMPDEST SWAP1 POP JUMPDEST PUSH1 0x0 JUMPDEST DUP4 DUP2 LT ISZERO PUSH2 0xD32 JUMPI PUSH2 0xCFF DUP8 DUP7 DUP7 DUP5 DUP2 DUP2 LT PUSH2 0xCE5 JUMPI PUSH4 0x4E487B71 PUSH1 0xE0 SHL PUSH1 0x0 MSTORE PUSH1 0x32 PUSH1 0x4 MSTORE PUSH1 0x24 PUSH1 0x0 REVERT JUMPDEST SWAP1 POP PUSH1 0x20 MUL ADD PUSH1 0x20 DUP2 ADD SWAP1 PUSH2 0xCFA SWAP2 SWAP1 PUSH2 0x2AB2 JUMP JUMPDEST PUSH2 0x24CD JUMP JUMPDEST DUP4 DUP3 DUP2 MLOAD DUP2 LT PUSH2 0xD1F JUMPI PUSH4 0x4E487B71 PUSH1 0xE0 SHL PUSH1 0x0 MSTORE PUSH1 0x32 PUSH1 0x4 MSTORE PUSH1 0x24 PUSH1 0x0 REVERT JUMPDEST PUSH1 0x20 SWAP1 DUP2 MUL SWAP2 SWAP1 SWAP2 ADD ADD MSTORE PUSH1 0x1 ADD PUSH2 0xCB9 JUMP JUMPDEST POP DUP6 PUSH1 0x1 PUSH1 0x1 PUSH1 0xA0 SHL SUB AND PUSH32 0xA9E30BF144F83390A4FE47562A4E16892108102221C674FF538DA0B72A83D174 DUP3 DUP7 DUP7 DUP7 PUSH1 0x40 MLOAD PUSH2 0xD72 SWAP5 SWAP4 SWAP3 SWAP2 SWAP1 PUSH2 0x2F08 JUMP JUMPDEST PUSH1 0x40 MLOAD DUP1 SWAP2 SUB SWAP1 LOG2 POP POP POP POP POP POP JUMP JUMPDEST PUSH1 0x0 DUP7 DUP7 DUP1 DUP1 PUSH1 0x20 MUL PUSH1 0x20 ADD PUSH1 0x40 MLOAD SWAP1 DUP2 ADD PUSH1 0x40 MSTORE DUP1 SWAP4 SWAP3 SWAP2 SWAP1 DUP2 DUP2 MSTORE PUSH1 0x20 ADD DUP4 DUP4 PUSH1 0x20 MUL DUP1 DUP3 DUP5 CALLDATACOPY PUSH1 0x0 SWAP3 ADD SWAP2 SWAP1 SWAP2 MSTORE POP POP PUSH1 0x40 DUP1 MLOAD PUSH1 0x20 DUP1 DUP11 MUL DUP3 DUP2 ADD DUP3 ADD SWAP1 SWAP4 MSTORE DUP10 DUP3 MSTORE SWAP1 SWAP4 POP DUP10 SWAP3 POP DUP9 SWAP2 DUP3 SWAP2 DUP6 ADD SWAP1 DUP5 SWAP1 DUP1 DUP3 DUP5 CALLDATACOPY PUSH1 0x0 SWAP3 ADD SWAP2 SWAP1 SWAP2 MSTORE POP POP DUP4 MLOAD DUP8 SWAP3 POP PUSH1 0x2 GT ISZERO SWAP1 POP PUSH2 0xE13 JUMPI DUP3 MLOAD PUSH1 0x40 MLOAD PUSH4 0xE8C6265 PUSH1 0xE4 SHL DUP2 MSTORE PUSH1 0x4 ADD PUSH2 0x448 SWAP2 DUP2 MSTORE PUSH1 0x20 ADD SWAP1 JUMP JUMPDEST DUP2 MLOAD DUP4 MLOAD EQ PUSH2 0xE42 JUMPI DUP3 MLOAD DUP3 MLOAD PUSH1 0x40 MLOAD PUSH4 0xB34F351D PUSH1 0xE0 SHL DUP2 MSTORE PUSH1 0x4 DUP2 ADD SWAP3 SWAP1 SWAP3 MSTORE PUSH1 0x24 DUP3 ADD MSTORE PUSH1 0x44 ADD PUSH2 0x448 JUMP JUMPDEST PUSH3 0xF4240 PUSH2 0xE4F DUP4 PUSH2 0x2020 JUMP JUMPDEST PUSH4 0xFFFFFFFF AND EQ PUSH2 0xE63 JUMPI PUSH2 0x585 DUP3 PUSH2 0x2020 JUMP JUMPDEST DUP3 MLOAD PUSH1 0x0 NOT ADD PUSH1 0x0 JUMPDEST DUP2 DUP2 LT ISZERO PUSH2 0xF5A JUMPI DUP5 DUP2 PUSH1 0x1 ADD DUP2 MLOAD DUP2 LT PUSH2 0xE97 JUMPI PUSH4 0x4E487B71 PUSH1 0xE0 SHL PUSH1 0x0 MSTORE PUSH1 0x32 PUSH1 0x4 MSTORE PUSH1 0x24 PUSH1 0x0 REVERT JUMPDEST PUSH1 0x20 MUL PUSH1 0x20 ADD ADD MLOAD PUSH1 0x1 PUSH1 0x1 PUSH1 0xA0 SHL SUB AND DUP6 DUP3 DUP2 MLOAD DUP2 LT PUSH2 0xEC8 JUMPI PUSH4 0x4E487B71 PUSH1 0xE0 SHL PUSH1 0x0 MSTORE PUSH1 0x32 PUSH1 0x4 MSTORE PUSH1 0x24 PUSH1 0x0 REVERT JUMPDEST PUSH1 0x20 MUL PUSH1 0x20 ADD ADD MLOAD PUSH1 0x1 PUSH1 0x1 PUSH1 0xA0 SHL SUB AND LT PUSH2 0xEFA JUMPI PUSH1 0x40 MLOAD PUSH4 0xAC6BD233 PUSH1 0xE0 SHL DUP2 MSTORE PUSH1 0x4 DUP2 ADD DUP3 SWAP1 MSTORE PUSH1 0x24 ADD PUSH2 0x448 JUMP JUMPDEST PUSH1 0x0 PUSH4 0xFFFFFFFF AND DUP5 DUP3 DUP2 MLOAD DUP2 LT PUSH2 0xF22 JUMPI PUSH4 0x4E487B71 PUSH1 0xE0 SHL PUSH1 0x0 MSTORE PUSH1 0x32 PUSH1 0x4 MSTORE PUSH1 0x24 PUSH1 0x0 REVERT JUMPDEST PUSH1 0x20 MUL PUSH1 0x20 ADD ADD MLOAD PUSH4 0xFFFFFFFF AND EQ ISZERO PUSH2 0xF52 JUMPI PUSH1 0x40 MLOAD PUSH4 0xDB7E4C7 PUSH1 0xE0 SHL DUP2 MSTORE PUSH1 0x4 DUP2 ADD DUP3 SWAP1 MSTORE PUSH1 0x24 ADD PUSH2 0x448 JUMP JUMPDEST PUSH1 0x1 ADD PUSH2 0xE6C JUMP JUMPDEST POP PUSH1 0x0 PUSH4 0xFFFFFFFF AND DUP4 DUP3 DUP2 MLOAD DUP2 LT PUSH2 0xF83 JUMPI PUSH4 0x4E487B71 PUSH1 0xE0 SHL PUSH1 0x0 MSTORE PUSH1 0x32 PUSH1 0x4 MSTORE PUSH1 0x24 PUSH1 0x0 REVERT JUMPDEST PUSH1 0x20 MUL PUSH1 0x20 ADD ADD MLOAD PUSH4 0xFFFFFFFF AND EQ ISZERO PUSH2 0xFB3 JUMPI PUSH1 0x40 MLOAD PUSH4 0xDB7E4C7 PUSH1 0xE0 SHL DUP2 MSTORE PUSH1 0x4 DUP2 ADD DUP3 SWAP1 MSTORE PUSH1 0x24 ADD PUSH2 0x448 JUMP JUMPDEST POP PUSH3 0x186A0 DUP2 PUSH4 0xFFFFFFFF AND GT ISZERO PUSH2 0xFE6 JUMPI PUSH1 0x40 MLOAD PUSH4 0x308440E3 PUSH1 0xE2 SHL DUP2 MSTORE PUSH4 0xFFFFFFFF DUP3 AND PUSH1 0x4 DUP3 ADD MSTORE PUSH1 0x24 ADD PUSH2 0x448 JUMP JUMPDEST PUSH1 0x0 PUSH2 0x1057 DUP12 DUP12 DUP1 DUP1 PUSH1 0x20 MUL PUSH1 0x20 ADD PUSH1 0x40 MLOAD SWAP1 DUP2 ADD PUSH1 0x40 MSTORE DUP1 SWAP4 SWAP3 SWAP2 SWAP1 DUP2 DUP2 MSTORE PUSH1 0x20 ADD DUP4 DUP4 PUSH1 0x20 MUL DUP1 DUP3 DUP5 CALLDATACOPY PUSH1 0x0 SWAP3 ADD SWAP2 SWAP1 SWAP2 MSTORE POP POP PUSH1 0x40 DUP1 MLOAD PUSH1 0x20 DUP1 DUP16 MUL DUP3 DUP2 ADD DUP3 ADD SWAP1 SWAP4 MSTORE DUP15 DUP3 MSTORE SWAP1 SWAP4 POP DUP15 SWAP3 POP DUP14 SWAP2 DUP3 SWAP2 DUP6 ADD SWAP1 DUP5 SWAP1 DUP1 DUP3 DUP5 CALLDATACOPY PUSH1 0x0 SWAP3 ADD SWAP2 SWAP1 SWAP2 MSTORE POP DUP13 SWAP3 POP PUSH2 0x239F SWAP2 POP POP JUMP JUMPDEST SWAP1 POP PUSH1 0x1 PUSH1 0x1 PUSH1 0xA0 SHL SUB DUP7 AND PUSH2 0x1098 JUMPI PUSH2 0x1091 PUSH32 0x0 DUP3 PUSH2 0x2539 JUMP JUMPDEST SWAP5 POP PUSH2 0x10F5 JUMP JUMPDEST PUSH2 0x10C1 PUSH32 0x0 PUSH2 0x25E9 JUMP JUMPDEST PUSH1 0x1 PUSH1 0x1 PUSH1 0xA0 SHL SUB DUP2 DUP2 AND PUSH1 0x0 SWAP1 DUP2 MSTORE PUSH1 0x2 PUSH1 0x20 MSTORE PUSH1 0x40 SWAP1 KECCAK256 PUSH1 0x1 ADD DUP1 SLOAD PUSH1 0x1 PUSH1 0x1 PUSH1 0xA0 SHL SUB NOT AND SWAP2 DUP10 AND SWAP2 SWAP1 SWAP2 OR SWAP1 SSTORE SWAP5 POP JUMPDEST PUSH1 0x1 PUSH1 0x1 PUSH1 0xA0 SHL SUB DUP6 AND PUSH1 0x0 DUP2 DUP2 MSTORE PUSH1 0x2 PUSH1 0x20 MSTORE PUSH1 0x40 DUP1 DUP3 KECCAK256 DUP5 SWAP1 SSTORE MLOAD PUSH32 0x8D5F9943C664A3EDAF4D3EB18CC5E2C45A7D2DC5869BE33D33BBC0FFF9BC2590 SWAP2 SWAP1 LOG2 POP POP POP POP SWAP7 SWAP6 POP POP POP POP POP POP JUMP JUMPDEST PUSH1 0x1 PUSH1 0x1 PUSH1 0xA0 SHL SUB DUP9 DUP2 AND PUSH1 0x0 SWAP1 DUP2 MSTORE PUSH1 0x2 PUSH1 0x20 MSTORE PUSH1 0x40 SWAP1 KECCAK256 PUSH1 0x1 ADD SLOAD DUP10 SWAP2 AND CALLER EQ PUSH2 0x1185 JUMPI PUSH1 0x40 MLOAD PUSH4 0x472511EB PUSH1 0xE1 SHL DUP2 MSTORE CALLER PUSH1 0x4 DUP3 ADD MSTORE PUSH1 0x24 ADD PUSH2 0x448 JUMP JUMPDEST DUP7 DUP7 DUP1 DUP1 PUSH1 0x20 MUL PUSH1 0x20 ADD PUSH1 0x40 MLOAD SWAP1 DUP2 ADD PUSH1 0x40 MSTORE DUP1 SWAP4 SWAP3 SWAP2 SWAP1 DUP2 DUP2 MSTORE PUSH1 0x20 ADD DUP4 DUP4 PUSH1 0x20 MUL DUP1 DUP3 DUP5 CALLDATACOPY PUSH1 0x0 SWAP3 ADD SWAP2 SWAP1 SWAP2 MSTORE POP POP PUSH1 0x40 DUP1 MLOAD PUSH1 0x20 DUP1 DUP11 MUL DUP3 DUP2 ADD DUP3 ADD SWAP1 SWAP4 MSTORE DUP10 DUP3 MSTORE SWAP1 SWAP4 POP DUP10 SWAP3 POP DUP9 SWAP2 DUP3 SWAP2 DUP6 ADD SWAP1 DUP5 SWAP1 DUP1 DUP3 DUP5 CALLDATACOPY PUSH1 0x0 SWAP3 ADD SWAP2 SWAP1 SWAP2 MSTORE POP POP DUP4 MLOAD DUP8 SWAP3 POP PUSH1 0x2 GT ISZERO SWAP1 POP PUSH2 0x1214 JUMPI DUP3 MLOAD PUSH1 0x40 MLOAD PUSH4 0xE8C6265 PUSH1 0xE4 SHL DUP2 MSTORE PUSH1 0x4 ADD PUSH2 0x448 SWAP2 DUP2 MSTORE PUSH1 0x20 ADD SWAP1 JUMP JUMPDEST DUP2 MLOAD DUP4 MLOAD EQ PUSH2 0x1243 JUMPI DUP3 MLOAD DUP3 MLOAD PUSH1 0x40 MLOAD PUSH4 0xB34F351D PUSH1 0xE0 SHL DUP2 MSTORE PUSH1 0x4 DUP2 ADD SWAP3 SWAP1 SWAP3 MSTORE PUSH1 0x24 DUP3 ADD MSTORE PUSH1 0x44 ADD PUSH2 0x448 JUMP JUMPDEST PUSH3 0xF4240 PUSH2 0x1250 DUP4 PUSH2 0x2020 JUMP JUMPDEST PUSH4 0xFFFFFFFF AND EQ PUSH2 0x1264 JUMPI PUSH2 0x585 DUP3 PUSH2 0x2020 JUMP JUMPDEST DUP3 MLOAD PUSH1 0x0 NOT ADD PUSH1 0x0 JUMPDEST DUP2 DUP2 LT ISZERO PUSH2 0x135B JUMPI DUP5 DUP2 PUSH1 0x1 ADD DUP2 MLOAD DUP2 LT PUSH2 0x1298 JUMPI PUSH4 0x4E487B71 PUSH1 0xE0 SHL PUSH1 0x0 MSTORE PUSH1 0x32 PUSH1 0x4 MSTORE PUSH1 0x24 PUSH1 0x0 REVERT JUMPDEST PUSH1 0x20 MUL PUSH1 0x20 ADD ADD MLOAD PUSH1 0x1 PUSH1 0x1 PUSH1 0xA0 SHL SUB AND DUP6 DUP3 DUP2 MLOAD DUP2 LT PUSH2 0x12C9 JUMPI PUSH4 0x4E487B71 PUSH1 0xE0 SHL PUSH1 0x0 MSTORE PUSH1 0x32 PUSH1 0x4 MSTORE PUSH1 0x24 PUSH1 0x0 REVERT JUMPDEST PUSH1 0x20 MUL PUSH1 0x20 ADD ADD MLOAD PUSH1 0x1 PUSH1 0x1 PUSH1 0xA0 SHL SUB AND LT PUSH2 0x12FB JUMPI PUSH1 0x40 MLOAD PUSH4 0xAC6BD233 PUSH1 0xE0 SHL DUP2 MSTORE PUSH1 0x4 DUP2 ADD DUP3 SWAP1 MSTORE PUSH1 0x24 ADD PUSH2 0x448 JUMP JUMPDEST PUSH1 0x0 PUSH4 0xFFFFFFFF AND DUP5 DUP3 DUP2 MLOAD DUP2 LT PUSH2 0x1323 JUMPI PUSH4 0x4E487B71 PUSH1 0xE0 SHL PUSH1 0x0 MSTORE PUSH1 0x32 PUSH1 0x4 MSTORE PUSH1 0x24 PUSH1 0x0 REVERT JUMPDEST PUSH1 0x20 MUL PUSH1 0x20 ADD ADD MLOAD PUSH4 0xFFFFFFFF AND EQ ISZERO PUSH2 0x1353 JUMPI PUSH1 0x40 MLOAD PUSH4 0xDB7E4C7 PUSH1 0xE0 SHL DUP2 MSTORE PUSH1 0x4 DUP2 ADD DUP3 SWAP1 MSTORE PUSH1 0x24 ADD PUSH2 0x448 JUMP JUMPDEST PUSH1 0x1 ADD PUSH2 0x126D JUMP JUMPDEST POP PUSH1 0x0 PUSH4 0xFFFFFFFF AND DUP4 DUP3 DUP2 MLOAD DUP2 LT PUSH2 0x1384 JUMPI PUSH4 0x4E487B71 PUSH1 0xE0 SHL PUSH1 0x0 MSTORE PUSH1 0x32 PUSH1 0x4 MSTORE PUSH1 0x24 PUSH1 0x0 REVERT JUMPDEST PUSH1 0x20 MUL PUSH1 0x20 ADD ADD MLOAD PUSH4 0xFFFFFFFF AND EQ ISZERO PUSH2 0x13B4 JUMPI PUSH1 0x40 MLOAD PUSH4 0xDB7E4C7 PUSH1 0xE0 SHL DUP2 MSTORE PUSH1 0x4 DUP2 ADD DUP3 SWAP1 MSTORE PUSH1 0x24 ADD PUSH2 0x448 JUMP JUMPDEST POP PUSH3 0x186A0 DUP2 PUSH4 0xFFFFFFFF AND GT ISZERO PUSH2 0x13E7 JUMPI PUSH1 0x40 MLOAD PUSH4 0x308440E3 PUSH1 0xE2 SHL DUP2 MSTORE PUSH4 0xFFFFFFFF DUP3 AND PUSH1 0x4 DUP3 ADD MSTORE PUSH1 0x24 ADD PUSH2 0x448 JUMP JUMPDEST PUSH2 0x13F5 DUP13 DUP12 DUP12 DUP12 DUP12 DUP12 PUSH2 0x2698 JUMP JUMPDEST PUSH2 0x1479 DUP13 DUP13 DUP13 DUP13 DUP1 DUP1 PUSH1 0x20 MUL PUSH1 0x20 ADD PUSH1 0x40 MLOAD SWAP1 DUP2 ADD PUSH1 0x40 MSTORE DUP1 SWAP4 SWAP3 SWAP2 SWAP1 DUP2 DUP2 MSTORE PUSH1 0x20 ADD DUP4 DUP4 PUSH1 0x20 MUL DUP1 DUP3 DUP5 CALLDATACOPY PUSH1 0x0 DUP2 DUP5 ADD MSTORE PUSH1 0x1F NOT PUSH1 0x1F DUP3 ADD AND SWAP1 POP DUP1 DUP4 ADD SWAP3 POP POP POP POP POP POP POP DUP12 DUP12 DUP1 DUP1 PUSH1 0x20 MUL PUSH1 0x20 ADD PUSH1 0x40 MLOAD SWAP1 DUP2 ADD PUSH1 0x40 MSTORE DUP1 SWAP4 SWAP3 SWAP2 SWAP1 DUP2 DUP2 MSTORE PUSH1 0x20 ADD DUP4 DUP4 PUSH1 0x20 MUL DUP1 DUP3 DUP5 CALLDATACOPY PUSH1 0x0 SWAP3 ADD SWAP2 SWAP1 SWAP2 MSTORE POP DUP14 SWAP3 POP DUP13 SWAP2 POP PUSH2 0x20C5 SWAP1 POP JUMP JUMPDEST POP POP POP POP POP POP POP POP POP POP POP POP JUMP JUMPDEST PUSH1 0x1 PUSH1 0x1 PUSH1 0xA0 SHL SUB DUP8 DUP2 AND PUSH1 0x0 SWAP1 DUP2 MSTORE PUSH1 0x2 PUSH1 0x20 MSTORE PUSH1 0x40 SWAP1 KECCAK256 PUSH1 0x1 ADD SLOAD DUP9 SWAP2 AND CALLER EQ PUSH2 0x14C8 JUMPI PUSH1 0x40 MLOAD PUSH4 0x472511EB PUSH1 0xE1 SHL DUP2 MSTORE CALLER PUSH1 0x4 DUP3 ADD MSTORE PUSH1 0x24 ADD PUSH2 0x448 JUMP JUMPDEST DUP7 DUP7 DUP1 DUP1 PUSH1 0x20 MUL PUSH1 0x20 ADD PUSH1 0x40 MLOAD SWAP1 DUP2 ADD PUSH1 0x40 MSTORE DUP1 SWAP4 SWAP3 SWAP2 SWAP1 DUP2 DUP2 MSTORE PUSH1 0x20 ADD DUP4 DUP4 PUSH1 0x20 MUL DUP1 DUP3 DUP5 CALLDATACOPY PUSH1 0x0 SWAP3 ADD SWAP2 SWAP1 SWAP2 MSTORE POP POP PUSH1 0x40 DUP1 MLOAD PUSH1 0x20 DUP1 DUP11 MUL DUP3 DUP2 ADD DUP3 ADD SWAP1 SWAP4 MSTORE DUP10 DUP3 MSTORE SWAP1 SWAP4 POP DUP10 SWAP3 POP DUP9 SWAP2 DUP3 SWAP2 DUP6 ADD SWAP1 DUP5 SWAP1 DUP1 DUP3 DUP5 CALLDATACOPY PUSH1 0x0 SWAP3 ADD SWAP2 SWAP1 SWAP2 MSTORE POP POP DUP4 MLOAD DUP8 SWAP3 POP PUSH1 0x2 GT ISZERO SWAP1 POP PUSH2 0x1557 JUMPI DUP3 MLOAD PUSH1 0x40 MLOAD PUSH4 0xE8C6265 PUSH1 0xE4 SHL DUP2 MSTORE PUSH1 0x4 ADD PUSH2 0x448 SWAP2 DUP2 MSTORE PUSH1 0x20 ADD SWAP1 JUMP JUMPDEST DUP2 MLOAD DUP4 MLOAD EQ PUSH2 0x1586 JUMPI DUP3 MLOAD DUP3 MLOAD PUSH1 0x40 MLOAD PUSH4 0xB34F351D PUSH1 0xE0 SHL DUP2 MSTORE PUSH1 0x4 DUP2 ADD SWAP3 SWAP1 SWAP3 MSTORE PUSH1 0x24 DUP3 ADD MSTORE PUSH1 0x44 ADD PUSH2 0x448 JUMP JUMPDEST PUSH3 0xF4240 PUSH2 0x1593 DUP4 PUSH2 0x2020 JUMP JUMPDEST PUSH4 0xFFFFFFFF AND EQ PUSH2 0x15A7 JUMPI PUSH2 0x585 DUP3 PUSH2 0x2020 JUMP JUMPDEST DUP3 MLOAD PUSH1 0x0 NOT ADD PUSH1 0x0 JUMPDEST DUP2 DUP2 LT ISZERO PUSH2 0x169E JUMPI DUP5 DUP2 PUSH1 0x1 ADD DUP2 MLOAD DUP2 LT PUSH2 0x15DB JUMPI PUSH4 0x4E487B71 PUSH1 0xE0 SHL PUSH1 0x0 MSTORE PUSH1 0x32 PUSH1 0x4 MSTORE PUSH1 0x24 PUSH1 0x0 REVERT JUMPDEST PUSH1 0x20 MUL PUSH1 0x20 ADD ADD MLOAD PUSH1 0x1 PUSH1 0x1 PUSH1 0xA0 SHL SUB AND DUP6 DUP3 DUP2 MLOAD DUP2 LT PUSH2 0x160C JUMPI PUSH4 0x4E487B71 PUSH1 0xE0 SHL PUSH1 0x0 MSTORE PUSH1 0x32 PUSH1 0x4 MSTORE PUSH1 0x24 PUSH1 0x0 REVERT JUMPDEST PUSH1 0x20 MUL PUSH1 0x20 ADD ADD MLOAD PUSH1 0x1 PUSH1 0x1 PUSH1 0xA0 SHL SUB AND LT PUSH2 0x163E JUMPI PUSH1 0x40 MLOAD PUSH4 0xAC6BD233 PUSH1 0xE0 SHL DUP2 MSTORE PUSH1 0x4 DUP2 ADD DUP3 SWAP1 MSTORE PUSH1 0x24 ADD PUSH2 0x448 JUMP JUMPDEST PUSH1 0x0 PUSH4 0xFFFFFFFF AND DUP5 DUP3 DUP2 MLOAD DUP2 LT PUSH2 0x1666 JUMPI PUSH4 0x4E487B71 PUSH1 0xE0 SHL PUSH1 0x0 MSTORE PUSH1 0x32 PUSH1 0x4 MSTORE PUSH1 0x24 PUSH1 0x0 REVERT JUMPDEST PUSH1 0x20 MUL PUSH1 0x20 ADD ADD MLOAD PUSH4 0xFFFFFFFF AND EQ ISZERO PUSH2 0x1696 JUMPI PUSH1 0x40 MLOAD PUSH4 0xDB7E4C7 PUSH1 0xE0 SHL DUP2 MSTORE PUSH1 0x4 DUP2 ADD DUP3 SWAP1 MSTORE PUSH1 0x24 ADD PUSH2 0x448 JUMP JUMPDEST PUSH1 0x1 ADD PUSH2 0x15B0 JUMP JUMPDEST POP PUSH1 0x0 PUSH4 0xFFFFFFFF AND DUP4 DUP3 DUP2 MLOAD DUP2 LT PUSH2 0x16C7 JUMPI PUSH4 0x4E487B71 PUSH1 0xE0 SHL PUSH1 0x0 MSTORE PUSH1 0x32 PUSH1 0x4 MSTORE PUSH1 0x24 PUSH1 0x0 REVERT JUMPDEST PUSH1 0x20 MUL PUSH1 0x20 ADD ADD MLOAD PUSH4 0xFFFFFFFF AND EQ ISZERO PUSH2 0x16F7 JUMPI PUSH1 0x40 MLOAD PUSH4 0xDB7E4C7 PUSH1 0xE0 SHL DUP2 MSTORE PUSH1 0x4 DUP2 ADD DUP3 SWAP1 MSTORE PUSH1 0x24 ADD PUSH2 0x448 JUMP JUMPDEST POP PUSH3 0x186A0 DUP2 PUSH4 0xFFFFFFFF AND GT ISZERO PUSH2 0x172A JUMPI PUSH1 0x40 MLOAD PUSH4 0x308440E3 PUSH1 0xE2 SHL DUP2 MSTORE PUSH4 0xFFFFFFFF DUP3 AND PUSH1 0x4 DUP3 ADD MSTORE PUSH1 0x24 ADD PUSH2 0x448 JUMP JUMPDEST PUSH2 0x1738 DUP12 DUP12 DUP12 DUP12 DUP12 DUP12 PUSH2 0x2698 JUMP JUMPDEST PUSH2 0x80D DUP12 DUP12 DUP12 DUP1 DUP1 PUSH1 0x20 MUL PUSH1 0x20 ADD PUSH1 0x40 MLOAD SWAP1 DUP2 ADD PUSH1 0x40 MSTORE DUP1 SWAP4 SWAP3 SWAP2 SWAP1 DUP2 DUP2 MSTORE PUSH1 0x20 ADD DUP4 DUP4 PUSH1 0x20 MUL DUP1 DUP3 DUP5 CALLDATACOPY PUSH1 0x0 SWAP3 ADD SWAP2 SWAP1 SWAP2 MSTORE POP POP PUSH1 0x40 DUP1 MLOAD PUSH1 0x20 DUP1 DUP16 MUL DUP3 DUP2 ADD DUP3 ADD SWAP1 SWAP4 MSTORE DUP15 DUP3 MSTORE SWAP1 SWAP4 POP DUP15 SWAP3 POP DUP14 SWAP2 DUP3 SWAP2 DUP6 ADD SWAP1 DUP5 SWAP1 DUP1 DUP3 DUP5 CALLDATACOPY PUSH1 0x0 SWAP3 ADD SWAP2 SWAP1 SWAP2 MSTORE POP DUP13 SWAP3 POP DUP12 SWAP2 POP PUSH2 0x2758 SWAP1 POP JUMP JUMPDEST PUSH1 0x1 PUSH1 0x1 PUSH1 0xA0 SHL SUB DUP3 AND PUSH1 0x0 SWAP1 DUP2 MSTORE PUSH1 0x2 PUSH1 0x20 MSTORE PUSH1 0x40 DUP2 KECCAK256 SLOAD PUSH2 0x17CE JUMPI PUSH1 0x0 PUSH2 0x1847 JUMP JUMPDEST PUSH1 0x40 MLOAD PUSH4 0x70A08231 PUSH1 0xE0 SHL DUP2 MSTORE PUSH1 0x1 PUSH1 0x1 PUSH1 0xA0 SHL SUB DUP5 DUP2 AND PUSH1 0x4 DUP4 ADD MSTORE DUP4 AND SWAP1 PUSH4 0x70A08231 SWAP1 PUSH1 0x24 ADD PUSH1 0x20 PUSH1 0x40 MLOAD DUP1 DUP4 SUB DUP2 DUP7 DUP1 EXTCODESIZE ISZERO DUP1 ISZERO PUSH2 0x180F JUMPI PUSH1 0x0 DUP1 REVERT JUMPDEST POP GAS STATICCALL ISZERO DUP1 ISZERO PUSH2 0x1823 JUMPI RETURNDATASIZE PUSH1 0x0 DUP1 RETURNDATACOPY RETURNDATASIZE PUSH1 0x0 REVERT JUMPDEST POP POP POP POP PUSH1 0x40 MLOAD RETURNDATASIZE PUSH1 0x1F NOT PUSH1 0x1F DUP3 ADD AND DUP3 ADD DUP1 PUSH1 0x40 MSTORE POP DUP2 ADD SWAP1 PUSH2 0x1847 SWAP2 SWAP1 PUSH2 0x2E6C JUMP JUMPDEST PUSH1 0x1 PUSH1 0x1 PUSH1 0xA0 SHL SUB DUP1 DUP5 AND PUSH1 0x0 SWAP1 DUP2 MSTORE PUSH1 0x1 PUSH1 0x20 SWAP1 DUP2 MSTORE PUSH1 0x40 DUP1 DUP4 KECCAK256 SWAP4 DUP9 AND DUP4 MSTORE SWAP3 SWAP1 MSTORE KECCAK256 SLOAD PUSH2 0x1877 SWAP2 SWAP1 PUSH2 0x2F98 JUMP JUMPDEST SWAP4 SWAP3 POP POP POP JUMP JUMPDEST PUSH1 0x1 PUSH1 0x1 PUSH1 0xA0 SHL SUB DUP2 DUP2 AND PUSH1 0x0 SWAP1 DUP2 MSTORE PUSH1 0x2 PUSH1 0x20 DUP2 SWAP1 MSTORE PUSH1 0x40 SWAP1 SWAP2 KECCAK256 ADD SLOAD DUP3 SWAP2 AND CALLER EQ PUSH2 0x18C0 JUMPI PUSH1 0x40 MLOAD PUSH4 0x472511EB PUSH1 0xE1 SHL DUP2 MSTORE CALLER PUSH1 0x4 DUP3 ADD MSTORE PUSH1 0x24 ADD PUSH2 0x448 JUMP JUMPDEST PUSH1 0x1 PUSH1 0x1 PUSH1 0xA0 SHL SUB DUP1 DUP4 AND PUSH1 0x0 DUP2 DUP2 MSTORE PUSH1 0x2 PUSH1 0x20 DUP2 SWAP1 MSTORE PUSH1 0x40 DUP1 DUP4 KECCAK256 SWAP2 DUP3 ADD DUP1 SLOAD PUSH1 0x1 PUSH1 0x1 PUSH1 0xA0 SHL SUB NOT AND SWAP1 SSTORE PUSH1 0x1 SWAP1 SWAP2 ADD SLOAD SWAP1 MLOAD CALLER SWAP5 SWAP2 SWAP1 SWAP2 AND SWAP3 SWAP2 PUSH32 0x943D69CF2BBE08A9D44B3C4CE6DA17D939D758739370620871CE99A6437866D0 SWAP2 LOG4 POP PUSH1 0x1 PUSH1 0x1 PUSH1 0xA0 SHL SUB AND PUSH1 0x0 SWAP1 DUP2 MSTORE PUSH1 0x2 PUSH1 0x20 MSTORE PUSH1 0x40 SWAP1 KECCAK256 PUSH1 0x1 ADD DUP1 SLOAD PUSH1 0x1 PUSH1 0x1 PUSH1 0xA0 SHL SUB NOT AND CALLER OR SWAP1 SSTORE JUMP JUMPDEST PUSH1 0x1 PUSH1 0x1 PUSH1 0xA0 SHL SUB DUP3 DUP2 AND PUSH1 0x0 SWAP1 DUP2 MSTORE PUSH1 0x2 PUSH1 0x20 MSTORE PUSH1 0x40 SWAP1 KECCAK256 PUSH1 0x1 ADD SLOAD DUP4 SWAP2 AND CALLER EQ PUSH2 0x198E JUMPI PUSH1 0x40 MLOAD PUSH4 0x472511EB PUSH1 0xE1 SHL DUP2 MSTORE CALLER PUSH1 0x4 DUP3 ADD MSTORE PUSH1 0x24 ADD PUSH2 0x448 JUMP JUMPDEST DUP2 PUSH1 0x1 PUSH1 0x1 PUSH1 0xA0 SHL SUB DUP2 AND PUSH2 0x19C1 JUMPI PUSH1 0x40 MLOAD PUSH4 0xC3691307 PUSH1 0xE0 SHL DUP2 MSTORE PUSH1 0x1 PUSH1 0x1 PUSH1 0xA0 SHL SUB DUP3 AND PUSH1 0x4 DUP3 ADD MSTORE PUSH1 0x24 ADD PUSH2 0x448 JUMP JUMPDEST PUSH1 0x1 PUSH1 0x1 PUSH1 0xA0 SHL SUB DUP5 DUP2 AND PUSH1 0x0 DUP2 DUP2 MSTORE PUSH1 0x2 PUSH1 0x20 DUP2 SWAP1 MSTORE PUSH1 0x40 DUP1 DUP4 KECCAK256 SWAP1 SWAP2 ADD DUP1 SLOAD PUSH1 0x1 PUSH1 0x1 PUSH1 0xA0 SHL SUB NOT AND SWAP5 DUP9 AND SWAP5 DUP6 OR SWAP1 SSTORE MLOAD PUSH32 0x107CF6EA8668D533DF1AAB5BB8B6315BB0C25F0B6C955558D09368F290668FC7 SWAP2 SWAP1 LOG3 POP POP POP POP JUMP JUMPDEST DUP6 DUP6 DUP1 DUP1 PUSH1 0x20 MUL PUSH1 0x20 ADD PUSH1 0x40 MLOAD SWAP1 DUP2 ADD PUSH1 0x40 MSTORE DUP1 SWAP4 SWAP3 SWAP2 SWAP1 DUP2 DUP2 MSTORE PUSH1 0x20 ADD DUP4 DUP4 PUSH1 0x20 MUL DUP1 DUP3 DUP5 CALLDATACOPY PUSH1 0x0 SWAP3 ADD SWAP2 SWAP1 SWAP2 MSTORE POP POP PUSH1 0x40 DUP1 MLOAD PUSH1 0x20 DUP1 DUP10 MUL DUP3 DUP2 ADD DUP3 ADD SWAP1 SWAP4 MSTORE DUP9 DUP3 MSTORE SWAP1 SWAP4 POP DUP9 SWAP3 POP DUP8 SWAP2 DUP3 SWAP2 DUP6 ADD SWAP1 DUP5 SWAP1 DUP1 DUP3 DUP5 CALLDATACOPY PUSH1 0x0 SWAP3 ADD SWAP2 SWAP1 SWAP2 MSTORE POP POP DUP4 MLOAD DUP7 SWAP3 POP PUSH1 0x2 GT ISZERO SWAP1 POP PUSH2 0x1AAE JUMPI DUP3 MLOAD PUSH1 0x40 MLOAD PUSH4 0xE8C6265 PUSH1 0xE4 SHL DUP2 MSTORE PUSH1 0x4 ADD PUSH2 0x448 SWAP2 DUP2 MSTORE PUSH1 0x20 ADD SWAP1 JUMP JUMPDEST DUP2 MLOAD DUP4 MLOAD EQ PUSH2 0x1ADD JUMPI DUP3 MLOAD DUP3 MLOAD PUSH1 0x40 MLOAD PUSH4 0xB34F351D PUSH1 0xE0 SHL DUP2 MSTORE PUSH1 0x4 DUP2 ADD SWAP3 SWAP1 SWAP3 MSTORE PUSH1 0x24 DUP3 ADD MSTORE PUSH1 0x44 ADD PUSH2 0x448 JUMP JUMPDEST PUSH3 0xF4240 PUSH2 0x1AEA DUP4 PUSH2 0x2020 JUMP JUMPDEST PUSH4 0xFFFFFFFF AND EQ PUSH2 0x1AFE JUMPI PUSH2 0x585 DUP3 PUSH2 0x2020 JUMP JUMPDEST DUP3 MLOAD PUSH1 0x0 NOT ADD PUSH1 0x0 JUMPDEST DUP2 DUP2 LT ISZERO PUSH2 0x1BF5 JUMPI DUP5 DUP2 PUSH1 0x1 ADD DUP2 MLOAD DUP2 LT PUSH2 0x1B32 JUMPI PUSH4 0x4E487B71 PUSH1 0xE0 SHL PUSH1 0x0 MSTORE PUSH1 0x32 PUSH1 0x4 MSTORE PUSH1 0x24 PUSH1 0x0 REVERT JUMPDEST PUSH1 0x20 MUL PUSH1 0x20 ADD ADD MLOAD PUSH1 0x1 PUSH1 0x1 PUSH1 0xA0 SHL SUB AND DUP6 DUP3 DUP2 MLOAD DUP2 LT PUSH2 0x1B63 JUMPI PUSH4 0x4E487B71 PUSH1 0xE0 SHL PUSH1 0x0 MSTORE PUSH1 0x32 PUSH1 0x4 MSTORE PUSH1 0x24 PUSH1 0x0 REVERT JUMPDEST PUSH1 0x20 MUL PUSH1 0x20 ADD ADD MLOAD PUSH1 0x1 PUSH1 0x1 PUSH1 0xA0 SHL SUB AND LT PUSH2 0x1B95 JUMPI PUSH1 0x40 MLOAD PUSH4 0xAC6BD233 PUSH1 0xE0 SHL DUP2 MSTORE PUSH1 0x4 DUP2 ADD DUP3 SWAP1 MSTORE PUSH1 0x24 ADD PUSH2 0x448 JUMP JUMPDEST PUSH1 0x0 PUSH4 0xFFFFFFFF AND DUP5 DUP3 DUP2 MLOAD DUP2 LT PUSH2 0x1BBD JUMPI PUSH4 0x4E487B71 PUSH1 0xE0 SHL PUSH1 0x0 MSTORE PUSH1 0x32 PUSH1 0x4 MSTORE PUSH1 0x24 PUSH1 0x0 REVERT JUMPDEST PUSH1 0x20 MUL PUSH1 0x20 ADD ADD MLOAD PUSH4 0xFFFFFFFF AND EQ ISZERO PUSH2 0x1BED JUMPI PUSH1 0x40 MLOAD PUSH4 0xDB7E4C7 PUSH1 0xE0 SHL DUP2 MSTORE PUSH1 0x4 DUP2 ADD DUP3 SWAP1 MSTORE PUSH1 0x24 ADD PUSH2 0x448 JUMP JUMPDEST PUSH1 0x1 ADD PUSH2 0x1B07 JUMP JUMPDEST POP PUSH1 0x0 PUSH4 0xFFFFFFFF AND DUP4 DUP3 DUP2 MLOAD DUP2 LT PUSH2 0x1C1E JUMPI PUSH4 0x4E487B71 PUSH1 0xE0 SHL PUSH1 0x0 MSTORE PUSH1 0x32 PUSH1 0x4 MSTORE PUSH1 0x24 PUSH1 0x0 REVERT JUMPDEST PUSH1 0x20 MUL PUSH1 0x20 ADD ADD MLOAD PUSH4 0xFFFFFFFF AND EQ ISZERO PUSH2 0x1C4E JUMPI PUSH1 0x40 MLOAD PUSH4 0xDB7E4C7 PUSH1 0xE0 SHL DUP2 MSTORE PUSH1 0x4 DUP2 ADD DUP3 SWAP1 MSTORE PUSH1 0x24 ADD PUSH2 0x448 JUMP JUMPDEST POP PUSH3 0x186A0 DUP2 PUSH4 0xFFFFFFFF AND GT ISZERO PUSH2 0x1C81 JUMPI PUSH1 0x40 MLOAD PUSH4 0x308440E3 PUSH1 0xE2 SHL DUP2 MSTORE PUSH4 0xFFFFFFFF DUP3 AND PUSH1 0x4 DUP3 ADD MSTORE PUSH1 0x24 ADD PUSH2 0x448 JUMP JUMPDEST PUSH2 0x1CF1 DUP11 DUP11 DUP11 DUP1 DUP1 PUSH1 0x20 MUL PUSH1 0x20 ADD PUSH1 0x40 MLOAD SWAP1 DUP2 ADD PUSH1 0x40 MSTORE DUP1 SWAP4 SWAP3 SWAP2 SWAP1 DUP2 DUP2 MSTORE PUSH1 0x20 ADD DUP4 DUP4 PUSH1 0x20 MUL DUP1 DUP3 DUP5 CALLDATACOPY PUSH1 0x0 SWAP3 ADD SWAP2 SWAP1 SWAP2 MSTORE POP POP PUSH1 0x40 DUP1 MLOAD PUSH1 0x20 DUP1 DUP15 MUL DUP3 DUP2 ADD DUP3 ADD SWAP1 SWAP4 MSTORE DUP14 DUP3 MSTORE SWAP1 SWAP4 POP DUP14 SWAP3 POP DUP13 SWAP2 DUP3 SWAP2 DUP6 ADD SWAP1 DUP5 SWAP1 DUP1 DUP3 DUP5 CALLDATACOPY PUSH1 0x0 SWAP3 ADD SWAP2 SWAP1 SWAP2 MSTORE POP DUP12 SWAP3 POP PUSH2 0x2073 SWAP2 POP POP JUMP JUMPDEST PUSH2 0x1D63 DUP11 DUP11 DUP11 DUP1 DUP1 PUSH1 0x20 MUL PUSH1 0x20 ADD PUSH1 0x40 MLOAD SWAP1 DUP2 ADD PUSH1 0x40 MSTORE DUP1 SWAP4 SWAP3 SWAP2 SWAP1 DUP2 DUP2 MSTORE PUSH1 0x20 ADD DUP4 DUP4 PUSH1 0x20 MUL DUP1 DUP3 DUP5 CALLDATACOPY PUSH1 0x0 SWAP3 ADD SWAP2 SWAP1 SWAP2 MSTORE POP POP PUSH1 0x40 DUP1 MLOAD PUSH1 0x20 DUP1 DUP15 MUL DUP3 DUP2 ADD DUP3 ADD SWAP1 SWAP4 MSTORE DUP14 DUP3 MSTORE SWAP1 SWAP4 POP DUP14 SWAP3 POP DUP13 SWAP2 DUP3 SWAP2 DUP6 ADD SWAP1 DUP5 SWAP1 DUP1 DUP3 DUP5 CALLDATACOPY PUSH1 0x0 SWAP3 ADD SWAP2 SWAP1 SWAP2 MSTORE POP DUP12 SWAP3 POP DUP11 SWAP2 POP PUSH2 0x2758 SWAP1 POP JUMP JUMPDEST POP POP POP POP POP POP POP POP POP POP JUMP JUMPDEST PUSH1 0x1 PUSH1 0x1 PUSH1 0xA0 SHL SUB DUP7 DUP2 AND PUSH1 0x0 SWAP1 DUP2 MSTORE PUSH1 0x2 PUSH1 0x20 MSTORE PUSH1 0x40 SWAP1 KECCAK256 PUSH1 0x1 ADD SLOAD DUP8 SWAP2 AND CALLER EQ PUSH2 0x1DB0 JUMPI PUSH1 0x40 MLOAD PUSH4 0x472511EB PUSH1 0xE1 SHL DUP2 MSTORE CALLER PUSH1 0x4 DUP3 ADD MSTORE PUSH1 0x24 ADD PUSH2 0x448 JUMP JUMPDEST DUP6 DUP6 DUP1 DUP1 PUSH1 0x20 MUL PUSH1 0x20 ADD PUSH1 0x40 MLOAD SWAP1 DUP2 ADD PUSH1 0x40 MSTORE DUP1 SWAP4 SWAP3 SWAP2 SWAP1 DUP2 DUP2 MSTORE PUSH1 0x20 ADD DUP4 DUP4 PUSH1 0x20 MUL DUP1 DUP3 DUP5 CALLDATACOPY PUSH1 0x0 SWAP3 ADD SWAP2 SWAP1 SWAP2 MSTORE POP POP PUSH1 0x40 DUP1 MLOAD PUSH1 0x20 DUP1 DUP10 MUL DUP3 DUP2 ADD DUP3 ADD SWAP1 SWAP4 MSTORE DUP9 DUP3 MSTORE SWAP1 SWAP4 POP DUP9 SWAP3 POP DUP8 SWAP2 DUP3 SWAP2 DUP6 ADD SWAP1 DUP5 SWAP1 DUP1 DUP3 DUP5 CALLDATACOPY PUSH1 0x0 SWAP3 ADD SWAP2 SWAP1 SWAP2 MSTORE POP POP DUP4 MLOAD DUP7 SWAP3 POP PUSH1 0x2 GT ISZERO SWAP1 POP PUSH2 0x1E3F JUMPI DUP3 MLOAD PUSH1 0x40 MLOAD PUSH4 0xE8C6265 PUSH1 0xE4 SHL DUP2 MSTORE PUSH1 0x4 ADD PUSH2 0x448 SWAP2 DUP2 MSTORE PUSH1 0x20 ADD SWAP1 JUMP JUMPDEST DUP2 MLOAD DUP4 MLOAD EQ PUSH2 0x1E6E JUMPI DUP3 MLOAD DUP3 MLOAD PUSH1 0x40 MLOAD PUSH4 0xB34F351D PUSH1 0xE0 SHL DUP2 MSTORE PUSH1 0x4 DUP2 ADD SWAP3 SWAP1 SWAP3 MSTORE PUSH1 0x24 DUP3 ADD MSTORE PUSH1 0x44 ADD PUSH2 0x448 JUMP JUMPDEST PUSH3 0xF4240 PUSH2 0x1E7B DUP4 PUSH2 0x2020 JUMP JUMPDEST PUSH4 0xFFFFFFFF AND EQ PUSH2 0x1E8F JUMPI PUSH2 0x585 DUP3 PUSH2 0x2020 JUMP JUMPDEST DUP3 MLOAD PUSH1 0x0 NOT ADD PUSH1 0x0 JUMPDEST DUP2 DUP2 LT ISZERO PUSH2 0x1F86 JUMPI DUP5 DUP2 PUSH1 0x1 ADD DUP2 MLOAD DUP2 LT PUSH2 0x1EC3 JUMPI PUSH4 0x4E487B71 PUSH1 0xE0 SHL PUSH1 0x0 MSTORE PUSH1 0x32 PUSH1 0x4 MSTORE PUSH1 0x24 PUSH1 0x0 REVERT JUMPDEST PUSH1 0x20 MUL PUSH1 0x20 ADD ADD MLOAD PUSH1 0x1 PUSH1 0x1 PUSH1 0xA0 SHL SUB AND DUP6 DUP3 DUP2 MLOAD DUP2 LT PUSH2 0x1EF4 JUMPI PUSH4 0x4E487B71 PUSH1 0xE0 SHL PUSH1 0x0 MSTORE PUSH1 0x32 PUSH1 0x4 MSTORE PUSH1 0x24 PUSH1 0x0 REVERT JUMPDEST PUSH1 0x20 MUL PUSH1 0x20 ADD ADD MLOAD PUSH1 0x1 PUSH1 0x1 PUSH1 0xA0 SHL SUB AND LT PUSH2 0x1F26 JUMPI PUSH1 0x40 MLOAD PUSH4 0xAC6BD233 PUSH1 0xE0 SHL DUP2 MSTORE PUSH1 0x4 DUP2 ADD DUP3 SWAP1 MSTORE PUSH1 0x24 ADD PUSH2 0x448 JUMP JUMPDEST PUSH1 0x0 PUSH4 0xFFFFFFFF AND DUP5 DUP3 DUP2 MLOAD DUP2 LT PUSH2 0x1F4E JUMPI PUSH4 0x4E487B71 PUSH1 0xE0 SHL PUSH1 0x0 MSTORE PUSH1 0x32 PUSH1 0x4 MSTORE PUSH1 0x24 PUSH1 0x0 REVERT JUMPDEST PUSH1 0x20 MUL PUSH1 0x20 ADD ADD MLOAD PUSH4 0xFFFFFFFF AND EQ ISZERO PUSH2 0x1F7E JUMPI PUSH1 0x40 MLOAD PUSH4 0xDB7E4C7 PUSH1 0xE0 SHL DUP2 MSTORE PUSH1 0x4 DUP2 ADD DUP3 SWAP1 MSTORE PUSH1 0x24 ADD PUSH2 0x448 JUMP JUMPDEST PUSH1 0x1 ADD PUSH2 0x1E98 JUMP JUMPDEST POP PUSH1 0x0 PUSH4 0xFFFFFFFF AND DUP4 DUP3 DUP2 MLOAD DUP2 LT PUSH2 0x1FAF JUMPI PUSH4 0x4E487B71 PUSH1 0xE0 SHL PUSH1 0x0 MSTORE PUSH1 0x32 PUSH1 0x4 MSTORE PUSH1 0x24 PUSH1 0x0 REVERT JUMPDEST PUSH1 0x20 MUL PUSH1 0x20 ADD ADD MLOAD PUSH4 0xFFFFFFFF AND EQ ISZERO PUSH2 0x1FDF JUMPI PUSH1 0x40 MLOAD PUSH4 0xDB7E4C7 PUSH1 0xE0 SHL DUP2 MSTORE PUSH1 0x4 DUP2 ADD DUP3 SWAP1 MSTORE PUSH1 0x24 ADD PUSH2 0x448 JUMP JUMPDEST POP PUSH3 0x186A0 DUP2 PUSH4 0xFFFFFFFF AND GT ISZERO PUSH2 0x2012 JUMPI PUSH1 0x40 MLOAD PUSH4 0x308440E3 PUSH1 0xE2 SHL DUP2 MSTORE PUSH4 0xFFFFFFFF DUP3 AND PUSH1 0x4 DUP3 ADD MSTORE PUSH1 0x24 ADD PUSH2 0x448 JUMP JUMPDEST PUSH2 0x1D63 DUP11 DUP11 DUP11 DUP11 DUP11 DUP11 PUSH2 0x2698 JUMP JUMPDEST DUP1 MLOAD PUSH1 0x0 SWAP1 DUP2 JUMPDEST DUP2 DUP2 LT ISZERO PUSH2 0x206C JUMPI DUP4 DUP2 DUP2 MLOAD DUP2 LT PUSH2 0x204F JUMPI PUSH4 0x4E487B71 PUSH1 0xE0 SHL PUSH1 0x0 MSTORE PUSH1 0x32 PUSH1 0x4 MSTORE PUSH1 0x24 PUSH1 0x0 REVERT JUMPDEST PUSH1 0x20 MUL PUSH1 0x20 ADD ADD MLOAD DUP4 PUSH2 0x2062 SWAP2 SWAP1 PUSH2 0x2FB0 JUMP JUMPDEST SWAP3 POP PUSH1 0x1 ADD PUSH2 0x2027 JUMP JUMPDEST POP POP SWAP2 SWAP1 POP JUMP JUMPDEST PUSH1 0x0 PUSH2 0x2080 DUP5 DUP5 DUP5 PUSH2 0x239F JUMP JUMPDEST PUSH1 0x1 PUSH1 0x1 PUSH1 0xA0 SHL SUB DUP7 AND PUSH1 0x0 SWAP1 DUP2 MSTORE PUSH1 0x2 PUSH1 0x20 MSTORE PUSH1 0x40 SWAP1 KECCAK256 SLOAD SWAP1 SWAP2 POP DUP2 EQ PUSH2 0x20BE JUMPI PUSH1 0x40 MLOAD PUSH4 0xDD5FF457 PUSH1 0xE0 SHL DUP2 MSTORE PUSH1 0x4 DUP2 ADD DUP3 SWAP1 MSTORE PUSH1 0x24 ADD PUSH2 0x448 JUMP JUMPDEST POP POP POP POP POP JUMP JUMPDEST PUSH1 0x1 PUSH1 0x1 PUSH1 0xA0 SHL SUB DUP6 DUP2 AND PUSH1 0x0 DUP2 DUP2 MSTORE PUSH1 0x1 PUSH1 0x20 SWAP1 DUP2 MSTORE PUSH1 0x40 DUP1 DUP4 KECCAK256 SWAP5 DUP12 AND DUP1 DUP5 MSTORE SWAP5 SWAP1 SWAP2 MSTORE DUP1 DUP3 KECCAK256 SLOAD SWAP1 MLOAD PUSH4 0x70A08231 PUSH1 0xE0 SHL DUP2 MSTORE PUSH1 0x4 DUP2 ADD SWAP5 SWAP1 SWAP5 MSTORE SWAP1 SWAP3 SWAP1 SWAP2 DUP4 SWAP2 PUSH4 0x70A08231 SWAP1 PUSH1 0x24 ADD PUSH1 0x20 PUSH1 0x40 MLOAD DUP1 DUP4 SUB DUP2 DUP7 DUP1 EXTCODESIZE ISZERO DUP1 ISZERO PUSH2 0x212A JUMPI PUSH1 0x0 DUP1 REVERT JUMPDEST POP GAS STATICCALL ISZERO DUP1 ISZERO PUSH2 0x213E JUMPI RETURNDATASIZE PUSH1 0x0 DUP1 RETURNDATACOPY RETURNDATASIZE PUSH1 0x0 REVERT JUMPDEST POP POP POP POP PUSH1 0x40 MLOAD RETURNDATASIZE PUSH1 0x1F NOT PUSH1 0x1F DUP3 ADD AND DUP3 ADD DUP1 PUSH1 0x40 MSTORE POP DUP2 ADD SWAP1 PUSH2 0x2162 SWAP2 SWAP1 PUSH2 0x2E6C JUMP JUMPDEST SWAP1 POP DUP1 ISZERO PUSH2 0x216F JUMPI PUSH1 0x0 NOT ADD JUMPDEST DUP2 ISZERO PUSH2 0x217C JUMPI PUSH1 0x1 DUP3 SUB SWAP2 POP JUMPDEST DUP2 DUP2 ADD SWAP3 POP DUP2 ISZERO PUSH2 0x21B0 JUMPI PUSH1 0x1 PUSH1 0x1 PUSH1 0xA0 SHL SUB DUP1 DUP10 AND PUSH1 0x0 SWAP1 DUP2 MSTORE PUSH1 0x1 PUSH1 0x20 DUP2 DUP2 MSTORE PUSH1 0x40 DUP1 DUP5 KECCAK256 SWAP5 DUP15 AND DUP5 MSTORE SWAP4 SWAP1 MSTORE SWAP2 SWAP1 KECCAK256 SSTORE JUMPDEST DUP4 PUSH1 0x1 PUSH1 0x1 PUSH1 0xA0 SHL SUB AND DUP9 PUSH1 0x1 PUSH1 0x1 PUSH1 0xA0 SHL SUB AND DUP11 PUSH1 0x1 PUSH1 0x1 PUSH1 0xA0 SHL SUB AND PUSH32 0xB5EE5DC3D2C31A019BBF2C787E0E9C97971C96ACEEA1C38C12FC8FD25C536D46 DUP7 PUSH1 0x40 MLOAD PUSH2 0x21FF SWAP2 DUP2 MSTORE PUSH1 0x20 ADD SWAP1 JUMP JUMPDEST PUSH1 0x40 MLOAD DUP1 SWAP2 SUB SWAP1 LOG4 PUSH4 0xFFFFFFFF DUP6 AND ISZERO PUSH2 0x2271 JUMPI PUSH1 0x1 PUSH1 0x1 PUSH1 0xA0 SHL SUB DUP9 DUP2 AND PUSH1 0x0 SWAP1 DUP2 MSTORE PUSH1 0x1 PUSH1 0x20 MSTORE PUSH1 0x40 DUP2 KECCAK256 PUSH3 0xF4240 PUSH4 0xFFFFFFFF DUP10 AND DUP8 MUL DIV SWAP3 DUP4 SWAP3 SWAP1 DUP9 AND PUSH2 0x224A JUMPI CALLER PUSH2 0x224C JUMP JUMPDEST DUP8 JUMPDEST PUSH1 0x1 PUSH1 0x1 PUSH1 0xA0 SHL SUB AND DUP2 MSTORE PUSH1 0x20 DUP2 ADD SWAP2 SWAP1 SWAP2 MSTORE PUSH1 0x40 ADD PUSH1 0x0 KECCAK256 DUP1 SLOAD SWAP1 SWAP2 ADD SWAP1 SSTORE SWAP1 SWAP3 SUB SWAP2 JUMPDEST DUP7 MLOAD PUSH1 0x0 JUMPDEST DUP2 DUP2 LT ISZERO PUSH2 0x2329 JUMPI PUSH2 0x22BA DUP6 DUP10 DUP4 DUP2 MLOAD DUP2 LT PUSH2 0x22A2 JUMPI PUSH4 0x4E487B71 PUSH1 0xE0 SHL PUSH1 0x0 MSTORE PUSH1 0x32 PUSH1 0x4 MSTORE PUSH1 0x24 PUSH1 0x0 REVERT JUMPDEST PUSH1 0x20 MUL PUSH1 0x20 ADD ADD MLOAD PUSH4 0xFFFFFFFF AND PUSH3 0xF4240 SWAP2 MUL DIV SWAP1 JUMP JUMPDEST PUSH1 0x1 PUSH1 0x1 PUSH1 0xA0 SHL SUB DUP12 AND PUSH1 0x0 SWAP1 DUP2 MSTORE PUSH1 0x1 PUSH1 0x20 MSTORE PUSH1 0x40 DUP2 KECCAK256 DUP12 MLOAD SWAP1 SWAP2 SWAP1 DUP13 SWAP1 DUP6 SWAP1 DUP2 LT PUSH2 0x22F7 JUMPI PUSH4 0x4E487B71 PUSH1 0xE0 SHL PUSH1 0x0 MSTORE PUSH1 0x32 PUSH1 0x4 MSTORE PUSH1 0x24 PUSH1 0x0 REVERT JUMPDEST PUSH1 0x20 SWAP1 DUP2 MUL SWAP2 SWAP1 SWAP2 ADD DUP2 ADD MLOAD PUSH1 0x1 PUSH1 0x1 PUSH1 0xA0 SHL SUB AND DUP3 MSTORE DUP2 ADD SWAP2 SWAP1 SWAP2 MSTORE PUSH1 0x40 ADD PUSH1 0x0 KECCAK256 DUP1 SLOAD SWAP1 SWAP2 ADD SWAP1 SSTORE PUSH1 0x1 ADD PUSH2 0x2276 JUMP JUMPDEST POP POP DUP1 ISZERO PUSH2 0x2394 JUMPI PUSH1 0x40 MLOAD PUSH4 0x3E0F9FFF PUSH1 0xE1 SHL DUP2 MSTORE PUSH1 0x1 PUSH1 0x1 PUSH1 0xA0 SHL SUB DUP10 DUP2 AND PUSH1 0x4 DUP4 ADD MSTORE PUSH1 0x24 DUP3 ADD DUP4 SWAP1 MSTORE DUP11 AND SWAP1 PUSH4 0x7C1F3FFE SWAP1 PUSH1 0x44 ADD PUSH1 0x0 PUSH1 0x40 MLOAD DUP1 DUP4 SUB DUP2 PUSH1 0x0 DUP8 DUP1 EXTCODESIZE ISZERO DUP1 ISZERO PUSH2 0x237B JUMPI PUSH1 0x0 DUP1 REVERT JUMPDEST POP GAS CALL ISZERO DUP1 ISZERO PUSH2 0x238F JUMPI RETURNDATASIZE PUSH1 0x0 DUP1 RETURNDATACOPY RETURNDATASIZE PUSH1 0x0 REVERT JUMPDEST POP POP POP POP JUMPDEST POP POP POP POP POP POP POP POP POP JUMP JUMPDEST PUSH1 0x0 DUP4 DUP4 DUP4 PUSH1 0x40 MLOAD PUSH1 0x20 ADD PUSH2 0x23B6 SWAP4 SWAP3 SWAP2 SWAP1 PUSH2 0x2E84 JUMP JUMPDEST PUSH1 0x40 MLOAD PUSH1 0x20 DUP2 DUP4 SUB SUB DUP2 MSTORE SWAP1 PUSH1 0x40 MSTORE DUP1 MLOAD SWAP1 PUSH1 0x20 ADD KECCAK256 SWAP1 POP SWAP4 SWAP3 POP POP POP JUMP JUMPDEST PUSH1 0x0 PUSH2 0x1877 DUP4 DUP4 ADDRESS PUSH1 0x40 MLOAD PUSH19 0x3D605D80600A3D3981F336603057343D52307F PUSH1 0x68 SHL DUP2 MSTORE PUSH32 0x830D2D700A97AF574B186C80D40429385D24241565B08A7C559BA283A964D9B1 PUSH1 0x13 DUP3 ADD MSTORE PUSH19 0x60203DA23D3DF35B3D3D3D3D363D3D37363D73 PUSH1 0x68 SHL PUSH1 0x33 DUP3 ADD MSTORE PUSH1 0x60 SWAP4 DUP5 SHL PUSH1 0x46 DUP3 ADD MSTORE PUSH14 0x5AF43D3D93803E605B57FD5BF3FF PUSH1 0x90 SHL PUSH1 0x5A DUP3 ADD MSTORE SWAP3 SHL PUSH1 0x68 DUP4 ADD MSTORE PUSH1 0x7C DUP3 ADD MSTORE PUSH1 0x67 DUP1 DUP3 KECCAK256 PUSH1 0x9C DUP4 ADD MSTORE PUSH1 0x55 SWAP2 ADD KECCAK256 SWAP1 JUMP JUMPDEST PUSH1 0x1 PUSH1 0x1 PUSH1 0xA0 SHL SUB DUP2 AND PUSH1 0x0 SWAP1 DUP2 MSTORE PUSH1 0x20 DUP2 SWAP1 MSTORE PUSH1 0x40 DUP2 KECCAK256 SLOAD PUSH2 0x249F SWAP1 PUSH1 0x1 SWAP1 PUSH2 0x2FD8 JUMP JUMPDEST PUSH1 0x1 PUSH1 0x1 PUSH1 0xA0 SHL SUB DUP4 AND PUSH1 0x0 DUP2 DUP2 MSTORE PUSH1 0x20 DUP2 SWAP1 MSTORE PUSH1 0x40 SWAP1 KECCAK256 PUSH1 0x1 SWAP1 SSTORE SWAP1 SWAP2 POP PUSH2 0x24C8 SWAP1 DUP3 PUSH2 0x293A JUMP JUMPDEST SWAP2 SWAP1 POP JUMP JUMPDEST PUSH1 0x1 PUSH1 0x1 PUSH1 0xA0 SHL SUB DUP1 DUP3 AND PUSH1 0x0 SWAP1 DUP2 MSTORE PUSH1 0x1 PUSH1 0x20 DUP2 DUP2 MSTORE PUSH1 0x40 DUP1 DUP5 KECCAK256 SWAP5 DUP8 AND DUP5 MSTORE SWAP4 SWAP1 MSTORE SWAP2 DUP2 KECCAK256 SLOAD SWAP1 SWAP2 PUSH2 0x2500 SWAP2 PUSH2 0x2FD8 JUMP JUMPDEST PUSH1 0x1 PUSH1 0x1 PUSH1 0xA0 SHL SUB DUP1 DUP5 AND PUSH1 0x0 DUP2 DUP2 MSTORE PUSH1 0x1 PUSH1 0x20 DUP2 DUP2 MSTORE PUSH1 0x40 DUP1 DUP5 KECCAK256 SWAP6 DUP11 AND DUP5 MSTORE SWAP5 SWAP1 MSTORE SWAP3 SWAP1 KECCAK256 SWAP2 SWAP1 SWAP2 SSTORE SWAP1 SWAP2 POP PUSH2 0x938 SWAP1 DUP5 DUP4 PUSH2 0x2990 JUMP JUMPDEST PUSH1 0x0 PUSH1 0x40 MLOAD PUSH19 0x3D605D80600A3D3981F336603057343D52307F PUSH1 0x68 SHL DUP2 MSTORE PUSH32 0x830D2D700A97AF574B186C80D40429385D24241565B08A7C559BA283A964D9B1 PUSH1 0x13 DUP3 ADD MSTORE PUSH19 0x60203DA23D3DF35B3D3D3D3D363D3D37363D73 PUSH1 0x68 SHL PUSH1 0x33 DUP3 ADD MSTORE DUP4 PUSH1 0x60 SHL PUSH1 0x46 DUP3 ADD MSTORE PUSH13 0x5AF43D3D93803E605B57FD5BF3 PUSH1 0x98 SHL PUSH1 0x5A DUP3 ADD MSTORE DUP3 PUSH1 0x67 DUP3 PUSH1 0x0 CREATE2 SWAP2 POP POP PUSH1 0x1 PUSH1 0x1 PUSH1 0xA0 SHL SUB DUP2 AND PUSH2 0x938 JUMPI PUSH1 0x40 MLOAD PUSH4 0x380BBE13 PUSH1 0xE0 SHL DUP2 MSTORE PUSH1 0x4 ADD PUSH1 0x40 MLOAD DUP1 SWAP2 SUB SWAP1 REVERT JUMPDEST PUSH1 0x0 PUSH1 0x40 MLOAD PUSH19 0x3D605D80600A3D3981F336603057343D52307F PUSH1 0x68 SHL DUP2 MSTORE PUSH32 0x830D2D700A97AF574B186C80D40429385D24241565B08A7C559BA283A964D9B1 PUSH1 0x13 DUP3 ADD MSTORE PUSH19 0x60203DA23D3DF35B3D3D3D3D363D3D37363D73 PUSH1 0x68 SHL PUSH1 0x33 DUP3 ADD MSTORE DUP3 PUSH1 0x60 SHL PUSH1 0x46 DUP3 ADD MSTORE PUSH13 0x5AF43D3D93803E605B57FD5BF3 PUSH1 0x98 SHL PUSH1 0x5A DUP3 ADD MSTORE PUSH1 0x67 DUP2 PUSH1 0x0 CREATE SWAP2 POP POP PUSH1 0x1 PUSH1 0x1 PUSH1 0xA0 SHL SUB DUP2 AND PUSH2 0x24C8 JUMPI PUSH1 0x40 MLOAD PUSH4 0x985DA9B PUSH1 0xE4 SHL DUP2 MSTORE PUSH1 0x4 ADD PUSH1 0x40 MLOAD DUP1 SWAP2 SUB SWAP1 REVERT JUMPDEST PUSH1 0x0 PUSH2 0x2709 DUP7 DUP7 DUP1 DUP1 PUSH1 0x20 MUL PUSH1 0x20 ADD PUSH1 0x40 MLOAD SWAP1 DUP2 ADD PUSH1 0x40 MSTORE DUP1 SWAP4 SWAP3 SWAP2 SWAP1 DUP2 DUP2 MSTORE PUSH1 0x20 ADD DUP4 DUP4 PUSH1 0x20 MUL DUP1 DUP3 DUP5 CALLDATACOPY PUSH1 0x0 SWAP3 ADD SWAP2 SWAP1 SWAP2 MSTORE POP POP PUSH1 0x40 DUP1 MLOAD PUSH1 0x20 DUP1 DUP11 MUL DUP3 DUP2 ADD DUP3 ADD SWAP1 SWAP4 MSTORE DUP10 DUP3 MSTORE SWAP1 SWAP4 POP DUP10 SWAP3 POP DUP9 SWAP2 DUP3 SWAP2 DUP6 ADD SWAP1 DUP5 SWAP1 DUP1 DUP3 DUP5 CALLDATACOPY PUSH1 0x0 SWAP3 ADD SWAP2 SWAP1 SWAP2 MSTORE POP DUP8 SWAP3 POP PUSH2 0x239F SWAP2 POP POP JUMP JUMPDEST PUSH1 0x1 PUSH1 0x1 PUSH1 0xA0 SHL SUB DUP9 AND PUSH1 0x0 DUP2 DUP2 MSTORE PUSH1 0x2 PUSH1 0x20 MSTORE PUSH1 0x40 DUP1 DUP3 KECCAK256 DUP5 SWAP1 SSTORE MLOAD SWAP3 SWAP4 POP SWAP1 SWAP2 PUSH32 0x45E1E99513DD915AC128B94953CA64C6375717EA1894B3114DB08CDCA51DEBD2 SWAP2 SWAP1 LOG2 POP POP POP POP POP POP POP JUMP JUMPDEST PUSH1 0x1 PUSH1 0x1 PUSH1 0xA0 SHL SUB DUP6 AND PUSH1 0x0 DUP2 DUP2 MSTORE PUSH1 0x20 DUP2 SWAP1 MSTORE PUSH1 0x40 DUP2 KECCAK256 SLOAD SWAP2 BALANCE SWAP1 DUP3 ISZERO PUSH2 0x2781 JUMPI PUSH1 0x1 DUP4 SUB SWAP3 POP JUMPDEST POP DUP2 DUP2 ADD DUP3 ISZERO PUSH2 0x27A8 JUMPI PUSH1 0x1 PUSH1 0x1 PUSH1 0xA0 SHL SUB DUP9 AND PUSH1 0x0 SWAP1 DUP2 MSTORE PUSH1 0x20 DUP2 SWAP1 MSTORE PUSH1 0x40 SWAP1 KECCAK256 PUSH1 0x1 SWAP1 SSTORE JUMPDEST DUP4 PUSH1 0x1 PUSH1 0x1 PUSH1 0xA0 SHL SUB AND DUP9 PUSH1 0x1 PUSH1 0x1 PUSH1 0xA0 SHL SUB AND PUSH32 0x87C3CA0A87D9B82033E4BC55E6D30621F8D7E0C9D8CA7988EDFDE8932787B77B DUP4 PUSH1 0x40 MLOAD PUSH2 0x27ED SWAP2 DUP2 MSTORE PUSH1 0x20 ADD SWAP1 JUMP JUMPDEST PUSH1 0x40 MLOAD DUP1 SWAP2 SUB SWAP1 LOG3 PUSH4 0xFFFFFFFF DUP6 AND ISZERO PUSH2 0x284C JUMPI PUSH3 0xF4240 PUSH4 0xFFFFFFFF DUP7 AND DUP3 MUL DIV DUP1 PUSH1 0x0 DUP1 PUSH1 0x1 PUSH1 0x1 PUSH1 0xA0 SHL SUB DUP9 AND PUSH2 0x2827 JUMPI CALLER PUSH2 0x2829 JUMP JUMPDEST DUP8 JUMPDEST PUSH1 0x1 PUSH1 0x1 PUSH1 0xA0 SHL SUB AND DUP2 MSTORE PUSH1 0x20 DUP2 ADD SWAP2 SWAP1 SWAP2 MSTORE PUSH1 0x40 ADD PUSH1 0x0 KECCAK256 DUP1 SLOAD SWAP1 SWAP2 ADD SWAP1 SSTORE SWAP1 SUB JUMPDEST DUP7 MLOAD PUSH1 0x0 JUMPDEST DUP2 DUP2 LT ISZERO PUSH2 0x28D2 JUMPI PUSH2 0x287D DUP4 DUP10 DUP4 DUP2 MLOAD DUP2 LT PUSH2 0x22A2 JUMPI PUSH4 0x4E487B71 PUSH1 0xE0 SHL PUSH1 0x0 MSTORE PUSH1 0x32 PUSH1 0x4 MSTORE PUSH1 0x24 PUSH1 0x0 REVERT JUMPDEST PUSH1 0x0 DUP1 DUP12 DUP5 DUP2 MLOAD DUP2 LT PUSH2 0x28A0 JUMPI PUSH4 0x4E487B71 PUSH1 0xE0 SHL PUSH1 0x0 MSTORE PUSH1 0x32 PUSH1 0x4 MSTORE PUSH1 0x24 PUSH1 0x0 REVERT JUMPDEST PUSH1 0x20 SWAP1 DUP2 MUL SWAP2 SWAP1 SWAP2 ADD DUP2 ADD MLOAD PUSH1 0x1 PUSH1 0x1 PUSH1 0xA0 SHL SUB AND DUP3 MSTORE DUP2 ADD SWAP2 SWAP1 SWAP2 MSTORE PUSH1 0x40 ADD PUSH1 0x0 KECCAK256 DUP1 SLOAD SWAP1 SWAP2 ADD SWAP1 SSTORE PUSH1 0x1 ADD PUSH2 0x2851 JUMP JUMPDEST POP POP DUP2 ISZERO PUSH2 0x2930 JUMPI PUSH1 0x40 MLOAD PUSH4 0x2AC3AFFD PUSH1 0xE2 SHL DUP2 MSTORE PUSH1 0x4 DUP2 ADD DUP4 SWAP1 MSTORE PUSH1 0x1 PUSH1 0x1 PUSH1 0xA0 SHL SUB DUP10 AND SWAP1 PUSH4 0xAB0EBFF4 SWAP1 PUSH1 0x24 ADD PUSH1 0x0 PUSH1 0x40 MLOAD DUP1 DUP4 SUB DUP2 PUSH1 0x0 DUP8 DUP1 EXTCODESIZE ISZERO DUP1 ISZERO PUSH2 0x291C JUMPI PUSH1 0x0 DUP1 REVERT JUMPDEST POP GAS CALL ISZERO DUP1 ISZERO PUSH2 0x1479 JUMPI RETURNDATASIZE PUSH1 0x0 DUP1 RETURNDATACOPY RETURNDATASIZE PUSH1 0x0 REVERT JUMPDEST POP POP POP POP POP POP POP POP JUMP JUMPDEST PUSH1 0x0 DUP1 PUSH1 0x0 DUP1 PUSH1 0x0 DUP6 DUP8 GAS CALL SWAP1 POP DUP1 PUSH2 0x298B JUMPI PUSH1 0x40 MLOAD PUSH3 0x461BCD PUSH1 0xE5 SHL DUP2 MSTORE PUSH1 0x20 PUSH1 0x4 DUP3 ADD MSTORE PUSH1 0x13 PUSH1 0x24 DUP3 ADD MSTORE PUSH19 0x11551217D514905394D1915497D19052531151 PUSH1 0x6A SHL PUSH1 0x44 DUP3 ADD MSTORE PUSH1 0x64 ADD PUSH2 0x448 JUMP JUMPDEST POP POP POP JUMP JUMPDEST PUSH1 0x0 PUSH1 0x40 MLOAD PUSH4 0xA9059CBB PUSH1 0xE0 SHL DUP2 MSTORE PUSH1 0x1 PUSH1 0x1 PUSH1 0xA0 SHL SUB DUP5 AND PUSH1 0x4 DUP3 ADD MSTORE DUP3 PUSH1 0x24 DUP3 ADD MSTORE PUSH1 0x0 DUP1 PUSH1 0x44 DUP4 PUSH1 0x0 DUP10 GAS CALL SWAP2 POP POP PUSH2 0x29CB DUP2 PUSH2 0x2A0F JUMP JUMPDEST PUSH2 0x2A09 JUMPI PUSH1 0x40 MLOAD PUSH3 0x461BCD PUSH1 0xE5 SHL DUP2 MSTORE PUSH1 0x20 PUSH1 0x4 DUP3 ADD MSTORE PUSH1 0xF PUSH1 0x24 DUP3 ADD MSTORE PUSH15 0x1514905394D1915497D19052531151 PUSH1 0x8A SHL PUSH1 0x44 DUP3 ADD MSTORE PUSH1 0x64 ADD PUSH2 0x448 JUMP JUMPDEST POP POP POP POP JUMP JUMPDEST PUSH1 0x0 RETURNDATASIZE DUP3 PUSH2 0x2A21 JUMPI DUP1 PUSH1 0x0 DUP1 RETURNDATACOPY DUP1 PUSH1 0x0 REVERT JUMPDEST DUP1 PUSH1 0x20 DUP2 EQ PUSH2 0x2A39 JUMPI DUP1 ISZERO PUSH2 0x2A4A JUMPI PUSH1 0x0 SWAP3 POP PUSH2 0x206C JUMP JUMPDEST DUP2 PUSH1 0x0 DUP1 RETURNDATACOPY PUSH1 0x0 MLOAD ISZERO ISZERO SWAP3 POP PUSH2 0x206C JUMP JUMPDEST POP PUSH1 0x1 SWAP4 SWAP3 POP POP POP JUMP JUMPDEST PUSH1 0x0 DUP1 DUP4 PUSH1 0x1F DUP5 ADD SLT PUSH2 0x2A65 JUMPI DUP2 DUP3 REVERT JUMPDEST POP DUP2 CALLDATALOAD PUSH8 0xFFFFFFFFFFFFFFFF DUP2 GT ISZERO PUSH2 0x2A7C JUMPI DUP2 DUP3 REVERT JUMPDEST PUSH1 0x20 DUP4 ADD SWAP2 POP DUP4 PUSH1 0x20 DUP3 PUSH1 0x5 SHL DUP6 ADD ADD GT ISZERO PUSH2 0x2A97 JUMPI PUSH1 0x0 DUP1 REVERT JUMPDEST SWAP3 POP SWAP3 SWAP1 POP JUMP JUMPDEST DUP1 CALLDATALOAD PUSH4 0xFFFFFFFF DUP2 AND DUP2 EQ PUSH2 0x24C8 JUMPI PUSH1 0x0 DUP1 REVERT JUMPDEST PUSH1 0x0 PUSH1 0x20 DUP3 DUP5 SUB SLT ISZERO PUSH2 0x2AC3 JUMPI DUP1 DUP2 REVERT JUMPDEST DUP2 CALLDATALOAD PUSH2 0x1877 DUP2 PUSH2 0x3005 JUMP JUMPDEST PUSH1 0x0 DUP1 PUSH1 0x40 DUP4 DUP6 SUB SLT ISZERO PUSH2 0x2AE0 JUMPI DUP1 DUP2 REVERT JUMPDEST DUP3 CALLDATALOAD PUSH2 0x2AEB DUP2 PUSH2 0x3005 JUMP JUMPDEST SWAP2 POP PUSH1 0x20 DUP4 ADD CALLDATALOAD PUSH2 0x2AFB DUP2 PUSH2 0x3005 JUMP JUMPDEST DUP1 SWAP2 POP POP SWAP3 POP SWAP3 SWAP1 POP JUMP JUMPDEST PUSH1 0x0 DUP1 PUSH1 0x0 DUP1 PUSH1 0x0 DUP1 PUSH1 0x80 DUP8 DUP10 SUB SLT ISZERO PUSH2 0x2B1E JUMPI DUP2 DUP3 REVERT JUMPDEST DUP7 CALLDATALOAD PUSH2 0x2B29 DUP2 PUSH2 0x3005 JUMP JUMPDEST SWAP6 POP PUSH1 0x20 DUP8 ADD CALLDATALOAD PUSH8 0xFFFFFFFFFFFFFFFF DUP1 DUP3 GT ISZERO PUSH2 0x2B45 JUMPI DUP4 DUP5 REVERT JUMPDEST PUSH2 0x2B51 DUP11 DUP4 DUP12 ADD PUSH2 0x2A54 JUMP JUMPDEST SWAP1 SWAP8 POP SWAP6 POP PUSH1 0x40 DUP10 ADD CALLDATALOAD SWAP2 POP DUP1 DUP3 GT ISZERO PUSH2 0x2B69 JUMPI DUP4 DUP5 REVERT JUMPDEST POP PUSH2 0x2B76 DUP10 DUP3 DUP11 ADD PUSH2 0x2A54 JUMP JUMPDEST SWAP1 SWAP5 POP SWAP3 POP PUSH2 0x2B89 SWAP1 POP PUSH1 0x60 DUP9 ADD PUSH2 0x2A9E JUMP JUMPDEST SWAP1 POP SWAP3 SWAP6 POP SWAP3 SWAP6 POP SWAP3 SWAP6 JUMP JUMPDEST PUSH1 0x0 DUP1 PUSH1 0x0 DUP1 PUSH1 0x0 DUP1 PUSH1 0x0 PUSH1 0xA0 DUP9 DUP11 SUB SLT ISZERO PUSH2 0x2BAF JUMPI DUP1 DUP2 REVERT JUMPDEST DUP8 CALLDATALOAD PUSH2 0x2BBA DUP2 PUSH2 0x3005 JUMP JUMPDEST SWAP7 POP PUSH1 0x20 DUP9 ADD CALLDATALOAD PUSH8 0xFFFFFFFFFFFFFFFF DUP1 DUP3 GT ISZERO PUSH2 0x2BD6 JUMPI DUP3 DUP4 REVERT JUMPDEST PUSH2 0x2BE2 DUP12 DUP4 DUP13 ADD PUSH2 0x2A54 JUMP JUMPDEST SWAP1 SWAP9 POP SWAP7 POP PUSH1 0x40 DUP11 ADD CALLDATALOAD SWAP2 POP DUP1 DUP3 GT ISZERO PUSH2 0x2BFA JUMPI DUP3 DUP4 REVERT JUMPDEST POP PUSH2 0x2C07 DUP11 DUP3 DUP12 ADD PUSH2 0x2A54 JUMP JUMPDEST SWAP1 SWAP6 POP SWAP4 POP PUSH2 0x2C1A SWAP1 POP PUSH1 0x60 DUP10 ADD PUSH2 0x2A9E JUMP JUMPDEST SWAP2 POP PUSH1 0x80 DUP9 ADD CALLDATALOAD PUSH2 0x2C2A DUP2 PUSH2 0x3005 JUMP JUMPDEST DUP1 SWAP2 POP POP SWAP3 SWAP6 SWAP9 SWAP2 SWAP5 SWAP8 POP SWAP3 SWAP6 POP JUMP JUMPDEST PUSH1 0x0 DUP1 PUSH1 0x40 DUP4 DUP6 SUB SLT ISZERO PUSH2 0x2AE0 JUMPI DUP2 DUP3 REVERT JUMPDEST PUSH1 0x0 DUP1 PUSH1 0x0 DUP1 PUSH1 0x0 DUP1 PUSH1 0x0 DUP1 PUSH1 0xC0 DUP10 DUP12 SUB SLT ISZERO PUSH2 0x2C67 JUMPI DUP1 DUP2 REVERT JUMPDEST DUP9 CALLDATALOAD PUSH2 0x2C72 DUP2 PUSH2 0x3005 JUMP JUMPDEST SWAP8 POP PUSH1 0x20 DUP10 ADD CALLDATALOAD PUSH2 0x2C82 DUP2 PUSH2 0x3005 JUMP JUMPDEST SWAP7 POP PUSH1 0x40 DUP10 ADD CALLDATALOAD PUSH8 0xFFFFFFFFFFFFFFFF DUP1 DUP3 GT ISZERO PUSH2 0x2C9E JUMPI DUP3 DUP4 REVERT JUMPDEST PUSH2 0x2CAA DUP13 DUP4 DUP14 ADD PUSH2 0x2A54 JUMP JUMPDEST SWAP1 SWAP9 POP SWAP7 POP PUSH1 0x60 DUP12 ADD CALLDATALOAD SWAP2 POP DUP1 DUP3 GT ISZERO PUSH2 0x2CC2 JUMPI DUP3 DUP4 REVERT JUMPDEST POP PUSH2 0x2CCF DUP12 DUP3 DUP13 ADD PUSH2 0x2A54 JUMP JUMPDEST SWAP1 SWAP6 POP SWAP4 POP PUSH2 0x2CE2 SWAP1 POP PUSH1 0x80 DUP11 ADD PUSH2 0x2A9E JUMP JUMPDEST SWAP2 POP PUSH1 0xA0 DUP10 ADD CALLDATALOAD PUSH2 0x2CF2 DUP2 PUSH2 0x3005 JUMP JUMPDEST DUP1 SWAP2 POP POP SWAP3 SWAP6 SWAP9 POP SWAP3 SWAP6 SWAP9 SWAP1 SWAP4 SWAP7 POP JUMP JUMPDEST PUSH1 0x0 DUP1 PUSH1 0x0 DUP1 PUSH1 0x60 DUP6 DUP8 SUB SLT ISZERO PUSH2 0x2D18 JUMPI DUP4 DUP5 REVERT JUMPDEST DUP5 CALLDATALOAD PUSH2 0x2D23 DUP2 PUSH2 0x3005 JUMP JUMPDEST SWAP4 POP PUSH1 0x20 DUP6 ADD CALLDATALOAD SWAP3 POP PUSH1 0x40 DUP6 ADD CALLDATALOAD PUSH8 0xFFFFFFFFFFFFFFFF DUP2 GT ISZERO PUSH2 0x2D45 JUMPI DUP3 DUP4 REVERT JUMPDEST PUSH2 0x2D51 DUP8 DUP3 DUP9 ADD PUSH2 0x2A54 JUMP JUMPDEST SWAP6 SWAP9 SWAP5 SWAP8 POP SWAP6 POP POP POP POP JUMP JUMPDEST PUSH1 0x0 DUP1 PUSH1 0x0 DUP1 PUSH1 0x0 PUSH1 0x60 DUP7 DUP9 SUB SLT ISZERO PUSH2 0x2D74 JUMPI DUP1 DUP2 REVERT JUMPDEST DUP6 CALLDATALOAD PUSH8 0xFFFFFFFFFFFFFFFF DUP1 DUP3 GT ISZERO PUSH2 0x2D8B JUMPI DUP3 DUP4 REVERT JUMPDEST PUSH2 0x2D97 DUP10 DUP4 DUP11 ADD PUSH2 0x2A54 JUMP JUMPDEST SWAP1 SWAP8 POP SWAP6 POP PUSH1 0x20 DUP9 ADD CALLDATALOAD SWAP2 POP DUP1 DUP3 GT ISZERO PUSH2 0x2DAF JUMPI DUP3 DUP4 REVERT JUMPDEST POP PUSH2 0x2DBC DUP9 DUP3 DUP10 ADD PUSH2 0x2A54 JUMP JUMPDEST SWAP1 SWAP5 POP SWAP3 POP PUSH2 0x2DCF SWAP1 POP PUSH1 0x40 DUP8 ADD PUSH2 0x2A9E JUMP JUMPDEST SWAP1 POP SWAP3 SWAP6 POP SWAP3 SWAP6 SWAP1 SWAP4 POP JUMP JUMPDEST PUSH1 0x0 DUP1 PUSH1 0x0 DUP1 PUSH1 0x0 DUP1 PUSH1 0x80 DUP8 DUP10 SUB SLT ISZERO PUSH2 0x2DF3 JUMPI DUP2 DUP3 REVERT JUMPDEST DUP7 CALLDATALOAD PUSH8 0xFFFFFFFFFFFFFFFF DUP1 DUP3 GT ISZERO PUSH2 0x2E0A JUMPI DUP4 DUP5 REVERT JUMPDEST PUSH2 0x2E16 DUP11 DUP4 DUP12 ADD PUSH2 0x2A54 JUMP JUMPDEST SWAP1 SWAP9 POP SWAP7 POP PUSH1 0x20 DUP10 ADD CALLDATALOAD SWAP2 POP DUP1 DUP3 GT ISZERO PUSH2 0x2E2E JUMPI DUP4 DUP5 REVERT JUMPDEST POP PUSH2 0x2E3B DUP10 DUP3 DUP11 ADD PUSH2 0x2A54 JUMP JUMPDEST SWAP1 SWAP6 POP SWAP4 POP PUSH2 0x2E4E SWAP1 POP PUSH1 0x40 DUP9 ADD PUSH2 0x2A9E JUMP JUMPDEST SWAP2 POP PUSH1 0x60 DUP8 ADD CALLDATALOAD PUSH2 0x2E5E DUP2 PUSH2 0x3005 JUMP JUMPDEST DUP1 SWAP2 POP POP SWAP3 SWAP6 POP SWAP3 SWAP6 POP SWAP3 SWAP6 JUMP JUMPDEST PUSH1 0x0 PUSH1 0x20 DUP3 DUP5 SUB SLT ISZERO PUSH2 0x2E7D JUMPI DUP1 DUP2 REVERT JUMPDEST POP MLOAD SWAP2 SWAP1 POP JUMP JUMPDEST DUP4 MLOAD PUSH1 0x0 SWAP1 DUP3 SWAP1 PUSH1 0x20 DUP1 DUP9 ADD DUP5 JUMPDEST DUP4 DUP2 LT ISZERO PUSH2 0x2EB7 JUMPI DUP2 MLOAD PUSH1 0x1 PUSH1 0x1 PUSH1 0xA0 SHL SUB AND DUP6 MSTORE SWAP4 DUP3 ADD SWAP4 SWAP1 DUP3 ADD SWAP1 PUSH1 0x1 ADD PUSH2 0x2E92 JUMP JUMPDEST POP POP DUP7 MLOAD DUP2 DUP9 ADD SWAP4 SWAP3 POP DUP5 JUMPDEST DUP2 DUP2 LT ISZERO PUSH2 0x2EE5 JUMPI DUP5 MLOAD PUSH4 0xFFFFFFFF AND DUP5 MSTORE SWAP4 DUP3 ADD SWAP4 SWAP3 DUP3 ADD SWAP3 PUSH1 0x1 ADD PUSH2 0x2EC3 JUMP JUMPDEST POP POP POP PUSH1 0xE0 SWAP5 SWAP1 SWAP5 SHL PUSH1 0x1 PUSH1 0x1 PUSH1 0xE0 SHL SUB NOT AND DUP5 MSTORE POP POP PUSH1 0x4 SWAP1 SWAP2 ADD SWAP4 SWAP3 POP POP POP JUMP JUMPDEST DUP5 DUP2 MSTORE PUSH1 0x60 PUSH1 0x20 DUP1 DUP4 ADD DUP3 SWAP1 MSTORE SWAP1 DUP3 ADD DUP5 SWAP1 MSTORE PUSH1 0x0 SWAP1 DUP6 SWAP1 PUSH1 0x80 DUP5 ADD DUP4 JUMPDEST DUP8 DUP2 LT ISZERO PUSH2 0x2F54 JUMPI DUP4 CALLDATALOAD PUSH2 0x2F39 DUP2 PUSH2 0x3005 JUMP JUMPDEST PUSH1 0x1 PUSH1 0x1 PUSH1 0xA0 SHL SUB AND DUP3 MSTORE SWAP3 DUP3 ADD SWAP3 SWAP1 DUP3 ADD SWAP1 PUSH1 0x1 ADD PUSH2 0x2F26 JUMP JUMPDEST POP DUP5 DUP2 SUB PUSH1 0x40 DUP7 ADD MSTORE DUP6 MLOAD DUP1 DUP3 MSTORE SWAP1 DUP3 ADD SWAP3 POP DUP2 DUP7 ADD SWAP1 DUP5 JUMPDEST DUP2 DUP2 LT ISZERO PUSH2 0x2F89 JUMPI DUP3 MLOAD DUP6 MSTORE SWAP4 DUP4 ADD SWAP4 SWAP2 DUP4 ADD SWAP2 PUSH1 0x1 ADD PUSH2 0x2F6D JUMP JUMPDEST POP SWAP3 SWAP10 SWAP9 POP POP POP POP POP POP POP POP POP JUMP JUMPDEST PUSH1 0x0 DUP3 NOT DUP3 GT ISZERO PUSH2 0x2FAB JUMPI PUSH2 0x2FAB PUSH2 0x2FEF JUMP JUMPDEST POP ADD SWAP1 JUMP JUMPDEST PUSH1 0x0 PUSH4 0xFFFFFFFF DUP1 DUP4 AND DUP2 DUP6 AND DUP1 DUP4 SUB DUP3 GT ISZERO PUSH2 0x2FCF JUMPI PUSH2 0x2FCF PUSH2 0x2FEF JUMP JUMPDEST ADD SWAP5 SWAP4 POP POP POP POP JUMP JUMPDEST PUSH1 0x0 DUP3 DUP3 LT ISZERO PUSH2 0x2FEA JUMPI PUSH2 0x2FEA PUSH2 0x2FEF JUMP JUMPDEST POP SUB SWAP1 JUMP JUMPDEST PUSH4 0x4E487B71 PUSH1 0xE0 SHL PUSH1 0x0 MSTORE PUSH1 0x11 PUSH1 0x4 MSTORE PUSH1 0x24 PUSH1 0x0 REVERT JUMPDEST PUSH1 0x1 PUSH1 0x1 PUSH1 0xA0 SHL SUB DUP2 AND DUP2 EQ PUSH2 0x301A JUMPI PUSH1 0x0 DUP1 REVERT JUMPDEST POP JUMP INVALID LOG2 PUSH5 0x6970667358 0x22 SLT KECCAK256 PUSH25 0x638564D8F0338DF6CF15B5C2680D5C2EF45167F59938471977 0xE9 PUSH22 0x6316B94964736F6C6343000804003360A06040523480 ISZERO PUSH2 0x10 JUMPI PUSH1 0x0 DUP1 REVERT JUMPDEST POP CALLER PUSH1 0x60 DUP2 SWAP1 SHL PUSH1 0x80 MSTORE PUSH2 0x354 PUSH2 0x4C PUSH1 0x0 CODECOPY PUSH1 0x0 DUP2 DUP2 PUSH1 0x4B ADD MSTORE DUP2 DUP2 PUSH1 0xBC ADD MSTORE DUP2 DUP2 PUSH2 0x108 ADD MSTORE DUP2 DUP2 PUSH2 0x13C ADD MSTORE PUSH2 0x186 ADD MSTORE PUSH2 0x354 PUSH1 0x0 RETURN INVALID PUSH1 0x80 PUSH1 0x40 MSTORE PUSH1 0x4 CALLDATASIZE LT PUSH2 0x34 JUMPI PUSH1 0x0 CALLDATALOAD PUSH1 0xE0 SHR DUP1 PUSH4 0xE769B2B EQ PUSH2 0x39 JUMPI DUP1 PUSH4 0x7C1F3FFE EQ PUSH2 0x89 JUMPI DUP1 PUSH4 0xAB0EBFF4 EQ PUSH2 0x9E JUMPI JUMPDEST PUSH1 0x0 DUP1 REVERT JUMPDEST CALLVALUE DUP1 ISZERO PUSH2 0x45 JUMPI PUSH1 0x0 DUP1 REVERT JUMPDEST POP PUSH2 0x6D PUSH32 0x0 DUP2 JUMP JUMPDEST PUSH1 0x40 MLOAD PUSH1 0x1 PUSH1 0x1 PUSH1 0xA0 SHL SUB SWAP1 SWAP2 AND DUP2 MSTORE PUSH1 0x20 ADD PUSH1 0x40 MLOAD DUP1 SWAP2 SUB SWAP1 RETURN JUMPDEST PUSH2 0x9C PUSH2 0x97 CALLDATASIZE PUSH1 0x4 PUSH2 0x2D0 JUMP JUMPDEST PUSH2 0xB1 JUMP JUMPDEST STOP JUMPDEST PUSH2 0x9C PUSH2 0xAC CALLDATASIZE PUSH1 0x4 PUSH2 0x306 JUMP JUMPDEST PUSH2 0x131 JUMP JUMPDEST CALLER PUSH1 0x1 PUSH1 0x1 PUSH1 0xA0 SHL SUB PUSH32 0x0 AND EQ PUSH2 0xF9 JUMPI PUSH1 0x40 MLOAD PUSH3 0x82B429 PUSH1 0xE8 SHL DUP2 MSTORE PUSH1 0x4 ADD PUSH1 0x40 MLOAD DUP1 SWAP2 SUB SWAP1 REVERT JUMPDEST PUSH2 0x12D PUSH1 0x1 PUSH1 0x1 PUSH1 0xA0 SHL SUB DUP4 AND PUSH32 0x0 DUP4 PUSH2 0x1AF JUMP JUMPDEST POP POP JUMP JUMPDEST CALLER PUSH1 0x1 PUSH1 0x1 PUSH1 0xA0 SHL SUB PUSH32 0x0 AND EQ PUSH2 0x179 JUMPI PUSH1 0x40 MLOAD PUSH3 0x82B429 PUSH1 0xE8 SHL DUP2 MSTORE PUSH1 0x4 ADD PUSH1 0x40 MLOAD DUP1 SWAP2 SUB SWAP1 REVERT JUMPDEST PUSH2 0x1AC PUSH1 0x1 PUSH1 0x1 PUSH1 0xA0 SHL SUB PUSH32 0x0 AND DUP3 PUSH2 0x233 JUMP JUMPDEST POP JUMP JUMPDEST PUSH1 0x0 PUSH1 0x40 MLOAD PUSH4 0xA9059CBB PUSH1 0xE0 SHL DUP2 MSTORE PUSH1 0x1 PUSH1 0x1 PUSH1 0xA0 SHL SUB DUP5 AND PUSH1 0x4 DUP3 ADD MSTORE DUP3 PUSH1 0x24 DUP3 ADD MSTORE PUSH1 0x0 DUP1 PUSH1 0x44 DUP4 PUSH1 0x0 DUP10 GAS CALL SWAP2 POP POP PUSH2 0x1EA DUP2 PUSH2 0x289 JUMP JUMPDEST PUSH2 0x22D JUMPI PUSH1 0x40 MLOAD PUSH3 0x461BCD PUSH1 0xE5 SHL DUP2 MSTORE PUSH1 0x20 PUSH1 0x4 DUP3 ADD MSTORE PUSH1 0xF PUSH1 0x24 DUP3 ADD MSTORE PUSH15 0x1514905394D1915497D19052531151 PUSH1 0x8A SHL PUSH1 0x44 DUP3 ADD MSTORE PUSH1 0x64 ADD JUMPDEST PUSH1 0x40 MLOAD DUP1 SWAP2 SUB SWAP1 REVERT JUMPDEST POP POP POP POP JUMP JUMPDEST PUSH1 0x0 DUP1 PUSH1 0x0 DUP1 PUSH1 0x0 DUP6 DUP8 GAS CALL SWAP1 POP DUP1 PUSH2 0x284 JUMPI PUSH1 0x40 MLOAD PUSH3 0x461BCD PUSH1 0xE5 SHL DUP2 MSTORE PUSH1 0x20 PUSH1 0x4 DUP3 ADD MSTORE PUSH1 0x13 PUSH1 0x24 DUP3 ADD MSTORE PUSH19 0x11551217D514905394D1915497D19052531151 PUSH1 0x6A SHL PUSH1 0x44 DUP3 ADD MSTORE PUSH1 0x64 ADD PUSH2 0x224 JUMP JUMPDEST POP POP POP JUMP JUMPDEST PUSH1 0x0 RETURNDATASIZE DUP3 PUSH2 0x29B JUMPI DUP1 PUSH1 0x0 DUP1 RETURNDATACOPY DUP1 PUSH1 0x0 REVERT JUMPDEST DUP1 PUSH1 0x20 DUP2 EQ PUSH2 0x2B3 JUMPI DUP1 ISZERO PUSH2 0x2C4 JUMPI PUSH1 0x0 SWAP3 POP PUSH2 0x2C9 JUMP JUMPDEST DUP2 PUSH1 0x0 DUP1 RETURNDATACOPY PUSH1 0x0 MLOAD ISZERO ISZERO SWAP3 POP PUSH2 0x2C9 JUMP JUMPDEST PUSH1 0x1 SWAP3 POP JUMPDEST POP POP SWAP2 SWAP1 POP JUMP JUMPDEST PUSH1 0x0 DUP1 PUSH1 0x40 DUP4 DUP6 SUB SLT ISZERO PUSH2 0x2E2 JUMPI DUP2 DUP3 REVERT JUMPDEST DUP3 CALLDATALOAD PUSH1 0x1 PUSH1 0x1 PUSH1 0xA0 SHL SUB DUP2 AND DUP2 EQ PUSH2 0x2F8 JUMPI DUP3 DUP4 REVERT JUMPDEST SWAP5 PUSH1 0x20 SWAP4 SWAP1 SWAP4 ADD CALLDATALOAD SWAP4 POP POP POP JUMP JUMPDEST PUSH1 0x0 PUSH1 0x20 DUP3 DUP5 SUB SLT ISZERO PUSH2 0x317 JUMPI DUP1 DUP2 REVERT JUMPDEST POP CALLDATALOAD SWAP2 SWAP1 POP JUMP INVALID LOG2 PUSH5 0x6970667358 0x22 SLT KECCAK256 DUP15 MULMOD GAS CALLDATASIZE DUP12 0xCB 0x2E 0xFB 0x2A DUP11 REVERT SWAP12 JUMP EXP 0xD9 DIFFICULTY COINBASE 0xE9 0x26 ADDMOD PUSH11 0x4BC92EDF16C33900DF798E PUSH5 0x736F6C6343 STOP ADDMOD DIV STOP CALLER "
        },
        "gasEstimates": {
          "creation": {
            "codeDepositCost": "2474200",
            "executionCost": "infinite",
            "totalCost": "infinite"
          },
          "external": {
            "PERCENTAGE_SCALE()": "229",
            "acceptControl(address)": "45838",
            "cancelControlTransfer(address)": "23323",
            "createSplit(address[],uint32[],uint32,address)": "infinite",
            "distributeERC20(address,address,address[],uint32[],uint32,address)": "infinite",
            "distributeETH(address,address[],uint32[],uint32,address)": "infinite",
            "getController(address)": "1334",
            "getERC20Balance(address,address)": "infinite",
            "getETHBalance(address)": "2964",
            "getHash(address)": "1310",
            "getNewPotentialController(address)": "1339",
            "makeSplitImmutable(address)": "45871",
            "predictImmutableSplitAddress(address[],uint32[],uint32)": "infinite",
            "transferControl(address,address)": "infinite",
            "updateAndDistributeERC20(address,address,address[],uint32[],uint32,address)": "infinite",
            "updateAndDistributeETH(address,address[],uint32[],uint32,address)": "infinite",
            "updateSplit(address,address[],uint32[],uint32)": "infinite",
            "walletImplementation()": "infinite",
            "withdraw(address,uint256,address[])": "infinite"
          },
          "internal": {
            "_distributeERC20(address,contract ERC20,address[] memory,uint32[] memory,uint32,address)": "infinite",
            "_distributeETH(address,address[] memory,uint32[] memory,uint32,address)": "infinite",
            "_getSum(uint32[] memory)": "infinite",
            "_hashSplit(address[] memory,uint32[] memory,uint32)": "infinite",
            "_scaleAmountByPercentage(uint256,uint256)": "infinite",
            "_updateSplit(address,address[] calldata,uint32[] calldata,uint32)": "infinite",
            "_validSplitHash(address,address[] memory,uint32[] memory,uint32)": "infinite",
            "_withdraw(address)": "infinite",
            "_withdrawERC20(address,contract ERC20)": "infinite"
          }
        },
        "methodIdentifiers": {
          "PERCENTAGE_SCALE()": "3f26479e",
          "acceptControl(address)": "c7de6440",
          "cancelControlTransfer(address)": "1267c6da",
          "createSplit(address[],uint32[],uint32,address)": "7601f782",
          "distributeERC20(address,address,address[],uint32[],uint32,address)": "15811302",
          "distributeETH(address,address[],uint32[],uint32,address)": "e61cb05e",
          "getController(address)": "88c662aa",
          "getERC20Balance(address,address)": "c3a8962c",
          "getETHBalance(address)": "3bb66a7b",
          "getHash(address)": "1da0b8fc",
          "getNewPotentialController(address)": "e10e51d6",
          "makeSplitImmutable(address)": "189cbaa0",
          "predictImmutableSplitAddress(address[],uint32[],uint32)": "52844dd3",
          "transferControl(address,address)": "d0e4b2f4",
          "updateAndDistributeERC20(address,address,address[],uint32[],uint32,address)": "77b1e4e9",
          "updateAndDistributeETH(address,address[],uint32[],uint32,address)": "a5e3909e",
          "updateSplit(address,address[],uint32[],uint32)": "ecef0ace",
          "walletImplementation()": "8117abc1",
          "withdraw(address,uint256,address[])": "6e5f6919"
        }
      },
      "storageLayout": {
        "storage": [
          {
            "astId": 587,
            "contract": "contracts/SplitMain.sol:SplitMain",
            "label": "ethBalances",
            "offset": 0,
            "slot": "0",
            "type": "t_mapping(t_address,t_uint256)"
          },
          {
            "astId": 595,
            "contract": "contracts/SplitMain.sol:SplitMain",
            "label": "erc20Balances",
            "offset": 0,
            "slot": "1",
            "type": "t_mapping(t_contract(ERC20)394,t_mapping(t_address,t_uint256))"
          },
          {
            "astId": 601,
            "contract": "contracts/SplitMain.sol:SplitMain",
            "label": "splits",
            "offset": 0,
            "slot": "2",
            "type": "t_mapping(t_address,t_struct(Split)570_storage)"
          }
        ],
        "types": {
          "t_address": {
            "encoding": "inplace",
            "label": "address",
            "numberOfBytes": "20"
          },
          "t_bytes32": {
            "encoding": "inplace",
            "label": "bytes32",
            "numberOfBytes": "32"
          },
          "t_contract(ERC20)394": {
            "encoding": "inplace",
            "label": "contract ERC20",
            "numberOfBytes": "20"
          },
          "t_mapping(t_address,t_struct(Split)570_storage)": {
            "encoding": "mapping",
            "key": "t_address",
            "label": "mapping(address => struct SplitMain.Split)",
            "numberOfBytes": "32",
            "value": "t_struct(Split)570_storage"
          },
          "t_mapping(t_address,t_uint256)": {
            "encoding": "mapping",
            "key": "t_address",
            "label": "mapping(address => uint256)",
            "numberOfBytes": "32",
            "value": "t_uint256"
          },
          "t_mapping(t_contract(ERC20)394,t_mapping(t_address,t_uint256))": {
            "encoding": "mapping",
            "key": "t_contract(ERC20)394",
            "label": "mapping(contract ERC20 => mapping(address => uint256))",
            "numberOfBytes": "32",
            "value": "t_mapping(t_address,t_uint256)"
          },
          "t_struct(Split)570_storage": {
            "encoding": "inplace",
            "label": "struct SplitMain.Split",
            "members": [
              {
                "astId": 565,
                "contract": "contracts/SplitMain.sol:SplitMain",
                "label": "hash",
                "offset": 0,
                "slot": "0",
                "type": "t_bytes32"
              },
              {
                "astId": 567,
                "contract": "contracts/SplitMain.sol:SplitMain",
                "label": "controller",
                "offset": 0,
                "slot": "1",
                "type": "t_address"
              },
              {
                "astId": 569,
                "contract": "contracts/SplitMain.sol:SplitMain",
                "label": "newPotentialController",
                "offset": 0,
                "slot": "2",
                "type": "t_address"
              }
            ],
            "numberOfBytes": "96"
          },
          "t_uint256": {
            "encoding": "inplace",
            "label": "uint256",
            "numberOfBytes": "32"
          }
        }
      },
      "userdoc": {
        "errors": {
          "Create2Error()": [
            {
              "notice": "create2 opcode failed"
            }
          ],
          "CreateError()": [
            {
              "notice": "create opcode failed"
            }
          ],
          "InvalidNewController(address)": [
            {
              "notice": "Invalid new controlling address `newController` for mutable split"
            }
          ],
          "InvalidSplit__AccountsAndAllocationsMismatch(uint256,uint256)": [
            {
              "notice": "Array lengths of accounts & percentAllocations don't match (`accountsLength` != `allocationsLength`)"
            }
          ],
          "InvalidSplit__AccountsOutOfOrder(uint256)": [
            {
              "notice": "Invalid accounts ordering at `index`"
            }
          ],
          "InvalidSplit__AllocationMustBePositive(uint256)": [
            {
              "notice": "Invalid percentAllocation of zero at `index`"
            }
          ],
          "InvalidSplit__InvalidAllocationsSum(uint32)": [
            {
              "notice": "Invalid percentAllocations sum `allocationsSum` must equal `PERCENTAGE_SCALE`"
            }
          ],
          "InvalidSplit__InvalidDistributorFee(uint32)": [
            {
              "notice": "Invalid distributorFee `distributorFee` cannot be greater than 10% (1e5)"
            }
          ],
          "InvalidSplit__InvalidHash(bytes32)": [
            {
              "notice": "Invalid hash `hash` from split data (accounts, percentAllocations, distributorFee)"
            }
          ],
          "InvalidSplit__TooFewAccounts(uint256)": [
            {
              "notice": "Invalid number of accounts `accountsLength`, must have at least 2"
            }
          ],
          "Unauthorized(address)": [
            {
              "notice": "Unauthorized sender `sender`"
            }
          ]
        },
        "events": {
          "CancelControlTransfer(address)": {
            "notice": "emitted after each canceled split control transfer"
          },
          "ControlTransfer(address,address,address)": {
            "notice": "emitted after each successful split control transfer"
          },
          "CreateSplit(address)": {
            "notice": "emitted after each successful split creation"
          },
          "DistributeERC20(address,address,uint256,address)": {
            "notice": "emitted after each successful ERC20 balance split"
          },
          "DistributeETH(address,uint256,address)": {
            "notice": "emitted after each successful ETH balance split"
          },
          "InitiateControlTransfer(address,address)": {
            "notice": "emitted after each initiated split control transfer"
          },
          "UpdateSplit(address)": {
            "notice": "emitted after each successful split update"
          },
          "Withdrawal(address,uint256,address[],uint256[])": {
            "notice": "emitted after each successful withdrawal"
          }
        },
        "kind": "user",
        "methods": {
          "PERCENTAGE_SCALE()": {
            "notice": "constant to scale uints into percentages (1e6 == 100%)"
          },
          "acceptControl(address)": {
            "notice": "Accepts transfer of the controlling address of mutable split `split`"
          },
          "cancelControlTransfer(address)": {
            "notice": "Cancels transfer of the controlling address of mutable split `split`"
          },
          "constructor": {
            "notice": "CONSTRUCTOR"
          },
          "createSplit(address[],uint32[],uint32,address)": {
            "notice": "Creates a new split with recipients `accounts` with ownerships `percentAllocations`, a keeper fee for splitting of `distributorFee` and the controlling address `controller`"
          },
          "distributeERC20(address,address,address[],uint32[],uint32,address)": {
            "notice": "Distributes the ERC20 `token` balance for split `split`"
          },
          "distributeETH(address,address[],uint32[],uint32,address)": {
            "notice": "Distributes the ETH balance for split `split`"
          },
          "getController(address)": {
            "notice": "Returns the current controller of split `split`"
          },
          "getERC20Balance(address,address)": {
            "notice": "Returns the ERC20 balance of token `token` for account `account`"
          },
          "getETHBalance(address)": {
            "notice": "Returns the current ETH balance of account `account`"
          },
          "getHash(address)": {
            "notice": "Returns the current hash of split `split`"
          },
          "getNewPotentialController(address)": {
            "notice": "Returns the current newPotentialController of split `split`"
          },
          "makeSplitImmutable(address)": {
            "notice": "Turns mutable split `split` immutable"
          },
          "predictImmutableSplitAddress(address[],uint32[],uint32)": {
            "notice": "Predicts the address for an immutable split created with recipients `accounts` with ownerships `percentAllocations` and a keeper fee for splitting of `distributorFee`"
          },
          "transferControl(address,address)": {
            "notice": "Begins transfer of the controlling address of mutable split `split` to `newController`"
          },
          "updateAndDistributeERC20(address,address,address[],uint32[],uint32,address)": {
            "notice": "Updates & distributes the ERC20 `token` balance for split `split`"
          },
          "updateAndDistributeETH(address,address[],uint32[],uint32,address)": {
            "notice": "Updates & distributes the ETH balance for split `split`"
          },
          "updateSplit(address,address[],uint32[],uint32)": {
            "notice": "Updates an existing split with recipients `accounts` with ownerships `percentAllocations` and a keeper fee for splitting of `distributorFee`"
          },
          "walletImplementation()": {
            "notice": "address of wallet implementation for split proxies"
          },
          "withdraw(address,uint256,address[])": {
            "notice": "Withdraw ETH &/ ERC20 balances for account `account`"
          }
        },
        "notice": "A composable and gas-efficient protocol for deploying splitter contracts.",
        "version": 1
      }
    }
  }
}