{
  "contracts/TestInternalTxn.sol": {
    "TestInternalTxn": {
      "abi": [
        {
          "inputs": [],
          "stateMutability": "nonpayable",
          "type": "constructor"
        },
        {
          "inputs": [
            {
              "internalType": "address[]",
              "name": "accounts",
              "type": "address[]"
            },
            {
              "internalType": "uint32[]",
              "name": "percentAllocations",
              "type": "uint32[]"
            },
            {
              "internalType": "uint32",
              "name": "distributorFee",
              "type": "uint32"
            },
            {
              "internalType": "address",
              "name": "controller",
              "type": "address"
            }
          ],
          "name": "create",
          "outputs": [
            {
              "internalType": "address",
              "name": "",
              "type": "address"
            }
          ],
          "stateMutability": "nonpayable",
          "type": "function"
        },
        {
          "inputs": [
            {
              "internalType": "address",
              "name": "split",
              "type": "address"
            },
            {
              "internalType": "address[]",
              "name": "accounts",
              "type": "address[]"
            },
            {
              "internalType": "uint32[]",
              "name": "percentAllocations",
              "type": "uint32[]"
            },
            {
              "internalType": "uint32",
              "name": "distributorFee",
              "type": "uint32"
            }
          ],
          "name": "update",
          "outputs": [],
          "stateMutability": "nonpayable",
          "type": "function"
        }
      ],
      "devdoc": {
        "kind": "dev",
        "methods": {},
        "version": 1
      },
      "evm": {
        "bytecode": {
          "linkReferences": {},
          "object": "608060405234801561001057600080fd5b506104b2806100206000396000f3fe608060405234801561001057600080fd5b50600436106100365760003560e01c80632f079a0f1461003b578063f5f0fa7714610050575b600080fd5b61004e610049366004610221565b61007f565b005b61006361005e3660046102b0565b6100fa565b6040516001600160a01b03909116815260200160405180910390f35b604051637677856760e11b8152732ed6c4b5da6378c7897ac67ba9e43102feb694ee9063ecef0ace906100c0908990899089908990899089906004016103c1565b600060405180830381600087803b1580156100da57600080fd5b505af11580156100ee573d6000803e3d6000fd5b50505050505050505050565b604051633b00fbc160e11b8152600090732ed6c4b5da6378c7897ac67ba9e43102feb694ee90637601f7829061013e908a908a908a908a908a908a90600401610413565b602060405180830381600087803b15801561015857600080fd5b505af115801561016c573d6000803e3d6000fd5b505050506040513d601f19601f8201168201806040525081019061019091906101fe565b979650505050505050565b60008083601f8401126101ac578182fd5b50813567ffffffffffffffff8111156101c3578182fd5b6020830191508360208260051b85010111156101de57600080fd5b9250929050565b803563ffffffff811681146101f957600080fd5b919050565b60006020828403121561020f578081fd5b815161021a81610464565b9392505050565b60008060008060008060808789031215610239578182fd5b863561024481610464565b9550602087013567ffffffffffffffff80821115610260578384fd5b61026c8a838b0161019b565b90975095506040890135915080821115610284578384fd5b5061029189828a0161019b565b90945092506102a49050606088016101e5565b90509295509295509295565b600080600080600080608087890312156102c8578182fd5b863567ffffffffffffffff808211156102df578384fd5b6102eb8a838b0161019b565b90985096506020890135915080821115610303578384fd5b5061031089828a0161019b565b90955093506103239050604088016101e5565b9150606087013561033381610464565b809150509295509295509295565b81835260006020808501945082825b8581101561037e57813561036381610464565b6001600160a01b031687529582019590820190600101610350565b509495945050505050565b81835260006020808501945082825b8581101561037e5763ffffffff6103ae836101e5565b1687529582019590820190600101610398565b6001600160a01b03871681526080602082018190526000906103e69083018789610341565b82810360408401526103f9818688610389565b91505063ffffffff83166060830152979650505050505050565b60808152600061042760808301888a610341565b828103602084015261043a818789610389565b63ffffffff95909516604084015250506001600160a01b0391909116606090910152949350505050565b6001600160a01b038116811461047957600080fd5b5056fea2646970667358221220c43e317dd3a079599fa1d8bee072aba51ea86269809a12149dcd3704e8794c4d64736f6c63430008040033",
          "opcodes": "PUSH1 0x80 PUSH1 0x40 MSTORE CALLVALUE DUP1 ISZERO PUSH2 0x10 JUMPI PUSH1 0x0 DUP1 REVERT JUMPDEST POP PUSH2 0x4B2 DUP1 PUSH2 0x20 PUSH1 0x0 CODECOPY PUSH1 0x0 RETURN INVALID PUSH1 0x80 PUSH1 0x40 MSTORE CALLVALUE DUP1 ISZERO PUSH2 0x10 JUMPI PUSH1 0x0 DUP1 REVERT JUMPDEST POP PUSH1 0x4 CALLDATASIZE LT PUSH2 0x36 JUMPI PUSH1 0x0 CALLDATALOAD PUSH1 0xE0 SHR DUP1 PUSH4 0x2F079A0F EQ PUSH2 0x3B JUMPI DUP1 PUSH4 0xF5F0FA77 EQ PUSH2 0x50 JUMPI JUMPDEST PUSH1 0x0 DUP1 REVERT JUMPDEST PUSH2 0x4E PUSH2 0x49 CALLDATASIZE PUSH1 0x4 PUSH2 0x221 JUMP JUMPDEST PUSH2 0x7F JUMP JUMPDEST STOP JUMPDEST PUSH2 0x63 PUSH2 0x5E CALLDATASIZE PUSH1 0x4 PUSH2 0x2B0 JUMP JUMPDEST PUSH2 0xFA JUMP JUMPDEST PUSH1 0x40 MLOAD PUSH1 0x1 PUSH1 0x1 PUSH1 0xA0 SHL SUB SWAP1 SWAP2 AND DUP2 MSTORE PUSH1 0x20 ADD PUSH1 0x40 MLOAD DUP1 SWAP2 SUB SWAP1 RETURN JUMPDEST PUSH1 0x40 MLOAD PUSH4 0x76778567 PUSH1 0xE1 SHL DUP2 MSTORE PUSH20 0x2ED6C4B5DA6378C7897AC67BA9E43102FEB694EE SWAP1 PUSH4 0xECEF0ACE SWAP1 PUSH2 0xC0 SWAP1 DUP10 SWAP1 DUP10 SWAP1 DUP10 SWAP1 DUP10 SWAP1 DUP10 SWAP1 DUP10 SWAP1 PUSH1 0x4 ADD PUSH2 0x3C1 JUMP JUMPDEST PUSH1 0x0 PUSH1 0x40 MLOAD DUP1 DUP4 SUB DUP2 PUSH1 0x0 DUP8 DUP1 EXTCODESIZE ISZERO DUP1 ISZERO PUSH2 0xDA JUMPI PUSH1 0x0 DUP1 REVERT JUMPDEST POP GAS CALL ISZERO DUP1 ISZERO PUSH2 0xEE JUMPI RETURNDATASIZE PUSH1 0x0 DUP1 RETURNDATACOPY RETURNDATASIZE PUSH1 0x0 REVERT JUMPDEST POP POP POP POP POP POP POP POP POP POP JUMP JUMPDEST PUSH1 0x40 MLOAD PUSH4 0x3B00FBC1 PUSH1 0xE1 SHL DUP2 MSTORE PUSH1 0x0 SWAP1 PUSH20 0x2ED6C4B5DA6378C7897AC67BA9E43102FEB694EE SWAP1 PUSH4 0x7601F782 SWAP1 PUSH2 0x13E SWAP1 DUP11 SWAP1 DUP11 SWAP1 DUP11 SWAP1 DUP11 SWAP1 DUP11 SWAP1 DUP11 SWAP1 PUSH1 0x4 ADD PUSH2 0x413 JUMP JUMPDEST PUSH1 0x20 PUSH1 0x40 MLOAD DUP1 DUP4 SUB DUP2 PUSH1 0x0 DUP8 DUP1 EXTCODESIZE ISZERO DUP1 ISZERO PUSH2 0x158 JUMPI PUSH1 0x0 DUP1 REVERT JUMPDEST POP GAS CALL ISZERO DUP1 ISZERO PUSH2 0x16C JUMPI RETURNDATASIZE PUSH1 0x0 DUP1 RETURNDATACOPY RETURNDATASIZE PUSH1 0x0 REVERT JUMPDEST POP POP POP POP PUSH1 0x40 MLOAD RETURNDATASIZE PUSH1 0x1F NOT PUSH1 0x1F DUP3 ADD AND DUP3 ADD DUP1 PUSH1 0x40 MSTORE POP DUP2 ADD SWAP1 PUSH2 0x190 SWAP2 SWAP1 PUSH2 0x1FE JUMP JUMPDEST SWAP8 SWAP7 POP POP POP POP POP POP POP JUMP JUMPDEST PUSH1 0x0 DUP1 DUP4 PUSH1 0x1F DUP5 ADD SLT PUSH2 0x1AC JUMPI DUP2 DUP3 REVERT JUMPDEST POP DUP2 CALLDATALOAD PUSH8 0xFFFFFFFFFFFFFFFF DUP2 GT ISZERO PUSH2 0x1C3 JUMPI DUP2 DUP3 REVERT JUMPDEST PUSH1 0x20 DUP4 ADD SWAP2 POP DUP4 PUSH1 0x20 DUP3 PUSH1 0x5 SHL DUP6 ADD ADD GT ISZERO PUSH2 0x1DE JUMPI PUSH1 0x0 DUP1 REVERT JUMPDEST SWAP3 POP SWAP3 SWAP1 POP JUMP JUMPDEST DUP1 CALLDATALOAD PUSH4 0xFFFFFFFF DUP2 AND DUP2 EQ PUSH2 0x1F9 JUMPI PUSH1 0x0 DUP1 REVERT JUMPDEST SWAP2 SWAP1 POP JUMP JUMPDEST PUSH1 0x0 PUSH1 0x20 DUP3 DUP5 SUB SLT ISZERO PUSH2 0x20F JUMPI DUP1 DUP2 REVERT JUMPDEST DUP2 MLOAD PUSH2 0x21A DUP2 PUSH2 0x464 JUMP JUMPDEST SWAP4 SWAP3 POP POP POP JUMP JUMPDEST PUSH1 0x0 DUP1 PUSH1 0x0 DUP1 PUSH1 0x0 DUP1 PUSH1 0x80 DUP8 DUP10 SUB SLT ISZERO PUSH2 0x239 JUMPI DUP2 DUP3 REVERT JUMPDEST DUP7 CALLDATALOAD PUSH2 0x244 DUP2 PUSH2 0x464 JUMP JUMPDEST SWAP6 POP PUSH1 0x20 DUP8 ADD CALLDATALOAD PUSH8 0xFFFFFFFFFFFFFFFF DUP1 DUP3 GT ISZERO PUSH2 0x260 JUMPI DUP4 DUP5 REVERT JUMPDEST PUSH2 0x26C DUP11 DUP4 DUP12 ADD PUSH2 0x19B JUMP JUMPDEST SWAP1 SWAP8 POP SWAP6 POP PUSH1 0x40 DUP10 ADD CALLDATALOAD SWAP2 POP DUP1 DUP3 GT ISZERO PUSH2 0x284 JUMPI DUP4 DUP5 REVERT JUMPDEST POP PUSH2 0x291 DUP10 DUP3 DUP11 ADD PUSH2 0x19B JUMP JUMPDEST SWAP1 SWAP5 POP SWAP3 POP PUSH2 0x2A4 SWAP1 POP PUSH1 0x60 DUP9 ADD PUSH2 0x1E5 JUMP JUMPDEST SWAP1 POP SWAP3 SWAP6 POP SWAP3 SWAP6 POP SWAP3 SWAP6 JUMP JUMPDEST PUSH1 0x0 DUP1 PUSH1 0x0 DUP1 PUSH1 0x0 DUP1 PUSH1 0x80 DUP8 DUP10 SUB SLT ISZERO PUSH2 0x2C8 JUMPI DUP2 DUP3 REVERT JUMPDEST DUP7 CALLDATALOAD PUSH8 0xFFFFFFFFFFFFFFFF DUP1 DUP3 GT ISZERO PUSH2 0x2DF JUMPI DUP4 DUP5 REVERT JUMPDEST PUSH2 0x2EB DUP11 DUP4 DUP12 ADD PUSH2 0x19B JUMP JUMPDEST SWAP1 SWAP9 POP SWAP7 POP PUSH1 0x20 DUP10 ADD CALLDATALOAD SWAP2 POP DUP1 DUP3 GT ISZERO PUSH2 0x303 JUMPI DUP4 DUP5 REVERT JUMPDEST POP PUSH2 0x310 DUP10 DUP3 DUP11 ADD PUSH2 0x19B JUMP JUMPDEST SWAP1 SWAP6 POP SWAP4 POP PUSH2 0x323 SWAP1 POP PUSH1 0x40 DUP9 ADD PUSH2 0x1E5 JUMP JUMPDEST SWAP2 POP PUSH1 0x60 DUP8 ADD CALLDATALOAD PUSH2 0x333 DUP2 PUSH2 0x464 JUMP JUMPDEST DUP1 SWAP2 POP POP SWAP3 SWAP6 POP SWAP3 SWAP6 POP SWAP3 SWAP6 JUMP JUMPDEST DUP2 DUP4 MSTORE PUSH1 0x0 PUSH1 0x20 DUP1 DUP6 ADD SWAP5 POP DUP3 DUP3 JUMPDEST DUP6 DUP2 LT ISZERO PUSH2 0x37E JUMPI DUP2 CALLDATALOAD PUSH2 0x363 DUP2 PUSH2 0x464 JUMP JUMPDEST PUSH1 0x1 PUSH1 0x1 PUSH1 0xA0 SHL SUB AND DUP8 MSTORE SWAP6 DUP3 ADD SWAP6 SWAP1 DUP3 ADD SWAP1 PUSH1 0x1 ADD PUSH2 0x350 JUMP JUMPDEST POP SWAP5 SWAP6 SWAP5 POP POP POP POP POP JUMP JUMPDEST DUP2 DUP4 MSTORE PUSH1 0x0 PUSH1 0x20 DUP1 DUP6 ADD SWAP5 POP DUP3 DUP3 JUMPDEST DUP6 DUP2 LT ISZERO PUSH2 0x37E JUMPI PUSH4 0xFFFFFFFF PUSH2 0x3AE DUP4 PUSH2 0x1E5 JUMP JUMPDEST AND DUP8 MSTORE SWAP6 DUP3 ADD SWAP6 SWAP1 DUP3 ADD SWAP1 PUSH1 0x1 ADD PUSH2 0x398 JUMP JUMPDEST PUSH1 0x1 PUSH1 0x1 PUSH1 0xA0 SHL SUB DUP8 AND DUP2 MSTORE PUSH1 0x80 PUSH1 0x20 DUP3 ADD DUP2 SWAP1 MSTORE PUSH1 0x0 SWAP1 PUSH2 0x3E6 SWAP1 DUP4 ADD DUP8 DUP10 PUSH2 0x341 JUMP JUMPDEST DUP3 DUP2 SUB PUSH1 0x40 DUP5 ADD MSTORE PUSH2 0x3F9 DUP2 DUP7 DUP9 PUSH2 0x389 JUMP JUMPDEST SWAP2 POP POP PUSH4 0xFFFFFFFF DUP4 AND PUSH1 0x60 DUP4 ADD MSTORE SWAP8 SWAP7 POP POP POP POP POP POP POP JUMP JUMPDEST PUSH1 0x80 DUP2 MSTORE PUSH1 0x0 PUSH2 0x427 PUSH1 0x80 DUP4 ADD DUP9 DUP11 PUSH2 0x341 JUMP JUMPDEST DUP3 DUP2 SUB PUSH1 0x20 DUP5 ADD MSTORE PUSH2 0x43A DUP2 DUP8 DUP10 PUSH2 0x389 JUMP JUMPDEST PUSH4 0xFFFFFFFF SWAP6 SWAP1 SWAP6 AND PUSH1 0x40 DUP5 ADD MSTORE POP POP PUSH1 0x1 PUSH1 0x1 PUSH1 0xA0 SHL SUB SWAP2 SWAP1 SWAP2 AND PUSH1 0x60 SWAP1 SWAP2 ADD MSTORE SWAP5 SWAP4 POP POP POP POP JUMP JUMPDEST PUSH1 0x1 PUSH1 0x1 PUSH1 0xA0 SHL SUB DUP2 AND DUP2 EQ PUSH2 0x479 JUMPI PUSH1 0x0 DUP1 REVERT JUMPDEST POP JUMP INVALID LOG2 PUSH5 0x6970667358 0x22 SLT KECCAK256 0xC4 RETURNDATACOPY BALANCE PUSH30 0xD3A079599FA1D8BEE072ABA51EA86269809A12149DCD3704E8794C4D6473 PUSH16 0x6C634300080400330000000000000000 "
        },
        "gasEstimates": {
          "creation": {
            "codeDepositCost": "240400",
            "executionCost": "281",
            "totalCost": "240681"
          },
          "external": {
            "create(address[],uint32[],uint32,address)": "infinite",
            "update(address,address[],uint32[],uint32)": "infinite"
          }
        },
        "methodIdentifiers": {
          "create(address[],uint32[],uint32,address)": "f5f0fa77",
          "update(address,address[],uint32[],uint32)": "2f079a0f"
        }
      },
      "storageLayout": {
        "storage": [],
        "types": null
      },
      "userdoc": {
        "kind": "user",
        "methods": {},
        "version": 1
      }
    }
  }
}