{
  "abi": [
    {
      "inputs": [
        {
          "internalType": "contract ISplitMain",
          "name": "splitMain_",
          "type": "address"
        },
        {
          "internalType": "contract SwapperFactory",
          "name": "swapperFactory_",
          "type": "address"
        },
        {
          "internalType": "contract PassThroughWalletFactory",
          "name": "passThroughWalletFactory_",
          "type": "address"
        }
      ],
      "stateMutability": "nonpayable",
      "type": "constructor"
    },
    {
      "anonymous": false,
      "inputs": [
        {
          "indexed": true,
          "internalType": "address",
          "name": "diversifier",
          "type": "address"
        }
      ],
      "name": "CreateDiversifier",
      "type": "event"
    },
    {
      "inputs": [
        {
          "components": [
            {
              "internalType": "address",
              "name": "owner",
              "type": "address"
            },
            {
              "internalType": "bool",
              "name": "paused",
              "type": "bool"
            },
            {
              "components": [
                {
                  "internalType": "contract OracleImpl",
                  "name": "oracle",
                  "type": "address"
                },
                {
                  "components": [
                    {
                      "internalType": "contract IOracleFactory",
                      "name": "factory",
                      "type": "address"
                    },
                    {
                      "internalType": "bytes",
                      "name": "data",
                      "type": "bytes"
                    }
                  ],
                  "internalType": "struct CreateOracleParams",
                  "name": "createOracleParams",
                  "type": "tuple"
                }
              ],
              "internalType": "struct OracleParams",
              "name": "oracleParams",
              "type": "tuple"
            },
            {
              "components": [
                {
                  "internalType": "address",
                  "name": "account",
                  "type": "address"
                },
                {
                  "components": [
                    {
                      "internalType": "address",
                      "name": "beneficiary",
                      "type": "address"
                    },
                    {
                      "internalType": "address",
                      "name": "tokenToBeneficiary",
                      "type": "address"
                    }
                  ],
                  "internalType": "struct DiversifierFactory.CreateSwapperParams",
                  "name": "createSwapperParams",
                  "type": "tuple"
                },
                {
                  "internalType": "uint32",
                  "name": "percentAllocation",
                  "type": "uint32"
                }
              ],
              "internalType": "struct DiversifierFactory.RecipientParams[]",
              "name": "recipientParams",
              "type": "tuple[]"
            }
          ],
          "internalType": "struct DiversifierFactory.CreateDiversifierParams",
          "name": "params_",
          "type": "tuple"
        }
      ],
      "name": "createDiversifier",
      "outputs": [
        {
          "internalType": "address",
          "name": "diversifier",
          "type": "address"
        }
      ],
      "stateMutability": "nonpayable",
      "type": "function"
    },
    {
      "inputs": [],
      "name": "passThroughWalletFactory",
      "outputs": [
        {
          "internalType": "contract PassThroughWalletFactory",
          "name": "",
          "type": "address"
        }
      ],
      "stateMutability": "view",
      "type": "function"
    },
    {
      "inputs": [],
      "name": "splitMain",
      "outputs": [
        {
          "internalType": "contract ISplitMain",
          "name": "",
          "type": "address"
        }
      ],
      "stateMutability": "view",
      "type": "function"
    },
    {
      "inputs": [],
      "name": "swapperFactory",
      "outputs": [
        {
          "internalType": "contract SwapperFactory",
          "name": "",
          "type": "address"
        }
      ],
      "stateMutability": "view",
      "type": "function"
    }
  ],
  "bytecode": {
    "object": "0x60e060405234801561001057600080fd5b50604051610f1f380380610f1f83398101604081905261002f91610064565b6001600160a01b0392831660805290821660a0521660c0526100b1565b6001600160a01b038116811461006157600080fd5b50565b60008060006060848603121561007957600080fd5b83516100848161004c565b60208501519093506100958161004c565b60408501519092506100a68161004c565b809150509250925092565b60805160a05160c051610e2e6100f1600039600081816099015260fa01526000818160d30152610586015260008181605601526102220152610e2e6000f3fe608060405234801561001057600080fd5b506004361061004c5760003560e01c80630e769b2b146100515780636348a0ba14610094578063b7ba8b4e146100bb578063d122d54a146100ce575b600080fd5b6100787f000000000000000000000000000000000000000000000000000000000000000081565b6040516001600160a01b03909116815260200160405180910390f35b6100787f000000000000000000000000000000000000000000000000000000000000000081565b6100786100c9366004610aa2565b6100f5565b6100787f000000000000000000000000000000000000000000000000000000000000000081565b6000807f00000000000000000000000000000000000000000000000000000000000000006001600160a01b031663f28613d96040518060600160405280306001600160a01b031681526020018660200160208101906101549190610add565b1515815260006020918201526040805160e085901b6001600160e01b031916815283516001600160a01b03908116600483015292840151151560248201529201511660448201526064016020604051808303816000875af11580156101bd573d6000803e3d6000fd5b505050506040513d601f19601f820116820180604052508101906101e19190610b17565b915081905060006101fe826101f96040870187610b34565b6103c9565b905060008061021a858461021560608a018a610b54565b6104d8565b9150915060007f00000000000000000000000000000000000000000000000000000000000000006001600160a01b0316637601f782848460008a6040518563ffffffff1660e01b81526004016102739493929190610ba5565b6020604051808303816000875af1158015610292573d6000803e3d6000fd5b505050506040513d601f19601f820116820180604052508101906102b69190610b17565b60405163161c547760e01b81526001600160a01b0380831660048301529192509086169063161c547790602401600060405180830381600087803b1580156102fd57600080fd5b505af1158015610311573d6000803e3d6000fd5b5050506001600160a01b038616905063f2fde38b61033260208a018a610c52565b6040516001600160e01b031960e084901b1681526001600160a01b039091166004820152602401600060405180830381600087803b15801561037357600080fd5b505af1158015610387573d6000803e3d6000fd5b50506040516001600160a01b03891692507fa7e6988deaf3fd1b9b2d5806a4eead64934d3129070543e779e0e252c01467fd9150600090a25050505050919050565b60006103d48261070a565b90506103f36103e66020840184610c52565b6001600160a01b03161590565b80156104715750306001600160a01b0316816001600160a01b0316638da5cb5b6040518163ffffffff1660e01b8152600401602060405180830381865afa158015610442573d6000803e3d6000fd5b505050506040513d601f19601f820116820180604052508101906104669190610b17565b6001600160a01b0316145b156104d25760405163f2fde38b60e01b81526001600160a01b03848116600483015282169063f2fde38b90602401600060405180830381600087803b1580156104b957600080fd5b505af11580156104cd573d6000803e3d6000fd5b505050505b92915050565b6060806104e3610a5c565b6001600160a01b03861681528360008167ffffffffffffffff81111561050b5761050b610c6f565b604051908082528060200260200182016040528015610534578160200160208202803683370190505b50905060005b828110156106e7573688888381811061055557610555610c85565b608002919091019150600090506105806105726020840184610c52565b6001600160a01b0316151590565b610680577f00000000000000000000000000000000000000000000000000000000000000006001600160a01b031663aaef33706040518060a001604052808f6001600160a01b031681526020016000151581526020018560200160000160208101906105ec9190610c52565b6001600160a01b0316815260200161060a6060870160408801610c52565b6001600160a01b03168152602001898152506040518263ffffffff1660e01b81526004016106389190610c9b565b6020604051808303816000875af1158015610657573d6000803e3d6000fd5b505050506040513d601f19601f8201168201806040525081019061067b9190610b17565b61068d565b61068d6020830183610c52565b90506106c06106a26080840160608501610d5c565b63ffffffff16606083901b6bffffffffffffffffffffffff19161790565b8484815181106106d2576106d2610c85565b6020908102919091010152505060010161053a565b506106f1816107cd565b6106fa816107db565b9450945050505094509492505050565b600061071c6105726020840184610c52565b1561072e576104d26020830183610c52565b3661073c6020840184610b34565b905061074b6020820182610c52565b6001600160a01b0316636ac0a4c56107666020840184610d82565b6040518363ffffffff1660e01b8152600401610783929190610dc9565b6020604051808303816000875af11580156107a2573d6000803e3d6000fd5b505050506040513d601f19601f820116820180604052508101906107c69190610b17565b9392505050565b806107d7816108b6565b5050565b805181906060908067ffffffffffffffff8111156107fb576107fb610c6f565b604051908082528060200260200182016040528015610824578160200160208202803683370190505b50915060005b818110156108af5761085785828151811061084757610847610c85565b6020026020010151606081901c91565b85838151811061086957610869610c85565b6020026020010185848151811061088257610882610c85565b63ffffffff909316602093840291909101909201919091526001600160a01b03909116905260010161082a565b5050915091565b601f19602082516000845260405160028210610944578285018260051b8601815b85810151815111828214176108ed5785016108d7565b8181036108fc57505050610944565b50805b868101518151116109115786016108ff565b828103610938575b8251825184528252918501919086019081831061091957505050610944565b50908252838201526040015b6040515b808214610a5357604082039150815184830151610180828203116109bc57858201805183511061097b5780518351825283525b5b86018181116109b4578051888201805182811161099b5750505061097c565b5b818a01528901805182811161099c575088015261097c565b505050610948565b81601f1681830160061c60051b018251825182518083106109d957915b8183106109e4579091905b8181106109ed57905b835283528352518190835b5b8801805182116109f957825b8a0180518310610a0557925082811015610a265780518351825283526109f8565b50508681018552818782011060061b85019450828552808786015282811160061b85019450505050610948565b50509092525050565b604051806040016040528060006001600160a01b03168152602001610a9d604051806040016040528060006001600160a01b03168152602001606081525090565b905290565b600060208284031215610ab457600080fd5b813567ffffffffffffffff811115610acb57600080fd5b8201608081850312156107c657600080fd5b600060208284031215610aef57600080fd5b813580151581146107c657600080fd5b6001600160a01b0381168114610b1457600080fd5b50565b600060208284031215610b2957600080fd5b81516107c681610aff565b60008235603e19833603018112610b4a57600080fd5b9190910192915050565b6000808335601e19843603018112610b6b57600080fd5b83018035915067ffffffffffffffff821115610b8657600080fd5b6020019150600781901b3603821315610b9e57600080fd5b9250929050565b6080808252855190820181905260009060209060a0840190828901845b82811015610be75781516001600160a01b031684529284019290840190600101610bc2565b5050508381038285015286518082528783019183019060005b81811015610c2257835163ffffffff1683529284019291840191600101610c00565b505063ffffffff871660408601529250610c3a915050565b6001600160a01b038316606083015295945050505050565b600060208284031215610c6457600080fd5b81356107c681610aff565b634e487b7160e01b600052604160045260246000fd5b634e487b7160e01b600052603260045260246000fd5b6000602080835260018060a01b0380855116828501528185015115156040850152806040860151166060850152806060860151166080850152608085015160a0808601528181511660c0860152828101519050604060e08601528181511661010086015282810151915050604061012085015280518061014086015260005b81811015610d375782810184015186820161016001528301610d1a565b506101609250600083828701015282601f19601f830116860101935050505092915050565b600060208284031215610d6e57600080fd5b813563ffffffff811681146107c657600080fd5b6000808335601e19843603018112610d9957600080fd5b83018035915067ffffffffffffffff821115610db457600080fd5b602001915036819003821315610b9e57600080fd5b60208152816020820152818360408301376000818301604090810191909152601f909201601f1916010191905056fea2646970667358221220c2ceb773be9e7a12fe4fd2bc4a8e05e6a01756b89fcfe1a9ce0cd93a8a37e22964736f6c63430008110033",
    "linkReferences": {}
  },
  "methodIdentifiers": {
    "createDiversifier((address,bool,(address,(address,bytes)),(address,(address,address),uint32)[]))": "b7ba8b4e",
    "passThroughWalletFactory()": "6348a0ba",
    "splitMain()": "0e769b2b",
    "swapperFactory()": "d122d54a"
  },
  "id": 62
}